:020000022000DC
:103000000000012099320200393202003B320200F6
:103010003D3202003F320200413202000000000057
:1030200000000000000000000000000039B30300B1
:1030300045320200000000005DB303004932020087
:10304000A57C02004F320200899D0200533202002B
:1030500065A60200573202005D8702005B32020063
:103060005D3202005F320200613202006332020010
:103070006532020067320200693202006B320200E0
:103080006D320200A53E020071320200733202006E
:10309000E53E020077320200717603007B320200C7
:1030A0007D3202007F320200813202008332020050
:1030B00085320200873202004B3202004B3202009E
:1030C000893202008B3202008D3202008F32020000
:0C30D00099B10300933202009532020017
:1030DC00354936480A1A02D0072291438D463449A5
:1030EC0034480A1A06D00722914381F30988022238
:1030FC0082F3148830483149314A00F044F83148A1
:10310C003149324A00F03FF831483249324A00F036
:10311C003AF832483249334A00F035F832483349EC
:10312C00334A00F030F833483349344A00F02BF876
:10313C0033483449344A00F026F8344834490022E4
:10314C0000F02CF833483449002200F027F83348BB
:10315C003349091A082902DB002202604160314A16
:10316C0090471F481F49884205D00268043003B4B9
:10317C00904703BCF7E700208646EC460020002170
:10318C00294A9047FEE7884207D0521A05D00378A7
:10319C0001300B700131013AF9D17047884202D0ED
:1031AC0002700130FAE770470000012000F800209F
:1031BC00000001200000012060E20300642C0020CC
:1031CC009C320020F0320200F03202005CCF03008F
:1031DC0060E20300642C0020642C0020F8CF030074
:1031EC00F8CF0300F8CF0300F8CF0300F8CF0300AB
:1031FC00F8CF0300F8CF0300F8CF030060E2030020
:10320C0098E803009C3200209C3200209C32002065
:10321C002CC800202CC8002034C8002034C8002042
:10322C0034CA0020BD3202003DD30200FEE7FEE7A7
:10323C00FEE7FEE7FEE7FEE7FEE7FEE7FEE7FEE75A
:10324C00FEE7FEE7FEE7FEE7FEE7FEE7FEE7FEE74A
:10325C00FEE7FEE7FEE7FEE7FEE7FEE7FEE7FEE73A
:10326C00FEE7FEE7FEE7FEE7FEE7FEE7FEE7FEE72A
:10327C00FEE7FEE7FEE7FEE7FEE7FEE7FEE7FEE71A
:10328C00FEE7FEE7FEE7FEE7FEE700BF0F484FF064
:10329C000701884385460E4880470E48016841F473
:1032AC0070010160BFF34F8FBFF36F8FFFF710BF3B
:1032BC0009480A490A4A884207D0521A05D00378AD
:1032CC0001300B700131013AF9D170470000012037
:1032DC009945030088ED00E0E4CF0300502C00205A
:0432EC00642C00202E
:1032F0000048704724C8002000B589B003900291AF
:103300000192029B9BB2ADF81430019B0693039B84
:10331000079305AB1A46002144F2010000F050F873
:1033200000BF09B05DF804FB86B0039002910192E2
:1033300001238DF817309DF81730204A039B136046
:103340001E4A029B53601D4A019B9360039B44F2FB
:103350000102934213D0039B44F20202934222D112
:10336000019B164AD360154BDB681B881A46134B2A
:103370009A61124BDB685B68104AD36113E0019BD2
:103380000E4A13610D4B1B699B680C4A53610B4B32
:103390001B691B881A46094B9A61084B1B695B68BD
:1033A000064AD36100BF72B600BF9DF81730DBB28A
:1033B000002BFAD162B600BF06B070479C320020E5
:1033C00000B587B0039002910192039B41F2010284
:1033D000934219D0039B41F20102934203D8039B0D
:1033E000012B13D013E0039B44F20102934208D057
:1033F000039B44F20202934200D008E0019B059334
:1034000005E0019B049302E000BF00E000BF084B11
:103410001B6803F00103002B00D0FFDE019A029924
:103420000398FFF781FF00BF07B05DF804FB00BF02
:10343000F0ED00E082B003468DF807309DF80730CC
:1034400003F01F0205499DF907305B09012000FACE
:1034500002F241F8232000BF02B0704700E100E013
:1034600082B003468DF807309DF8073003F01F0245
:1034700006499DF907305B09012000FA02F220336A
:1034800041F8232000BF02B0704700BF00E100E018
:1034900082B003468DF807309DF8073003F01F0215
:1034A00006499DF907305B09012000FA02F240331A
:1034B00041F8232000BF02B0704700BF00E100E0E8
:1034C00082B003468DF807309DF8073003F01F02E5
:1034D00006499DF907305B09012000FA02F26033CA
:1034E00041F8232000BF02B0704700BF00E100E0B8
:1034F00082B0034600918DF807309DF90730002B0C
:103500000CDA009BDAB20C499DF8073003F00F0388
:10351000043B5201D2B20B441A7609E0009BDAB2A6
:1035200006499DF907305201D2B20B4483F80023BB
:1035300000BF02B0704700BF00ED00E000E100E016
:1035400084B00190244B0393019B002B40D0234B6C
:103550001A680399019B00BF00BF00BF00BF00BFF6
:1035600000BF00BF00BF8A422FD000BF00BF00BF16
:1035700000BF00BF00BF00BF00BF00BF00BF00BF53
:1035800000BF00BF00BF00BF00BF00BF00BF00BF43
:1035900000BF00BF00BF00BF00BF00BF00BF00BF33
:1035A00000BF00BF00BF00BF00BF00BF00BF00BF23
:1035B00000BF00BF00BF00BF00BF00BF00BF00BF13
:1035C00000BF00BF00BF00BF00BF013BC3D10193DC
:1035D00000BF04B0704700BF0024F4007432002024
:1035E00000B583B00190064A019BC2F80835062158
:1035F0001120FFF77DFF00BF03B05DF804FB00BFA3
:103600000010014008B50D4B4FF48032C3F844233D
:103610000A4B4FF48032C3F804231120FFF750FF08
:103620001120FFF707FF054B01221A602F20FFF73B
:1036300087FF034B01221A7000BF08BD0010014034
:10364000DA33002008B51120FFF70AFF0E4B4FF4C4
:103650008032C3F848230C4B4FF48032C3F8082360
:10366000094B01225A602F20FFF76AFF064B012207
:103670009A60064B00221A602F20FFF761FF044B6F
:1036800000221A7000BF08BD00100140CC3300209A
:10369000DA330020024BD3F804351846704700BFD8
:1036A0000010014082B001900091019A009BD31A52
:1036B00023F07F43184602B07047000082B00190AB
:1036C000034A019BC2F8403500BF02B0704700BFFB
:1036D0000010014086B00190284B1B68002B03D1DD
:1036E000264A019B136045E0019B1A68234B1B6827
:1036F0001B689A4210D8214B1B681968019B1A68F5
:103700001E4B1B688A1A1A601C4B1A68019BDA61EF
:103710001A4A019B13602DE0019B1B680393174B12
:103720001B680593154B1B68049309E0049B1B68F9
:10373000039AD31A0393049B0593049BDB690493B8
:10374000049B002B04D0049B1B68039A9A42EDD87B
:10375000049B002B05D0049B1A68039BD21A049B80
:103760001A60019B039A1A60019B049ADA61059B17
:10377000019ADA6100BF06B0704700BFC83300206D
:1037800000B587B001902A4B1B680393284B1B6838
:103790000593059B049308E0049A019B9A4208D084
:1037A000049B0593049BDB690493049B002BF3D1DA
:1037B00000E000BF049B002B01D1002333E0059AF9
:1037C000049B9A4214D11A4B1B68DB69184A136098
:1037D000174B1B68002B0BD1164B01229A60164B1E
:1037E00000221A60154B01221A702F20FFF7A8FE45
:1037F000049B1B680293049BDA69059BDA61059BB5
:10380000DB690493049B002B05D0049B1A68029B80
:103810001A44049B1A60064B1B68039A9A4214BF11
:1038200001230023DBB2184607B05DF804FB00BF9C
:10383000C833002000100140CC330020DB330020CF
:1038400008B51120FFF724FE00BF08BD08B51420FD
:10385000FFF71EFE00BF08BD00B583B00190019BBD
:103860005B69019A92691046984700BF03B05DF802
:1038700004FB000000B585B02B4B1B68002B4ED01D
:1038800000230193FFF706FF0246284B1B681946E9
:103890001046FFF707FF0290234B1B6803931DE0C0
:1038A000039B1B68029A9A421CD3039B1B68029AD3
:1038B000D31A0293039B1B68019A13440193039B41
:1038C0000093039BDB690393009B1B7C002B05D0BB
:1038D000009B00221A740098FFF7BEFF039B002B89
:1038E000DED100E000BF124B1A78124B1B789A42CF
:1038F0000CD1104B1B780133DAB20E4B1A700D4B02
:103900001B78022B02D10B4B00221A70094B1B783B
:103910001946094A019B42F82130FFF797FF00BF83
:1039200005B05DF804FB00BFC8330020CC33002095
:10393000D8330020D9330020D033002082B001904A
:10394000184B1A78184B1B789A4223D0154B1B78CA
:103950000133DAB2134B1A70124B1B78022B02D1CF
:10396000104B00221A700F4B1B781A460F4B53F85E
:103970002220019B1A60019B1A680D4B1B6813449F
:103980000B4A13600A4B1B6823F07F43084A1360FD
:10399000012303E0019B00221A600023184602B0B5
:1039A000704700BFD8330020D9330020D033002027
:1039B000CC33002088B0039002910192002307933A
:1039C00038E0204B1B680693069B1B68039A9A42BB
:1039D00006D2069B1A68039BD21A069B1A602DE03A
:1039E000069B1B68039AD31A0393069B1B68079ACE
:1039F00013440793069B00221A60124B1B68059321
:103A0000069BDB690F4A1360069BDB68002B11D015
:103A1000029A079B134423F07F42069B5A60069B41
:103A2000DA68069B9A60019B1A68069BDA61019B23
:103A3000059A1A60034B1B68002BC2D100BF08B067
:103A4000704700BFC833002000B589B00190002343
:103A50008DF81F30664B1B680593AAE0019B002B75
:103A600005D0019B0693069BDB69019361E0614BE6
:103A70001B781A4613465B001344DB005D4A13446F
:103A8000043304935B4B1B780133DAB2594B1A7041
:103A9000584B1A78574B9B789A4202D1554B0022CB
:103AA0001A70049B5B680693049B1B78022B04D05E
:103AB000032B1BD0012B1FD01DE0049B5B68184615
:103AC000FFF75EFE0346002B02D001238DF81F3066
:103AD000069B00221A746CE0454B1B680393039B02
:103AE00000221A74039BDB69414A1360404B1B6838
:103AF000002BF1D15DE05CE000BF069B1B7C002B3E
:103B000000D056E0049B9A68069B5A60049BDA68D2
:103B1000069B9A60049B1A69069BDA60049B5A69AB
:103B2000069B9A61344B1B78002B02D0069B002227
:103B30005A60069B5A68314B1B68D31A23F07F43A7
:103B40002F4A93420ED8069B5A682C4B1B68194685
:103B50001046FFF7A7FD0246069B9B681A44069B8A
:103B60001A6017E0254B1A68069B5B6819461046D9
:103B7000FFF798FD0290069B9B68029A9A4206D234
:103B8000069B9A68029BD21A069B1A6002E0069B6B
:103B900000221A60069B00225A60069B00229A604F
:103BA000069B01221A74069B0022DA610698FFF731
:103BB00091FD019B002B7FF451AF0E4B1A780D4BFA
:103BC0005B789A427FF44AAF9DF81F30002B04D1F6
:103BD000074B1B68059A9A4201D0012300E000239D
:103BE00003F00103DBB2184609B05DF804FB00BF27
:103BF000C8330020BC320020DB330020CC3300204F
:103C0000FEFF7F0010B588B00190274B1B68002B8A
:103C100044D0254B1B681B680793FFF73BFD0690BC
:103C2000224B1B68059305990698FFF73BFD034659
:103C3000033304931E4B1B7883F00103DBB2002B8C
:103C400001D0FFF7DFFC049A079B934238BF13466D
:103C5000059A13440593059B23F07F43059305982C
:103C6000FFF72CFDFFF716FD039006990398FFF769
:103C700019FD0346DC1C06990598FFF713FD034662
:103C80009C420DD9FFF706FD03461846FFF716FDC7
:103C90002F20FFF755FCFFF7D3FD01E0FFF7D2FC23
:103CA00000BF08B010BD00BFC8330020CC330020D7
:103CB000DA33002000B587B00023019300238DF88C
:103CC0001730194B1B680493184B1B6803936B4602
:103CD0001846FFF733FE03468DF80B309DF80B3086
:103CE000002B08D0009B01AA04991846FFF762FE3A
:103CF00001238DF81730019B1846FFF7A5FE0346F8
:103D0000002B02D001238DF817309DF81730002BBF
:103D100002D00398FFF776FF054B00221A7000BF10
:103D200007B05DF804FB00BFCC330020C83300208F
:103D3000DB33002082B003468DF80730034A9DF83C
:103D40000730537000BF02B0704700BFBC32002084
:103D500084B00190144B5B7801338DF80F30124B17
:103D60009B789DF80F209A4202D100238DF80F30E6
:103D70000D4B1B789DF80F209A4201D100230FE0D4
:103D8000019B9DF80F201A70074B5B781A4613466B
:103D90005B001344DB00044A134404330293029B88
:103DA000184604B0704700BFBC32002000B589B08F
:103DB00003900291019200930023079300238DF852
:103DC00016300DF11603184600F0BCF90DF117037B
:103DD0001846FFF7BDFF0690069B002B02D1042377
:103DE000079318E0069B01221A70069B039A5A60FB
:103DF000FFF750FC0246069B9A60069B029ADA6027
:103E0000069B019A1A61069B009A5A619DF8173029
:103E10001846FFF78FFF9DF81630184600F0A8F9F6
:103E2000079B002B01D1FFF711FD079B184609B036
:103E30005DF804FB00B587B001900B468DF80330A8
:103E40000023059300238DF80E300DF10E03184664
:103E500000F078F90DF10F031846FFF779FF049091
:103E6000049B002B02D1042305930BE0049B9DF8D7
:103E700003201A70049B019A5A609DF80F3018466F
:103E8000FFF758FF9DF80E30184600F071F9059BBA
:103E9000002B01D1FFF7DAFC059B184607B05DF84F
:103EA00004FB000008B50E4B0022C3F840210C4B68
:103EB0000022C3F844210A4B0022C3F84821084BD2
:103EC0000022C3F84C21064B0022C3F80021044B0A
:103ED0000022C3F80421FFF7CDFC00BF08BD00BFDE
:103EE0000010014008B5FFF7E5FE00BF08BD000067
:103EF00008B5FFF7A7FB134B00221A70114B0022E5
:103F00005A70104B0B229A700F4B00221A600F4B05
:103F100000221A700E4B00221A701420FFF7D0FAFC
:103F200006211420FFF7E4FA1420FFF783FA00209B
:103F3000FFF756FBFFF7AEFB0246064B1A60002365
:103F4000184608BDBC320020C8330020D8330020FA
:103F5000D9330020CC33002086B003900B46019269
:103F60008DF80B30134B9B78002B01D108231EE0FA
:103F7000019B002B01D1072319E0039B002B01D1EA
:103F8000072314E0039B1B681B7C002B01D0082334
:103F90000DE0039B1B680593059B00221A74059B8B
:103FA0009DF80B205A74059B019A5A61002318460C
:103FB00006B07047BC32002000B587B00390029174
:103FC0000192039B0593144B9B78002B01D108238E
:103FD0001EE0039B002B01D1082319E0029B042B58
:103FE00001D8072314E0059B5B69002B01D108234E
:103FF0000EE0059B5B7C012B01D1029B00E00023BE
:104000000493019B049A02990598FFF7CFFE03469B
:10401000184607B05DF804FBBC32002000B585B03F
:104020000190019B03930D4B9B78002B01D108233A
:1040300010E0019B002B03D0039B5B69002B01D197
:10404000082307E0039B00221A7402210398FFF75C
:10405000F1FE0346184605B05DF804FBBC320020B3
:1040600082B0EFF310830093009B019372B6019B23
:10407000184602B0704762B600BF704700B585B001
:104080000190FFF7EDFF0390164B9B68002B1BD1AF
:10409000144B01229A60144BD3F88020134B134029
:1040A000104A1360104B114AC3F880200E4BD3F80E
:1040B00084300C4A53600C4B4FF0FF32C3F884201D
:1040C000019B00221A7002E0019B01221A70039BDF
:1040D000002B01D1FFF7CFFF0023184605B05DF894
:1040E00004FB00BFDC33002000E100E0FC06FFBD64
:1040F00000B585B003468DF80730104B9B68002B48
:1041000016D09DF80730002B12D1FFF7A9FF0390BE
:104110000B4A0A4B1B681360094A084B5B685360E3
:10412000064B00229A60039B002B01D1FFF7A3FFEF
:104130000023184605B05DF804FB00BFDC33002007
:1041400000E100E000B583B0019000F02BF80346D9
:10415000012B03D00549432007F09AFB0198FFF794
:104160008DFF00BF03B05DF804FB00BFF8CF030074
:1041700000B583B003468DF8073000F013F803460E
:10418000012B03D00649512007F082FB9DF8073030
:104190001846FFF7ADFF00BF03B05DF804FB00BF9A
:1041A000F8CF030084B0EFF305830193019BC3F3C1
:1041B00008030393039B002B0DD1EFF314830093AB
:1041C000009B0293029B03F00103002B0CBF012311
:1041D0000023DBB200E00123184604B0704782B030
:1041E0000190019B03F00303002B0CBF012300236C
:1041F000DBB2184602B0704710B487B0019000914E
:10420000019B009A53E8004F44EA020043E8000192
:1042100091F0000FF6D1059404900391059B184688
:1042200007B05DF8044B704710B487B0019000915F
:10423000019B009A53E8004F04EB020043E80001A1
:1042400091F0000FF6D1059404900391059B184658
:1042500007B05DF8044B704710B487B0019000912F
:10426000019B009A53E8004F04EB020043E8000171
:1042700091F0000FF6D1059404900391049B184629
:1042800007B05DF8044B704710B487B001900091FF
:10429000019B009A53E8004FA4EB020043E80001A1
:1042A00091F0000FF6D1059404900391049B1846F9
:1042B00007B05DF8044B704700B583B00190012151
:1042C0000198FFF799FF0346184603B05DF804FB19
:1042D00000B585B00190002303930EE00A4A039BCA
:1042E00052F82330002B05D0074A039B52F82330A5
:1042F00001989847039B01330393039B032BEDD94C
:1043000000BF05B05DF804FBF833002082B00190D7
:104310000091019B1B78013B052B61D801A252F84B
:1043200023F000BF3D430200454302006B430200FF
:104330009D430200BD430200D9430200009B0022BE
:104340001A704EE0009B01221A70019B1A89009B93
:104350009A81019B9A88009BDA81019BDA68009B15
:104360009A60009B00221A743BE0009B02221A70A4
:10437000019B1A89009B9A81019B9A88009BDA8194
:10438000019BDA68009B9A60019B9B7D062B0CBF0A
:1043900001230023DAB2009B1A7422E0009B03225F
:1043A0001A70019BDA88009B9A81019B1A89009BF5
:1043B000DA81019BDA68009B9A6012E0009B04227C
:1043C0001A70019BDA88009B9A81009B0022DA8197
:1043D000009B00229A6004E0009B05221A7000E016
:1043E00000BF00BF02B0704784B001900091019BF4
:1043F0000393039A009B9A4206D2039B1B68B3F176
:10440000FF3F01D0012300E0002303F00103DBB2F2
:10441000184604B0704782B00190019B5B8803335B
:104420009B00019A1344184602B0704700B583B050
:10443000019000910198FFF7EEFF0246009B934226
:1044400001D202230CE0019B9B884FF6FF7293423E
:1044500003D0019B1B88002B01D1012300E0002326
:10446000184603B05DF804FB00B583B00190019BD2
:10447000002B13D00D4BDB681A46019B93420DD3E2
:104480000A4B1B691A46019B934207D80198FFF714
:10449000A6FE0346002B01D0012300E0002303F019
:1044A0000103DBB2184603B05DF804FB502C00207A
:1044B00082B00190019B002B04D0019B1B680B4A2A
:1044C000934201D003230DE0019B04331B68084A8B
:1044D000934204D0074A934203D1012302E0002310
:1044E00000E00323184602B0704700BFDEC0ADDE17
:1044F000FE011EF1FF011EF184B001900023039321
:104500000CE0039B9B00019A13441B68B3F1FF3F2F
:1045100001D0002307E0039B01330393039BB3F512
:10452000806FEED30123184604B0704782B0034673
:104530000A46ADF806301346ADF80430BDF8062043
:10454000134913469B0013449B000B4408331A88FD
:10455000BDF804301344ADF80430BDF806200C4912
:1045600013469B0013449B000B440A331A88BDF882
:1045700004301344ADF80430BDF8043040F2FF328B
:10458000934294BF01230023DBB2184602B0704768
:10459000A834002084B0019000910A2303930023E3
:1045A000ADF80A3027E0BDF80A20174913469B00F2
:1045B00013449B000B4404331B68009A9A4215D99C
:1045C000BDF80A20104913469B0013449B000B447E
:1045D00004331B6803F58053009A9A4206D20023E5
:1045E0000393019BBDF80A201A8008E0BDF80A3049
:1045F0000133ADF80A30BDF80A30012BD3D9039B43
:10460000184604B0704700BFA834002000B589B038
:10461000039002910192039B03F580530693039B41
:1046200008330393029B02221A80039B079332E014
:1046300006990798FFF7FAFE03468DF817309DF8A4
:104640001730002B0AD1079B9A68184B1B689A42B7
:1046500013D9079B9B68154A13600EE0019B002B42
:1046600002D0019B01221A709DF81730022B04D151
:10467000029B4FF480621A8014E0029B1A88079B09
:104680005B8813449BB203339AB2029B1A8007984B
:10469000FFF7C1FE079006990798FFF7A5FE0346AE
:1046A000002BC5D109B05DF804FB00BF0834002021
:1046B00082B001900B46ADF80230019B1A89BDF81B
:1046C000023013449BB203339AB2019B1A81019BBF
:1046D0005A89BDF80230D31A9BB2033B9AB2019BB0
:1046E0005A8100BF02B0704700B583B0074B1B680A
:1046F0001946002300930823054A064801F0A6FD49
:104700000346184603B05DF804FB00BFD034002018
:10471000ACD00300502C002000B585B00390039965
:10472000002300930823044A044801F08FFD034648
:10473000184605B05DF804FBB4D00300502C0020EF
:1047400000B585B003460091ADF8063000238DF822
:104750000F30BDF806300333ADF80A30BDF80A302B
:1047600040F2FD32934201D909234AE00023ADF81B
:104770000C303BE0BDF80C20244913469B00134449
:104780009B000B441B78002B2BD1BDF80A20BDF8F1
:104790000C3011461846FFF7C9FE0346002B20D007
:1047A00001238DF80F30009BBDF80C201A80BDF856
:1047B0000C20164913469B0013449B000B440A33FC
:1047C0001988BDF80C20BDF80A300B4498B20F4987
:1047D00013469B0013449B000B440A3302461A8085
:1047E00008E0BDF80C300133ADF80C30BDF80C30EA
:1047F000012BBFD99DF80F30002B01D0002300E022
:104800000723184605B05DF804FB00BFA83400205C
:1048100082B003460A46ADF806301346ADF80430C0
:10482000BDF804200D4913469B0013449B000B4424
:104830000A331A88BDF80630D31A9BB2BDF804209B
:10484000033B98B2054913469B0013449B000B445D
:104850000A3302461A8000BF02B07047A834002015
:1048600008B501210248FFF7F7FC0346184608BDCA
:104870000834002000B585B003460091ADF806303D
:10488000BDF80620224913469B0013449B000B44AD
:1048900004331B6803F580530293009B1B6803934A
:1048A000039B002B04D00398FFF7B5FD039023E092
:1048B000BDF80620164913469B0013449B000B4489
:1048C00004331B680833039316E002990398FFF73B
:1048D000ADFD0346012B08D0022B0BD0002B0BD1D2
:1048E000009B039A1A6001230EE00398FFF793FDE3
:1048F000039001E0002307E002990398FFF774FD9D
:104900000346002BE1D10023184605B05DF804FBF7
:10491000A834002000B585B001900091019B5B6830
:104920001846FFF7A1FD0346002B19D0019B1A89F9
:10493000244B1B899A4213D1019B1A68019B5B6827
:104940009B689A420CD1019B5B6819460098FFF75F
:1049500021FE0346002B0CBF01230023DBB22CE019
:10496000009B00221A8023E00023029310E0029BA8
:104970000393039B9A68019B1B689A4208D1029A91
:10498000019B5A600F4B1A89019B1A81012314E085
:10499000009B1B8802AA11461846FFF76BFF0346CF
:1049A000002BE4D1009B1B8801339AB2009B1A8034
:1049B000009B1B88012BD7D90023184605B05DF852
:1049C00004FB00BFD834002000B587B003900291EB
:1049D00001920093304B1B78DBB283F00103DBB212
:1049E000002B01D0022353E0019B002B02D0009B3F
:1049F000002B48D105234BE0009B9B881946274A92
:104A00000B469B000B449B0013441B78002B33D1B7
:104A100024E0009B1B680593039B002B06D0059B9D
:104A20009A88039B1B889A4200D017E0029B002BB8
:104A300006D0059B1A88029B1B889A4200D00DE085
:104A4000059B9A68019B1A60009B1A68019B5A603B
:104A5000134B1A89019B1A81002319E0009B9B8844
:104A6000009A11461846FFF705FF0346002BD0D1E8
:104A7000009B00221A6000E000BF009B9B8801336E
:104A80009AB2009B9A80009B9B88012BB4D90A2381
:104A9000184607B05DF804FBE8330020A834002076
:104AA000D834002000B585B00190084B0199184614
:104AB00001F05BFB03901C220021039817F056F9CC
:104AC000039B184605B05DF804FB00BF9834002036
:104AD00000B583B00190044B0199184601F05CFBCE
:104AE00000BF03B05DF804FB9834002000B583B02C
:104AF0000190054B0199184601F062FB03461846E8
:104B000003B05DF804FB00BF9834002000B583B00B
:104B10000190044B0199184601F069FB00BF03B0F6
:104B20005DF804FB9834002008B50A4B1B68002B85
:104B300004D1094940F2712006F0AAFE012105487E
:104B4000FFF7A2FB0346002B14BF01230023DBB2B7
:104B5000184608BDF033002058D0030000B587B0D8
:104B6000002305930023ADF812300323ADF8103075
:104B700000238DF80F300023ADF80C30EFE0BDF8C6
:104B80000C301A037E4BDB68134402930298FFF744
:104B90008FFC03468DF807309DF80730012B00F09D
:104BA0009C80032B02D0002B62D0D3E00298FFF749
:104BB000A3FC0346002B3BD0724B1B68002B29D073
:104BC000BDF81220704913469B0013449B000B4410
:104BD00002221A70BDF812206B4913469B00134441
:104BE0009B000B440433029A1A60BDF812206649F8
:104BF00013469B0013449B000B44083302221A8087
:104C0000624ABDF812305380BDF812300133ADF85E
:104C1000123008E05B4A029B13605A4B02229A80D2
:104C200001238DF80F30059B43F00103059391E0BC
:104C3000BDF81030013BADF81030BDF812205249DC
:104C400013469B0013449B000B440433029A1A60E2
:104C5000BDF812204C4913469B0013449B000B44A3
:104C600003221A70BDF812300133ADF8123071E032
:104C7000BDF81220444913469B0013449B000B448B
:104C800000221A70BDF812203F4913469B001344BE
:104C90009B000B440433029A1A60BDF8122013469D
:104CA0009B0013449B000833374A9918BDF8122023
:104CB00013469B0013449B001033334A13441A4697
:104CC0000298FFF7A3FC059B43F002030593BDF890
:104CD00012300133ADF812303CE09DF80F30002B5C
:104CE00025D0BDF81220284913469B0013449B0091
:104CF0000B4402221A70BDF81220224B1968224878
:104D000013469B0013449B00034404331960BDF811
:104D100012201D4913469B0013449B000B4408338B
:104D200002221A80BDF812300133ADF81230154A54
:104D3000029B1360002216490298FFF767FC114B93
:104D40009B88022B01D1042300E00823059A13431A
:104D5000059300BFBDF80C300133ADF80C30BDF841
:104D60000C30022B7FF60BAFBDF81030012B01D8B1
:104D700000230593059BDBB2184607B05DF804FBE2
:104D8000502C0020D0340020A8340020D83400203B
:104D9000D434002000B587B003900291039B022217
:104DA0009A750299039B1A1D002300930423074858
:104DB00001F04CFA0590059B002B01D1002300E087
:104DC0000E23184607B05DF804FB00BF502C0020EE
:104DD00000B587B003900291039B1B69002B01D0A3
:104DE000032200E00122039B9A75029B08331946B7
:104DF000039B03F10C02002300930423064801F0F7
:104E000025FA0590059B002B01D1002300E00E231D
:104E1000184607B05DF804FB502C002000B587B0A1
:104E200003900291039B1B78032B01D1052200E024
:104E30000622039B9A75029B04331946039B03F1D8
:104E40000802002300930423064801F0FFF90590AF
:104E5000059B002B01D1002300E00E23184607B06C
:104E60005DF804FB502C002000B587B003900B4682
:104E7000ADF80A3003990023009304230C4A0D482F
:104E800001F0E4F90590059B002B01D00E230BE007
:104E9000BDF80A20084913469B0013449B000B44AD
:104EA000103301221A700023184607B05DF804FB86
:104EB000BCD00300502C0020A834002000B589B0DD
:104EC000019002AB00221A605A609A60019BDB6875
:104ED00002930DF1160202AB11461846FFF71AFDB8
:104EE0000346002B12D0039B0693069B9A88019BD6
:104EF000DA80069B1A88019B1A81039BBDF8162055
:104F000011461846FFF7B0FF079001E00A23079308
:104F1000079B184609B05DF804FB000000B587B098
:104F20000190019B981D02AA0D4B0021FFF74CFD3B
:104F30000590059B002B08D1039A094B9B881946C5
:104F40001046FFF791FF059004E008220021044875
:104F500016F00CFF059B184607B05DF804FB00BF78
:104F6000E834002000B587B003900291039B012232
:104F70009A75029B0C331846039B1A69039BDB88C6
:104F80009900002300930B460146074801F05EF9A3
:104F90000590059B002B01D1002300E00E2318464D
:104FA00007B05DF804FB00BF502C002082B0184B06
:104FB0001B8901339AB2164B1A81154B00225A8075
:104FC000134B00221A730023ADF8063018E0BDF829
:104FD0000620104913469B0013449B000B441A788B
:104FE000BDF80630002A0CBF01220022D1B2084AC7
:104FF00013440A469A72BDF806300133ADF8063004
:10500000BDF80630012BE2D900BF02B0704700BFE7
:10501000D8340020A834002084B0019000238DF8FB
:105020000F300023ADF80C3031E0BDF80C301C4AD5
:1050300013449B7A002B25D0BDF80C30184A13443A
:1050400000229A72BDF80C20164913469B001344A7
:105050009B000B440C331B68002B13D1BDF80C20B4
:10506000104913469B0013449B000B4410331B78DC
:10507000002B07D0019BBDF80C201A8001238DF86E
:105080000F3008E0BDF80C300133ADF80C30BDF83E
:105090000C30012BC9D99DF80F30184604B0704769
:1050A000D8340020A834002008B5084B05221A7017
:1050B000074B02229A80064B1B68194600230122E7
:1050C000044801F015F90346184608BDD8340020FD
:1050D000D0340020502C002000B583B0164B5B88E4
:1050E000ADF80230BDF80220144913469B0013446A
:1050F0009B000B440C331B68002B14D10E4B042275
:105100001A70BDF802200D4913469B0013449B0002
:105110000B4404331B68194600230122084801F0A0
:10512000E7F8019002E0FFF7BFFF0190019B1846EE
:1051300003B05DF804FB00BFD8340020A834002081
:10514000502C002000B587B0114B5B680593114BC4
:105150001A68104B9B889B0013440493059B5B8843
:105160000333ADF80E300A4B03221A700499084B32
:105170005A68BDF80E309800002300930346064895
:1051800001F064F80346184607B05DF804FB00BF61
:10519000D8340020D0340020502C002000B583B03B
:1051A0000A4B5B880A491846FFF764FB0346002B4D
:1051B00003D0FFF7C7FF019002E0FFF78DFF0190DA
:1051C000019B184603B05DF804FB00BFD8340020F3
:1051D000DC34002008B50A4B06221A70084B5B88A5
:1051E0001946084A0B469B000B449B0013440433AA
:1051F0001B681846FFF790FA0346184608BD00BF23
:10520000D8340020A834002008B5054B07221A70B6
:10521000034B00225A60FFF767FA0346184608BDA1
:10522000D834002008B50D48FFF7F6FE034683F09A
:105230000103DBB2002B0BD0094B00221A70084B84
:1052400000225A80064B00225A6041F61D5302E0AC
:10525000FFF7A4FF0346184608BD00BFDA3400205C
:10526000D834002082B0094B5B680193019B5B88B6
:105270000333ADF80230064B9A88BDF80230134470
:105280009AB2034B9A8000BF02B07047D834002016
:10529000D034002082B0184B1B680193174B5B88F9
:1052A0001946174A0B469B000B449B0013440433DA
:1052B0001B68114A1360114B5B881946104A0B4654
:1052C0009B000B449B0013440433019A1A600B4B60
:1052D0005B881946084B9888094A0B469B000B448B
:1052E0009B001344083302461A80034B02229A8023
:1052F00000BF02B0704700BFD0340020D834002077
:10530000A834002008B51A4B1B78072B2CD801A213
:1053100052F823F03553020069530200695302002A
:10532000415302004D5302005953020059530200E9
:1053300061530200FFF73AFE0D4B01221A7014E090
:10534000FFF790FF0A4B02221A700EE0FFF7A2FF50
:10535000074B06221A7008E0054B07221A7004E07A
:10536000034B01221A7000E000BF00BF08BD00BF60
:10537000D834002000B587B0019000910F23059329
:10538000019B002B04D0624B00225A600123BBE03A
:10539000009B1B79032B00F2AB8001A252F823F093
:1053A000B1530200BF5302004D5402006D5402007D
:1053B000009B01221A71FFF797F905909BE00023EB
:1053C0008DF813300023ADF810302BE0BDF810201D
:1053D000504913469B0013449B000B441B78022B3F
:1053E0001BD1BDF810204B4913469B0013449B0072
:1053F0000B4400221A7001238DF81330BDF81020E1
:10540000444913469B0013449B000B4404331B6820
:105410001846FFF781F9059008E0BDF81030013318
:10542000ADF81030BDF81030012BCFD99DF81330F6
:1054300083F00103DBB2002B5CD0354B01221A70E4
:10544000334B00225A6041F61D535DE0009B002261
:105450001A71314B02229A802F4B1B681946002388
:1054600001222E4800F044FF059044E0009B0022FA
:105470001A71294B1B681846FFF74EF90590284B07
:105480005B88ADF80E30244B1B680293BDF80E20EC
:10549000204913469B0013449B000B4404331B68B4
:1054A0001D4A1360BDF80E201A4913469B00134491
:1054B0009B000B440433029A1A60BDF80E20164B71
:1054C0009888144913469B0013449B000B440833EF
:1054D00002461A80104B02229A80BDF80E200D4918
:1054E00013469B0013449B000B4400221A7002E0F9
:1054F00000BF00E000BF059B002B04D0044B00223E
:105500005A600E2300E00023184607B05DF804FB44
:10551000E8330020A8340020D0340020502C002094
:10552000D834002000B587B001900091009B9B8A81
:105530001A4613469B0013449B003C4A13440493B1
:10554000019B002B07D0009BDB8819460498FFF7CE
:10555000AFF8012365E0049B5A68049B1B899B00FC
:1055600013440393009B9B7D062B4DD801A252F858
:1055700023F000BFB7550200DB550200C3550200FF
:10558000CF55020091550200E75502000156020076
:10559000274B00225A60009B9B69254A13602549CE
:1055A0002348FFF7B7F9034683F00103DBB2002B72
:1055B00001D00A2335E003990098FFF7EBFB059033
:1055C00025E003990098FFF703FC05901FE003997D
:1055D0000098FFF7C7FC059019E003990098FFF7C2
:1055E0001DFC059013E0009B06229A75104B5A682B
:1055F000104B1B8819461046FFF736FC059006E055
:1056000041F61D53059302E00F23059300BF059B50
:10561000002B05D0009BDB8819460498FFF748F85B
:10562000059B184607B05DF804FB00BFA8340020B6
:10563000F0340020FC34002000B585B001900091CA
:10564000019B002B01D0012323E0009B1B79012B40
:105650000BD0022B14D0002B16D1009B02221A7102
:105660000098FFF72BFC039012E00098FFF756FC20
:105670000390039B0A2B0AD141F61D53039306E0C6
:1056800041F61D53039303E00F23039300E000BF93
:10569000039B184605B05DF804FB000000B585B01B
:1056A0000190019B002B01D001233BE01F4B1B7B92
:1056B000002B03D01D4B00221A7301E0FFF722FEDE
:1056C0001A4B1B78013B062B28D801A252F823F075
:1056D000ED560200F5560200FD5602000557020085
:1056E0001D5702000D57020015570200FFF79AFDE3
:1056F000039016E0FFF752FD039012E0FFF722FD42
:1057000003900EE0FFF7E8FC03900AE0FFF762FD6C
:10571000039006E0FFF778FD039002E00F23039368
:1057200000BF039B184605B05DF804FBD834002089
:1057300000B589B001903F4B1B68002B05D13E4856
:10574000FFF7D4F902463B4B1A603A4B1B68002B1B
:1057500004D13A4940F2795006F09AF8354B1B686B
:105760001B78013B052B2CD801A252F823F000BF77
:10577000895702009957020099570200A957020061
:10578000A9570200B95702002A4B1B681946019815
:10579000FFF7F0FD019017E0264B1B6819460198B2
:1057A000FFF7C0FE01900FE0224B1B6819460198DD
:1057B000FFF742FF019007E00198FFF76FFF0190AC
:1057C00002E00F23019300BF019B002B2BD003AB02
:1057D00014220021184616F0C9FA019B41F61D5209
:1057E000934204D1002304930023019301E0019B21
:1057F0000493104B1B6803AA11461846FEF786FD5A
:1058000003AB1846FEF764FD0A4B00221A600A48F3
:10581000FFF77CF9FFF788F9034683F00103DBB259
:10582000002B02D187E700BF00E000BF00BF09B036
:105830005DF804FB003500200435002058D003003B
:1058400008B501210548FEF7EFFC0346002B02D105
:105850000020FFF76DFF00BF08BD00BFF033002040
:1058600000B583B00190019B5B681846FFF760FFAD
:1058700000BF03B05DF804FB00B58BB0039002914C
:1058800001928DF803300023ADF824300023ADF8E9
:105890002630514B1B78DBB283F00103DBB2002BC7
:1058A00001D0022393E0029B002B01D105238EE05F
:1058B000029B1B884FF6FF72934203D0029B5B88CA
:1058C000002B01D1042382E0029B5B681846FEF79F
:1058D00086FC034683F00103DBB2002B01D00323D7
:1058E00075E0019B002B11D1029B9B68ADF826301F
:1058F0000DF11A02BDF8263011461846FEF720FFBA
:105900000890089B002B09D0089B60E0019B1B8836
:10591000ADF81A30019B5B88ADF8263005AB184610
:10592000FFF7C0F80790079B002B09D1BDF81A209C
:10593000BDF8263011461846FEF76AFF082346E0F8
:10594000079B9DF803201A70079B00229A75BDF8EB
:105950001A20079B9A82029B5A68079B1A61FEF7DE
:105960007FFF0246079BDA60029B1A88079B1A8119
:10597000029B5A88079B9A80079BBDF82620DA80F5
:105980009DF80330032B06D1079B04229A75039BD5
:105990001A68079B9A61079BBDF824205A8105ABC2
:1059A0001846FFF795F8039B002B0DD0039B0022B0
:1059B0005A60079BDA68039B1A60039B00229A7265
:1059C000064B1A89039B1A81FFF73AFF00231846FA
:1059D0000BB05DF804FB00BFE8330020D834002092
:1059E00000B585B001900C4B1B68042B02D10C2331
:1059F00003930BE0084B1B680849019A41F82320E8
:105A000001210548FEF728FC00230393039B184659
:105A100005B05DF804FB00BFF4330020F83300202C
:105A200084B04FF010235B6903934FF080531B69E0
:105A300002934FF080535B690193039BB3F1FF3FE7
:105A400004D1019B029A02FB03F300E0039B18467A
:105A500004B0704700B583B04FF440530193FFF793
:105A6000DFFF0246054B1A61044B1A69019BD31AEA
:105A7000024AD36000BF03B05DF804FB502C002045
:105A800008B5FFF7E7FF00220349044800F0C3FB15
:105A90000346184608BD00BFCCD00300502C0020A0
:105AA00008B504481C238C22034900F017FB00BFF3
:105AB00008BD00BF983400200C34002000B58BB026
:105AC00002AB00221A605A609A60DA601A61404B99
:105AD0001B78DBB2002B05D002AB1846FEF7F8FBB3
:105AE000002371E03B48FEF7E7FB0346002B01D0A3
:105AF000002369E0FFF7C4FF0990099B002B01D048
:105B0000099B61E0FFF7CCFFFFF728F803468DF80B
:105B100023309DF82330022B03D0062B03D0002B1B
:105B20000DD10B2350E02A4B01221A70284B002282
:105B30005A6002AB1846FEF7CBFB002344E000BFDF
:105B400001AB1846FEF7AEFF0790079B002B01D173
:105B5000082339E0079B01221A709DF82330013B8E
:105B60000A2B29D801A252F823F000BF995B02004A
:105B7000B95B0200995B0200B95B0200B15B0200F5
:105B8000B95B0200B15B0200B95B0200A15B0200DD
:105B9000A95B0200A15B0200079B00221A710CE0C6
:105BA000079B03221A7108E0079B02221A7104E086
:105BB000079B01221A7100E000BF01AB1846FEF7F7
:105BC00087FFFFF73DFE002318460BB05DF804FB8E
:105BD000E8330020EC33002000B585B0019000913F
:105BE000019B002B02D0009B002B01D1052329E053
:105BF0000DF10A0319460198FEF78CFE0346002BAF
:105C00001FD0019B5B680393BDF80A301A46134608
:105C10009B0013449B0008330C4A134404330121B6
:105C20001846FEF719FB009B039A1A60019B5B68FC
:105C300003F10C02009B5A60019B01229A7200231F
:105C400000E00A23184605B05DF804FBA8340020E4
:105C500000B585B00190019B002B01D1052339E0EF
:105C60000DF10A0319460198FEF754FE0346002B76
:105C70002DD0BDF80A301946184A0B469B000B443C
:105C80009B0013440C331B68002B1DD0019B9B7A97
:105C9000002B19D0BDF80A301A46104913469B0054
:105CA00013449B000B440C331B68591E0B481346CE
:105CB0009B0013449B0003440C331960019B00229A
:105CC0009A720023039304E00623039301E00A235E
:105CD0000393039B184605B05DF804FBA83400202D
:105CE00000B585B001900B46ADF80230134B1B7820
:105CF000DBB283F00103DBB2002B01D0022319E0F9
:105D0000019B002B01D1052314E00DF10A02BDF81F
:105D1000023011461846FEF713FD0390039B002B3B
:105D200007D1BDF80A20019B1A80019BBDF8022013
:105D30005A80039B184605B05DF804FBE833002049
:105D400000B585B001901F4B1B78DBB283F00103D7
:105D5000DBB2002B01D002232FE0019B002B01D1ED
:105D600005232AE0019B1B88022B01D9042324E090
:105D7000019B1B881A4613469B0013449B00124A42
:105D800013440293019B5B880233029A5289934227
:105D900010DA019B5A88019B1B8819461046FEF7B2
:105DA00037FD019B00221A80019B00225A800023AC
:105DB000039301E004230393039B184605B05DF8A9
:105DC00004FB00BFE8330020A834002000B583B0F6
:105DD000019000910223002200990198FFF74CFDE9
:105DE0000346184603B05DF804FB00B585B0039088
:105DF00002910192019B002B01D1052306E00223B1
:105E0000019A02990398FFF737FD0346184605B03B
:105E10005DF804FB00B583B001900091019B002B5D
:105E200001D1052306E00323002200990198FFF722
:105E300023FD0346184603B05DF804FB00B585B0AA
:105E40000346ADF80630184B1B78DBB283F0010334
:105E5000DBB2002B01D0022322E0BDF806304FF662
:105E6000FF72934201D104231AE002AB1846FEF7F9
:105E700019FE0390039B002B01D1082310E0039B24
:105E800005221A70039B01221A71039BBDF806209C
:105E9000DA8002AB1846FEF71BFEFFF7D1FC0023A9
:105EA000184605B05DF804FBE833002000B583B068
:105EB000144B1B78DBB283F00103DBB2002B01D063
:105EC00002231AE06B461846FEF7ECFD0190019B99
:105ED000002B01D1082310E0019B06221A706B46AB
:105EE0001846FEF7F5FD084B1B78002B02D0064B39
:105EF00001221A73FFF7A4FC0023184603B05DF8D3
:105F000004FB00BFE8330020D834002000B585B082
:105F1000029201930346ADF80E300B46ADF80C30FB
:105F200003A90DF10E00019B029AFEF74DFD0346F9
:105F3000184605B05DF804FB00B585B00346029134
:105F40000192ADF80E300DF10E01019B029A002076
:105F5000FEF73AFD0346184605B05DF804FB00B5B0
:105F600085B0034602910192ADF80E300DF10E009E
:105F7000019B029A0021FEF727FD0346184605B053
:105F80005DF804FB82B001900091019B002B02D0D0
:105F9000009B002B01D1052304E0019B1A68009BA4
:105FA0001A600023184602B0704786B00190009135
:105FB000019B53E8011F8AB2D88902449889824222
:105FC00028BF121A1889824202BFBFF32F8F002305
:105FD00007E0C2EA010243E801200028E9D14FF0BE
:105FE00001038DF80F30059002910492029A009BF4
:105FF0001A609DF80F30DBB2184606B0704784B0C7
:106000000190019951E8013FC3EA034341E801329D
:10601000002AF7D10392029300BF04B0704786B004
:1060200001900091019B53E8021F1FFAA1F2D8884A
:10603000824202BFBFF32F8F00230DE0D8890244B4
:106040009889824228BF121AC1EA024243E802201C
:106050000028E8D14FF001038DF80F300590029130
:106060000492029A009B1A609DF80F30DBB218462A
:1060700006B0704784B00190019951E8023FC3EA2D
:10608000234341E80232002AF7D10392029300BF72
:1060900004B0704786B00190019B53E8021FDA8874
:1060A000B1EB314F4FF0000017BF89B242EA024214
:1060B00041EA024204E05968B1EB314F08BF0120C8
:1060C00043E802210029E8D18DF80F0005910492E0
:1060D0009DF80F30DBB2184606B0704784B00390CD
:1060E000029111461A460B46ADF806301346ADF83C
:1060F0000430029B002B01D10E231FE0BDF80630B7
:10610000BDF80420B3FBF2F102FB01F29B1A9BB233
:10611000002B01D0092311E0039B029A1A60039B14
:1061200000225A60039B00229A60039BBDF8062060
:106130009A81039BBDF80420DA810023184604B03D
:10614000704700B585B001900198FFF7A3FF0346A3
:106150008DF80F309DF80F30002B01D0002300E0A8
:106160001123184605B05DF804FB00B583B001901B
:106170000091009B19460198FFF717FF0346002B7B
:1061800005D0019B1B68009A1288134400E000238D
:10619000184603B05DF804FB00B583B00190009190
:1061A000009B1A88009B5B889A4204D10198FFF7F4
:1061B00026FF012300E00023184603B05DF804FB2E
:1061C00000B583B001900091009B19460198FFF73C
:1061D00026FF0346002B05D0019B1B68009A5288BE
:1061E000134400E00023184603B05DF804FB00B53B
:1061F00083B001900091009B1A88009B5B889A42B3
:1062000004D10198FFF736FF012300E00023184670
:1062100003B05DF804FB00B585B0039002910192D4
:10622000039B002B02D0029B002B01D10E2309E01F
:10623000039B029A1A60039B1B681B6801990398D1
:1062400098470346184605B05DF804FB10B586B0C4
:106250000590049103920293059B002B02D0039BAF
:10626000002B01D10E2340E0059B1B68002B01D1C0
:1062700008233AE0029B002B0AD0059B5B685A6812
:10628000029BB3FBF2F102FB01F29B1A002B01D03F
:1062900009232AE0049800F0C7F8034683F00103BD
:1062A000DBB2002B14D1039B184600F0BDF8034667
:1062B00083F00103DBB2002B0AD1029A04990598FE
:1062C00000F098F8034683F00103DBB2002B01D005
:1062D00010230AE0059B1B68DC68089B0093029B67
:1062E000039A04990598A0470346184606B010BDC6
:1062F00010B584B00390029101920093039B002B90
:1063000001D10E232EE0039B1B68002B01D1082333
:1063100028E0019B002B01D1092323E0039B5B684C
:106320001B685A1E029B1340002B10D1039B5B6815
:106330001B68019A02FB03F31A460299039800F0C6
:1063400059F8034683F00103DBB2002B01D0102380
:1063500008E0039B1B681C69009B019A0299039843
:10636000A0470346184604B010BD000000B585B034
:106370000190019B002B03D0019B1B68002B28D1AF
:106380000023039319E0039A13469B0013449B00D8
:106390001A46154B13440193019B1B68002B09D02F
:1063A000019B1B68DB69019898470346002B01D0CD
:1063B000012314E0039B013303930C4A0A4BD31AC5
:1063C0000B4AA2FB03231B09039A9A42DBD3002347
:1063D00005E0019B1B68DB69019898470346184656
:1063E00005B05DF804FB00BF502C0020642C002099
:1063F000CDCCCCCC84B0039002910192039BDB689E
:10640000029A9A4209D3029A019B13445A1E039B93
:106410001B699A4201D8012300E0002303F0010325
:10642000DBB2184604B0704782B00190019B03F0C4
:106430000303002B0CBF01230023DBB2184602B07C
:10644000704729DF704700BF184628DF704700BF3C
:10645000184610B487B001900091019B009A53E850
:10646000004F104643E8000191F0000FF7D105946A
:1064700004900391059B184607B05DF8044B7047E4
:1064800010B487B001900091019B009A53E8004F2F
:1064900044EA020043E8000191F0000FF6D10594B0
:1064A00004900391059B184607B05DF8044B7047B4
:1064B00000B583B0019001210198FFF7E1FF034689
:1064C000184603B05DF804FB00B589B00190009157
:1064D000019B1B689B68002B31D003AB00221A6024
:1064E0005A609A60DA601A61009B0493019B9B6872
:1064F0000793019B1B79002B02D0012B0AD017E0D8
:1065000001238DF80C30019B1B690593019B5B698E
:1065100006930DE002238DF80C30019BDB684FF4ED
:10652000805202FB03F30593019B5B69069300BF56
:10653000019B1B689B6803AA1046984700E000BFB8
:1065400009B05DF804FB00B587B00190019B5A6962
:10655000019B9B69D31AB3F5805F28BF4FF480532A
:1065600005930422059BB3FBF2F3012B38BF0123F3
:106570000593019B1A69019B9B6913440493019B3A
:10658000DB681A46019B9B6913440393059A0399A0
:106590000498FFF756FF0346184607B05DF804FB62
:1065A00000B583B00190019BDA68019B1B6913441D
:1065B0001846FFF74AFF0346184603B05DF804FB90
:1065C00008B5034B03491846FFF711FE00BF08BD8D
:1065D00094350020BC35002008B5084B0849184602
:1065E000FFF7EEFD0246074B1A60064B1B68002BB7
:1065F00014BF01230023DBB2184608BD94350020E8
:10660000BC350020B835002000B583B02A4B1B7A7A
:10661000002B0BD1FFF7E0FF034683F00103DBB251
:10662000002B03D0244B00225A6041E0224B02226F
:106630001A72224B1B681B79002B02D0012B07D04A
:106640000DE01E4B1B681846FFF77DFF019009E027
:106650001A4B1B681846FFF7A3FF019002E00323C3
:10666000019300BF019B002B03D0019B112B0CD089
:106670000FE0114B1B7C83F00103DBB2002B16D023
:106680000021022000F066F911E00B4B01221A7282
:106690000EE00A4B1B6803211846FFF715FF064B57
:1066A00000221A72044B00225A6000BF00E000BFB3
:1066B00003B05DF804FB00BFA4350020B83500200E
:1066C00000B583B001210A48FFF7C3FE03460193DA
:1066D000019B002B08D1074B5B7C83F00103DBB2ED
:1066E000002B01D0FFF790FF00BF03B05DF804FB63
:1066F000A8350020A435002084B001901B4B002257
:10670000DA60019B1B79002B02D0012B19D028E005
:10671000019B5A69019B9B69D31AB3F5805F28BF1F
:106720004FF480530393019B9A69039B1A44019B86
:106730009A61019B9A69019B5B699A420ED1012380
:1067400010E0019B1B695A1C019B1A61019B1A698D
:10675000019B5B699A4203D1012303E000BF00E083
:1067600000BF0023184604B0704700BFA4350020C6
:1067700082B00190084BDB680133074AD360064BB7
:10678000DB68082B04D9044B0022DA60012300E007
:106790000023184602B07047A435002000B583B02E
:1067A000019000910C48FFF783FE0346002B0ED1A9
:1067B000019B0A4A5A6010F02FFF03461A46064B07
:1067C0001A7407481C238C220649FFF787FC002314
:1067D000184603B05DF804FBA4350020C0D00300C8
:1067E000943500200835002000B583B00190009159
:1067F00014220021054815F0B9FA054B1846FFF799
:10680000A0FC0023184603B05DF804FBA43500206B
:106810009435002000B587B0039002910192009357
:10682000174A04AB19461046FFF79FFC0590059BDD
:10683000002B01D104231FE01C220021059815F034
:1068400095FA059B00221A71059B039A1A60059B15
:10685000089A9A60059B029A1A61059B019ADA6070
:10686000059B009A5A61064A04AB19461046FFF789
:1068700093FCFFF725FF0023184607B05DF804FBE3
:106880009435002000B585B00390029101920093E9
:10689000029B009A1946019815F03FFA002318460A
:1068A00005B05DF804FB000000B587B003900291CD
:1068B00001920093184A04AB19461046FFF755FCA5
:1068C0000590059B002B01D1042320E01C22002110
:1068D000059815F04BFA059B01221A71059B039A46
:1068E0001A60059B009A9A604FF48052029BB3FB9A
:1068F000F2F2059BDA60059B019A5A61064A04ABE5
:1069000019461046FFF748FCFFF7DAFE0023184649
:1069100007B05DF804FB00BF9435002082B0019001
:106920000091009B184602B0704782B00190009120
:106930000023184602B0704782B00190044B1B7AC6
:10694000002B14BF01230023DBB2184602B07047AE
:10695000A435002000B585B001900091254B1B7A2D
:10696000012B33D0022B41D100238DF80F30019B36
:10697000022B03D0019B032B09D011E01E4B1B6897
:106980001846FFF7B9FE03468DF80F3008E01A4BA2
:106990001B681846FFF7ECFE03468DF80F3000BF6A
:1069A0009DF80F30002B13D0124B00221A72124B9D
:1069B0001A68019B022B01D1002300E00D23194628
:1069C0001046FFF781FDFFF7FBFD01E000BF00E08F
:1069D00000BF084B5B7C83F00103DBB2002B02D0CD
:1069E000FFF712FE03E010F0FBFD00E000BF05B072
:1069F0005DF804FBA4350020B835002082B00346C2
:106A000000918DF80730064B01225A74044B1B7A13
:106A1000002B0CBF01230023DBB2184602B07047E5
:106A2000A435002000B583B0034600918DF80730EF
:106A30009DF80730012B03D09DF80730032B0DD1B3
:106A4000084B00225A749DF80730012B0CBF01231C
:106A50000023DAB2034B1A74FFF7D6FD00BF03B070
:106A60005DF804FBA435002000B583B001900091CF
:106A7000019B002B03D11049502004F009FF009B1B
:106A8000002B03D10C49512004F002FF019B009A16
:106A90001A60019B1B681A68019B5A60019B5A6827
:106AA000019B1B685B689A4202D1019B00225A60DD
:106AB00000BF03B05DF804FBECD0030000B583B069
:106AC0000190019B002B03D11449632004F0E0FEE8
:106AD000019B1B68002B03D11049642004F0D8FEF1
:106AE000019B5B68002B14D0019B5B681A46019BDD
:106AF0001B689B6813441A46019B5A60019B5A68A5
:106B0000019B1B685B689A4204D1019B00225A607A
:106B100000E000BF03B05DF804FB00BFECD0030051
:106B200082B001900B46ADF80230019B1A68BDF8A7
:106B30000230012101FA03F31A43019B1A6000BFDE
:106B400002B0704782B001900B46ADF80230019B55
:106B50001A68BDF80230012101FA03F3DB431A4041
:106B6000019B1A6000BF02B0704782B001900B46D3
:106B7000ADF80230BDF80230012202FA03F31A46E2
:106B8000019B1340002B14BF01230023DBB21846E6
:106B900002B0704700B585B001900023ADF80E300B
:106BA00010E0BDF80E3019460198FFF7DEFF0346EE
:106BB000002B02D0BDF80E300AE0BDF80E300133D4
:106BC000ADF80E30BDF80E301F2BEAD94FF6FF732B
:106BD000184605B05DF804FB00B587B00590049138
:106BE00011461A460B46ADF80E3013468DF80D309F
:106BF000BDF80E209DF80D30009313460122049934
:106C0000059800F004F800BF07B05DF804FB00B57C
:106C100087B0039002910192ADF80230039B002BE4
:106C20003BD0029B002B38D0019B002B35D000239A
:106C300005932FE0059B5B00039A13441B88BDF866
:106C400002209A4223D1002304931BE09DF82030B8
:106C5000002B0AD0049B9B00029A1344059A92B21F
:106C600011461846FFF75CFF09E0049B9B00029A5F
:106C70001344059A92B211461846FFF763FF049B2E
:106C800001330493049A019B9A42DFD305E0059BEC
:106C900001330593059B1F2BCCD907B05DF804FB8E
:106CA00000B587B0039002911346ADF80630039B00
:106CB000002B19D00023059313E0059B5B00039A7A
:106CC00013441B88BDF806209A4207D1059B9BB24E
:106CD00019460298FFF749FF034606E0059B01337A
:106CE0000593059B1F2BE8D90023184607B05DF8D4
:106CF00004FB00B597B00390029101920023049326
:106D0000029B002B1ED00023159318E0159B9BB20D
:106D100019460198FFF729FF0346002B0CD0159B5D
:106D20005B00029A1A44049B591C049112885B0070
:106D300016A90B4423F8442C159B01331593159B7E
:106D40001F2BE3D9039B184604AB4422194614F0C9
:106D5000E4FF039817B05DF804FB00B585B001901F
:106D600000230393002302930EE0029B9BB219467B
:106D70000198FFF7FAFE0346002B02D0039B013374
:106D80000393029B01330293029B1F2BEDD9039BBC
:106D9000184605B05DF804FB84B00190019B9B6828
:106DA0000393019BDA68039BD31A184604B070471B
:106DB00000B587B001900091019B1B78012B04D096
:106DC000022B38D0002B47D05CE0019B5B681B781E
:106DD00019462E4800F047FB0590059B002B0AD072
:106DE00001238DF80C30059B0493294B1B6803AAE3
:106DF000104698470DE02548FFF7CEFF0346002BCD
:106E000007D000238DF80C30214B1B6803AA1046D5
:106E100098471E48FFF7C0FF02461C4B9B889A42CA
:106E200005D801221B491C4802F0E4FC2AE01B4B58
:106E300001221A7026E002238DF80C30019BDB68DA
:106E4000049301221349144802F0D4FC104B1B6830
:106E500003AA1046984715E01149124800F01EFB9E
:106E60000346002B05D101220D490B4802F0B8FA68
:106E700007E003238DF80C30054B1B6803AA10466E
:106E8000984700BF00BF07B05DF804FBCC35002079
:106E9000C0350020C8350020642C0020C9350020F2
:106EA000C4350020DC35002030B58FB0039002914E
:106EB00001928DF803303E4A019B1360029B002B28
:106EC00001D1072371E0029B1968029B5B689BB2AA
:106ED0001A46384800F09BFA0D900D9B002B01D00C
:106EE0000D9B62E0029B9968029BDB689BB21A468D
:106EF000314800F08CFA0D900D9B002B01D00D9BBA
:106F000053E02E4B05AC1D460FCD0FC495E80F0086
:106F100084E80F00039B5B690B93039B1B7C002B96
:106F200014BF01230023DBB28DF828309DF8033015
:106F30008DF83030039B5B7C002B01D00E2300E0EA
:106F400000238DF82930039BDB680793039B9B6824
:106F50000893039B1B680693039B5B68059305AB33
:106F6000174A1946174802F0F5F80D900D9B002BB3
:106F700001D00D9B19E0144B00221A70039B1B6873
:106F8000B3F1FF3F10D09DF8313083F00103DBB245
:106F9000002B02D00B4802F0F1FC01220B490948FA
:106FA00002F028FC034600E0002318460FB030BD75
:106FB000C0350020CC350020DC35002060D1030036
:106FC000B16D0200642C0020C9350020C8350020B6
:106FD00000B587B00190019B002B03D11449C92053
:106FE00004F056FC134B1B788DF8173001991248AA
:106FF00000F054FA04909DF81730002B12D00D4B7E
:1070000000221A7001220D490D4802F0F3FB039093
:10701000039B0293029B002B04D0054AD5210298C2
:10702000FCF76AF9049B184607B05DF804FB00BF43
:1070300080D10300C9350020CC350020C8350020A0
:10704000642C002000B585B003468DF807309DF80C
:1070500007301946104800F006FA0390039B002BF6
:1070600015D10E4802F028FA034683F00103DBB283
:10707000002B0CD00A49084800F010FA0346002BF8
:1070800005D101220649054802F0AAF90390039BA5
:10709000184605B05DF804FBDC350020642C0020A8
:1070A000C435002000B583B001900091019BDBB294
:1070B0001846FFF7C7FF019B184603B05DF804FBB5
:1070C00000B589B0019000238DF81F3051E02E4BA0
:1070D0001A689DF81F30DB0013440693069B1B784B
:1070E0001A46012393400593284B1A68059B1340C9
:1070F000002B39D0059BDA43244B1B681340234AED
:107100001360069B1B78184601F00EFB03468DF8B2
:107110001330069B1B781A46012393401A461C4BDA
:107120001B6813409DF81320069909788A40934202
:107130001AD19DF81330069A5278012A0CBF012209
:107140000022D2B293420CBF01230023DBB203938F
:10715000069B5B68002B07D0069B5B68069A12783B
:107160000399C9B2104698479DF81F3001338DF836
:107170001F30084B1B789DF81F209A42A7D300BFF1
:1071800009B05DF804FB00BFEC3500201C36002080
:1071900018360020F035002000B585B001900B4670
:1071A0008DF803300122019B02FA03F303931E4B77
:1071B0001846FCF733FF0290029B002B30D11B4B8B
:1071C0001A68039B1340002B22D1019801F0ACFAFE
:1071D0000346002B06D0164B1A68039B1343144A30
:1071E000136006E0039BDA43114B1B681340104AFF
:1071F00013600E4B1A68039B13430C4A13600A4832
:107200000C4B1B6800221946FCF7D6FE029008E0E2
:10721000039BDA43054B1B681340044A136000E0EC
:1072200000BF05B05DF804FBF83500201C360020D7
:1072300018360020F435002000B589B003900B46C5
:1072400001928DF80B30019B042B01D8072351E0EC
:1072500001F072F9034683F00103DBB2002B07D083
:1072600001F022F90790079B002B01D0079B41E01A
:10727000224A039B1360224A9DF80B301370214A67
:10728000019B1360204B00221A60204B00221A60E1
:1072900023E09DF80B30DB00039A1344069303238D
:1072A0008DF8143000238DF8153000238DF816303A
:1072B00000238DF81730069B9B788DF81530069BC0
:1072C0001B78184605AB124A194601F041F90790A0
:1072D000079B002B01D0079B0CE09DF80B305A1E3A
:1072E0008DF80B20002BD4D10A4A00210A48FCF764
:1072F00033FE0346184609B05DF804FBEC35002068
:10730000F0350020F4350020183600201C3600200F
:1073100099710200C1700200DCD1030000B583B096
:10732000114B1B68002B03D11049B62004F0B0FAB2
:10733000002301930CE00C4B1A68019BDB00134403
:107340001B780121184601F067F9019B0133019375
:10735000074B1B781A46019B9342ECD30023184637
:1073600003B05DF804FB00BFEC350020E0D1030062
:10737000F035002084B00190019B9B680393019B32
:10738000DA68039BD31A184604B0704782B00190A4
:107390000B468DF80330019B1A68019BDB6801994D
:1073A00089880B4013449DF803201A70019BDB6809
:1073B0005A1C019BDA6000BF02B0704784B0039092
:1073C0000B460192ADF80A30039B1A68039B99683B
:1073D000BDF80A300B44039989880B4013441A788E
:1073E000019B1A7000BF04B0704700B583B00190D4
:1073F0000091009A00210198FFF7E0FF019B9B6834
:107400005A1C019B9A6000BF03B05DF804FB84B076
:10741000039002911346ADF80630029B002B01D178
:107420000E231DE0BDF80630002B07D0BDF8063056
:107430005A1EBDF806301340002B01D009230FE07F
:10744000039B029A1A60BDF80630013B9AB2039B77
:107450009A80039B00229A60039B0022DA6000233B
:10746000184604B0704700B583B001900B468DF804
:1074700003300198FFF77EFF0246019B9B889A42EA
:1074800007D89DF8033019460198FFF77FFF0023C6
:1074900000E00423184603B05DF804FB00B583B098
:1074A000019000910198FFF765FF0346002B05D07E
:1074B00000990198FFF799FF002300E00523184683
:1074C00003B05DF804FB000000B583B00190019BA0
:1074D0001B681F2B04D905494FF4E87004F0D8F954
:1074E0004FF0A043184603B05DF804FB3CD2030004
:1074F00000B585B00190084611461A4603468DF83E
:1075000003300B468DF8023013468DF8013001AB85
:107510001846FFF7D9FF03909DF803209DF802302D
:107520005B001A439DF801309B001A439DF8183008
:107530001B0242EA03019DF81C301B04019A194307
:10754000039B02F5E07243F8221000BF05B05DF81E
:1075500004FB00B585B00390002301930023009342
:107560000023012201210398FFF7C2FF00BF05B0ED
:107570005DF804FB00B585B0019001AB1846FFF73C
:10758000A3FF0390019B012202FA03F3194603981B
:1075900000F086F800BF05B05DF804FB00B585B0CB
:1075A000019001AB1846FFF78FFF0390019B01226A
:1075B00002FA03F31946039800F07CF800BF05B007
:1075C0005DF804FB00B585B0019001AB1846FFF7EC
:1075D0007BFF0390039BD3F804350293029BDA43AD
:1075E000019B012101FA03F31A40039BC3F808250C
:1075F000019B01229A40029B1A40039BC3F80C2571
:1076000000BF05B05DF804FB00B583B001900091A8
:10761000009B002B03D10198FFF7C0FF02E0019807
:10762000FFF7A8FF00BF03B05DF804FB00B585B00D
:10763000019001AB1846FFF747FF0390039800F055
:107640001FF80246019B22FA03F303F001031846D8
:1076500005B05DF804FB00B585B0019001AB18469C
:10766000FFF732FF0390039800F012F80246019BE7
:1076700022FA03F303F00103184605B05DF804FB9A
:1076800082B00190019BD3F81035184602B07047C4
:1076900082B00190019BD3F80435184602B07047C0
:1076A00082B001900091019B009AC3F8082500BFA9
:1076B00002B0704782B001900091019B009AC3F81C
:1076C0000C2500BF02B0704700B585B00190019B4A
:1076D000032B03D91149372004F0DAF8104A019B33
:1076E00013441B781846FFF7B6FF0346002B14BF60
:1076F000012300238DF80F309DF80F30002B14BFAD
:1077000001230023DBB283F00103DBB203F00103AA
:10771000DBB2184605B05DF804FB00BF78D2030069
:10772000C8D2030000B583B00190019B032B03D99D
:1077300007493E2004F0ACF8064A019B13441B782D
:1077400000211846FFF760FF00BF03B05DF804FB9F
:1077500078D20300C8D2030000B583B00190019B2A
:10776000032B03D90749442004F092F8064A019BF1
:1077700013441B7801211846FFF746FF00BF03B0F2
:107780005DF804FB78D20300C8D2030000B583B0D3
:107790000023019305E00198FFF7DEFF019B013311
:1077A0000193019B032BF6D900BF03B05DF804FBE6
:1077B00000B583B00023019305E00198FFF7B2FF05
:1077C000019B01330193019B032BF6D900BF03B04A
:1077D0005DF804FB00B583B00190019B032B03D936
:1077E00007495C2004F054F8064A019B13441B78B7
:1077F0001846FFF7E7FE00BF03B05DF804FB00BFCB
:1078000078D20300C8D2030000B583B000230193EF
:1078100009E0094A019B13441B781846FFF799FEBB
:10782000019B01330193019B032BF2D9FFF7AEFFBC
:1078300000BF03B05DF804FBC8D2030000B585B0FB
:107840000190019B032B03D91149832004F020F8F8
:10785000104A019B13441B781846FFF7E7FE0346C6
:10786000002B14BF012300238DF80F309DF80F303B
:10787000002B14BF01230023DBB283F00103DBB232
:1078800003F00103DBB2184605B05DF804FB00BF4E
:1078900078D20300CCD2030084B001904FF0FF33C4
:1078A0000293002303930DE00A4A039B13441B78C1
:1078B0001A46019B934202D1039B029305E0039B6E
:1078C00001330393039B032BEED9029B184604B0AC
:1078D000704700BFCCD2030082B003468DF807305A
:1078E0009DF8073003F01F0206499DF907305B0938
:1078F000012000FA02F2203341F8232000BF02B039
:10790000704700BF00E100E082B001904FF080427C
:10791000019BC2F8043300BF02B0704782B00190EF
:107920004FF08042019BC2F8083300BF02B070479D
:1079300082B003468DF807309DF8073003F180438D
:1079400001221A6000BF02B0704784B00346ADF850
:107950000630BDF8063003F1804300221A60BDF8FE
:10796000063003F180431B680393039B00BF04B000
:10797000704782B00346ADF80630BDF8063003F11B
:1079800080431B68002B14BF01230023DBB2184681
:1079900002B0704782B003468DF807309DF807307B
:1079A0004FF0804203F00303C2F8183500BF02B065
:1079B00070474FF08043D3F818341B0C03F00103D9
:1079C000002B14BF01230023DBB2184670470000D0
:1079D00082B003468DF807300A4A9DF907305B09EB
:1079E00052F823209DF8073003F01F03012101FA0C
:1079F00003F31340002B14BF01230023DBB218460E
:107A000002B0704700E100E008B50020FFF7E0FF9A
:107A1000034683F00103DBB2002B03D007210020D3
:107A200000F01CFA00BF08BD08B54FF48270FFF7E4
:107A30008CFF0220FFF768FF0820FFF779FF00BFE7
:107A400008BD000008B50FF0E7FD034683F0010311
:107A5000DBB2002B03D10949842003F019FF0C206D
:107A6000FFF766FF00BFFFF7A4FF0346002BFAD124
:107A7000034B00229A7000BF08BD00BFD0D20300A4
:107A80002036002000B583B000230193134B1B78F0
:107A9000002B02D0852301931BE0104B00229A603B
:107AA0000E4B00225A600D4B00221A610B4B002234
:107AB000DA60FFF7A9FF0FF0AFFD034683F0010383
:107AC000DBB2002B02D00120FFF764FF034B012241
:107AD0001A70019B184603B05DF804FB20360020A5
:107AE00084B001900091019B1B68039306E0039A08
:107AF000009B9A420DD0039B1B680393039B002BB2
:107B0000F5D1019B1A68009B1A60019B009A1A60CC
:107B100000E000BF04B0704784B00190019B1B6877
:107B20000393039B002B03D0039B1A68019B1A60ED
:107B3000039B184604B0704700B585B00190294BEF
:107B40001B78002B03D12849FB2003F0A1FE254B15
:107B50009B78DBB2002B19D0019B002B03D0019B3B
:107B60005B680120984700238DF80F300DF10F035B
:107B70001846FCF7E7FA1B4BDB680133194AD36060
:107B80009DF80F301846FCF7F3FA1EE000238DF83D
:107B90000E300DF10E031846FCF7D4FA019B002BB2
:107BA00003D001991148FFF79BFF0E4BDB68002BB8
:107BB00001D1FFF739FF0B4BDB680133094AD36072
:107BC0009DF80E301846FCF7D3FA064BDB68002B05
:107BD00004D1054940F2171003F05AFE00BF05B06A
:107BE0005DF804FB20360020D0D2030030360020A0
:107BF00000B583B0164B1B78002B04D115494FF408
:107C00008E7003F045FE124BDB68002B04D1114946
:107C100040F21D1003F03CFE00238DF807300DF1FB
:107C200007031846FCF78EFA094BDB68013B084A4C
:107C3000D360074BDB68002B01D1FFF703FF9DF8F2
:107C400007301846FCF794FA00BF03B05DF804FB58
:107C500020360020D0D2030000B585B003468DF851
:107C600007309DF80730002B02D10C4B039301E045
:107C70000B4B03930398FFF74FFF0290029B002BDF
:107C800006D0029B5B689DF8072010469847F1E7F5
:107C900000BF00BF05B05DF804FB00BF2836002020
:107CA0003036002008B54FF48070FFF762FE0346BF
:107CB000002B0CD04FF48070FFF747FE0120FFF738
:107CC0002DFE0E4B01225A700020FFF7C5FF4FF426
:107CD0008270FFF74EFE0346002B0CD04FF48270EB
:107CE000FFF733FE0220FFF719FE044B01229A70C2
:107CF0000120FFF7B1FF00BF08BD00BF2036002004
:107D000000B583B001900091019B002B02D10020AF
:107D1000FFF7A2FF00BF03B05DF804FB00B585B01C
:107D2000034600918DF807309DF80730012B07D0EE
:107D3000032B24D0002B32D10020FFF7CDFD2FE004
:107D400000238DF80F300DF10F031846FCF7FAF9F8
:107D5000154B1B7883F00103DBB2002B01D0FFF73A
:107D600091FE114BDB6801330F4AD3600E4B0122A9
:107D70009A709DF80F301846FCF7FAF910E00A4B9C
:107D80001B78002B04D1094940F25B2003F080FDF1
:107D90000721002000F062F8FFF72AFF00E000BF93
:107DA00000BF05B05DF804FB20360020D0D20300F0
:107DB00082B003468DF807309DF8073003F01F02AC
:107DC00005499DF907305B09012000FA02F241F8EC
:107DD000232000BF02B0704700E100E082B00346FC
:107DE0008DF807309DF8073003F01F0206499DF912
:107DF00007305B09012000FA02F2603341F82320CA
:107E000000BF02B0704700BF00E100E082B003464F
:107E100000918DF807309DF90730002B0CDA009B9C
:107E2000DAB20C499DF8073003F00F03043B52010E
:107E3000D2B20B441A7609E0009BDAB206499DF9EA
:107E400007305201D2B20B4483F8002300BF02B0C6
:107E5000704700BF00ED00E000E100E000B583B036
:107E600003460A468DF8073013468DF806309DF814
:107E70000630012B03D99DF80630032B0CD99DF851
:107E80000630042B03D99DF80630072B04D90D4981
:107E90004FF4927003F0FCFC9DF806209DF907302A
:107EA00011461846FFF7B2FF9DF907301846FFF755
:107EB00095FF9DF907301846FFF77AFF00BF03B022
:107EC0005DF804FB30D3030000B583B00346ADF882
:107ED0000630BDF80630184600F026F803461B6849
:107EE000012B0CBF01230023DBB2184603B05DF861
:107EF00004FB00B585B00346ADF80630BDF806308A
:107F0000184600F011F803461A4600231360BDF826
:107F10000630184600F008F803461B680393039BDD
:107F200000BF05B05DF804FB82B00346ADF8063033
:107F3000BDF8063003F1804303F5C043184602B094
:107F40007047000082B00190034A019BC2F80433DD
:107F500000BF02B0704700BF0060004082B00190D7
:107F6000034BD3F80423019B1340184602B070471B
:107F70000060004082B00190084A019B03F5A273A3
:107F800052F82330054943F00102019B03F5A27327
:107F900041F8232000BF02B0704700BF00600040DE
:107FA00084B00390029113468DF80730144A039B66
:107FB00003F5A27352F82330114923F4473323F415
:107FC0004073039A02F5A27241F822300C4A039BD7
:107FD00003F5A27352F82320029B1B0203F4F8510D
:107FE0009DF807301B0403F440330B4304491A4344
:107FF000039B03F5A27341F8232000BF04B0704730
:108000000060004082B00190054A019B03F5A27315
:1080100052F823301B0A03F01F03184602B07047C2
:108020000060004082B00190064A019B03F5A273F4
:1080300052F823301B0C03F00303DBB2184602B0E6
:10804000704700BF0060004000B583B00190019B05
:108050001B681F2B04D905494FF4E87003F018FC86
:108060004FF0A043184603B05DF804FB94D303001F
:1080700000B585B00190084611461A4603468DF8B2
:1080800003300B468DF8023013468DF8013001ABFA
:108090001846FFF7D9FF03909DF803209DF80230A2
:1080A0005B001A439DF801309B001A439DF818307D
:1080B0001B0242EA03019DF81C301B04019A19437C
:1080C000039B02F5E07243F8221000BF05B05DF893
:1080D00004FB00B585B003900B468DF80B309DF87E
:1080E0000B2000230193002300931346002200215C
:1080F0000398FFF7BDFF00BF05B05DF804FB00B5B6
:1081000085B0019001AB1846FFF79EFF0390019ADE
:10811000039B02F5E07253F8223023F0020302932E
:10812000019A039B02F5E072029943F8221000BF06
:1081300005B05DF804FB00B585B001900B468DF8E5
:10814000033001AB1846FFF77FFF0390019A039BB2
:1081500002F5E07253F82230019A23F44031039B78
:1081600002F5E07243F82210019A039B02F5E072D7
:1081700053F822309DF8032012041146019A194346
:10818000039B02F5E07243F8221000BF05B05DF8D2
:1081900004FB00B585B0019001AB1846FFF754FF12
:1081A0000390039800F020F80246019B22FA03F3A3
:1081B00003F00103184605B05DF804FB00B585B077
:1081C000019001AB1846FFF73FFF0390019A039B14
:1081D00002F5E07253F822301B0C03F00303DBB20C
:1081E000184605B05DF804FB82B00190019BD3F8FE
:1081F0001035184602B0704700B587B00390029161
:1082000001924FF0A0430493039A029B1344012B65
:1082100004D912494FF43A7003F03AFB039B0593DB
:1082200011E0059B9B0006AA134453F8083C18462E
:10823000FFF7DAFF0246019B1A60019B04330193AA
:10824000059B01330593039A029B1344059A9A42B6
:10825000E7D300BF07B05DF804FB00BF94D3030071
:1082600084B001900091009B0393019BDB08029373
:10827000019B03F0070301930122019B02FA03F320
:108280000399029A0A4412781340184604B07047C2
:1082900084B001900091009B0393019BDB08029343
:1082A000019B03F007030193039A029B13441B787D
:1082B0005AB20121019B01FA03F35BB2134359B295
:1082C000039A029B1344CAB21A7000BF04B07047ED
:1082D00082B001900C4A019B1344303393F9003073
:1082E000002B09DB084A019B1344303393F900301B
:1082F000072B01DC012300E0002303F00103DBB2C4
:10830000184602B0704700BF3436002082B001909A
:10831000064A019B1344303393F90030072BCCBF3E
:1083200001230023DBB2184602B070473436002028
:1083300082B00190064A019B1344303393F9003018
:10834000DB43DBB2DB09DBB2184602B0704700BF8B
:108350003436002084B00390029101928DF80330EE
:10836000029B59B20E4A039B134430330A461A70DB
:108370000B49029B019A41F823209DF8033083F0BA
:108380000103DBB2002B08D0029B083B039A51B2D9
:10839000034A13440A4683F8502000BF04B07047D4
:1083A0003436002082B00190044A019B13443033DC
:1083B000FF221A7000BF02B0704700BF34360020A1
:1083C00082B00190044A019B1344303393F900308A
:1083D000184602B0704700BF3436002082B00190CA
:1083E000034A019B52F82330184602B0704700BF81
:1083F0003436002000B589B00390029113468DF801
:108400000730FF238DF81F309DF80730002B01D077
:10841000002300E0082305939DF80730002B01D0CE
:10842000082300E00C230493059B069314E00F4AF5
:10843000069B52F82330B3F1FF3F0AD19DF8073075
:10844000029A06990398FFF785FF069B8DF81F3067
:1084500006E0069B01330693069A049B9A42E6D3F4
:108460009DF91F30184609B05DF804FB3436002032
:1084700082B003468DF807309DF80730094A4FF067
:10848000FF3142F823109DF80730072B07D99DF8DC
:108490000730083B034A1344FF2283F8502000BFF3
:1084A00002B070473436002000B583B0214B93F8FA
:1084B0005430002B03D008230093009B36E00023A8
:1084C0008DF8073009E09DF807301846FFF76AFF7E
:1084D0009DF8073001338DF807309DF807301F2BCA
:1084E000F1D900238DF8073009E09DF807301846D0
:1084F000FFF7BEFF9DF8073001338DF807309DF878
:1085000007300B2BF1D907210620FFF7A7FC4FF40A
:10851000BE70FFF7EEFC4FF00040FFF713FD054B78
:10852000012283F8542000230093009B184603B0D7
:108530005DF804FB34360020044B93F85430002BD4
:1085400014BF01230023DBB21846704734360020E5
:1085500000B587B0039002910192039B1F2B04D9B1
:108560002B4940F2F71003F093F900230593039889
:10857000FFF7DEFE0346002B02D00823059341E0FF
:10858000029BDB781A4601990398FFF733FF0346F5
:108590008DF813309DF91330B3F1FF3F30D0029BBB
:1085A0009B78002B03D00398FFF7A9FD05E0029B01
:1085B0005B7819460398FFF78CFD029BDB78002B54
:1085C00008D09DF91300029B1B781A460399FFF708
:1085D000E7FC17E09DF91330083B0E4A134493F96A
:1085E0005010029B1B789B015AB29DF91330083B37
:1085F0000A4351B2074A13440A4683F8502001E067
:1086000004230593059B184607B05DF804FB00BFE3
:10861000D0D303003436002000B587B001900B465C
:108620008DF80330019B1F2B04D93D4940F22520D2
:1086300003F02EF90198FFF77BFE0346002B04D1CF
:10864000374940F2262003F023F90198FFF75EFE38
:108650000346002B2FD00198FFF7B2FE0346083BDC
:10866000304A134493F950308DF816309DF8163087
:108670009B098DF815309DF81530032B0BD101980F
:10868000FFF787FD0346002B01D0032300E0022300
:108690008DF8173008E09DF81530012B01D1022329
:1086A00000E003238DF817309DF817301946019824
:1086B000FFF741FD30E00198FFF70AFE0346002B6B
:1086C0002AD00198FFF77CFE03460493049B9BB2DB
:1086D00040339BB29B00ADF80E30049B1846FFF769
:1086E00049FCBDF80E301846FFF703FC9DF8033037
:1086F000002B11D00198FFF763FE03461846FFF7E1
:108700006DFE0290029B002B06D00122049B02FA10
:1087100003F31846FFF716FC00BF07B05DF804FB33
:10872000D0D303003436002000B583B00190019B04
:108730001F2B04D9084940F2722003F0A9F80198D0
:10874000FFF727FD0346002B14BF01230023DBB2F4
:10875000184603B05DF804FBD0D3030000B595B014
:1087600000231393002303934FF48073ADF8463036
:10877000012310930023129321E0BDF846301846E0
:10878000FFF7A2FB0346002B0ED01098FFF7E6FB85
:108790000346002B08D0BDF846301846FFF7A9FB6A
:1087A000139A109B13431393109B5B001093BDF817
:1087B00046300433ADF84630129B01331293129BBE
:1087C000072BDAD94FF4BE70FFF77EFB0346002B70
:1087D0000DD04FF4BE70FFF78CFB139B43F00043AA
:1087E000139303AB1A4601210020FFF705FD139BED
:1087F000DBB2002B29D0012310930023129321E038
:10880000109A139B1340002B16D01298FFF7FAFB17
:108810000D901298FFF706FC03468DF8333012983E
:10882000FFF7DCFD0B900B9B002B05D09DF8332050
:108830000B9B11460D989847109B5B001093129B61
:1088400001331293129B072BDAD9139B002B80F272
:10885000EE8000238DF83B300023029300230F931A
:108860000AE00F9B9B0014AA13444FF0FF3243F819
:108870004C2C0F9B01330F930F9B002BF1D0002347
:108880008DF83B300023129378E06B4A129B13441F
:10889000503393F900308DF82B309DF82B3023F0B6
:1088A000C0030993644A129B1344503393F9003078
:1088B000B3F1FF3F5FD001AB19460998FFF7D0FC39
:1088C0000346002B57D09DF82B309B098DF82330A1
:1088D0000998FFF775FD03461846FFF77FFD0790DF
:1088E000079B002B03D19DF82330032B43D19DF828
:1088F0002330032B04D102AB19460998FFF7C8FCBB
:108900000998FFF75BFC03468DF81B3003AB194653
:108910000998FFF7A5FC0590059B002B03D09DF857
:108920001B30022B06D0059B002B24D19DF81B3059
:10893000032B20D19DF82330032B13D19DF81B303E
:10894000022B01D1032300E002238DF813309DF8A0
:10895000133019460998FFF7EEFB9DF83B300133C1
:108960008DF83B30079B002B05D09DF82320079BFB
:10897000114609989847129B01331293129B032BBF
:1089800083D99DF83B30002B4CD001238DF83A3031
:108990006B461A4601210020FFF72EFC00230F939F
:1089A00014E00F9B9B0014AA134453F8502C0F9B08
:1089B0009B0014A90B4453F8443C9A4203D0002373
:1089C0008DF83A3005E00F9B01330F930F9B002B7E
:1089D000E7D09DF83A30002B03D000238DF83B30D0
:1089E00020E000230F931AE00F9B9B0014AA13446E
:1089F00053F8502C0F9B9B0014A90B4443F8442CB4
:108A00000F9B9B0014AA134453F8482C0F9B9B0008
:108A100014A90B4443F84C2C0F9B01330F930F9B6D
:108A2000002BE1D09DF83B30002B7FF428AF00BF36
:108A300015B05DF804FB00BF3436002084B001900F
:108A40000B46ADF80230BDF80230019A1344002203
:108A50001A60BDF80230019A13441B680393039B0C
:108A600000BF04B0704782B001900B46ADF80230F1
:108A7000BDF80230019A13441B68002B14BF012378
:108A80000023DBB2184602B0704782B0019000911B
:108A9000019B009AC3F8042300BF02B0704782B064
:108AA00001900091019BD3F80423009B1340002BFD
:108AB00014BF01230023DBB2184602B0704782B016
:108AC00001900091019B009AC3F8082300BF02B0F7
