:020000022000DC
:1030000000000120393202009132020093320200A6
:10301000953202009732020099320200000000004F
:103020000000000000000000000000009B320200D1
:103030009D320200000000009F320200A132020017
:10304000556C0200A7320200658C0200AB32020010
:10305000AD320200AF320200CD770200B33202007F
:10306000B5320200B7320200B9320200BB320200B0
:10307000BD320200BF320200C1320200C332020080
:10308000C5320200B1530200C9320200CB32020045
:10309000F1530200CF320200F1BC0200D332020031
:1030A000D5320200D7320200D9320200DB320200F0
:1030B000DD320200DF320200A3320200A33202003E
:1030C000E1320200E3320200E5320200E7320200A0
:0C30D000E9320200EB320200ED32020097
:1030DC00354936480A1A02D0072291438D463449A5
:1030EC0034480A1A06D00722914381F30988022238
:1030FC0082F3148830483149314A00F044F83148A1
:10310C003149324A00F03FF831483249324A00F036
:10311C003AF832483249334A00F035F832483349EC
:10312C00334A00F030F833483349344A00F02BF876
:10313C0033483449344A00F026F8344834490022E4
:10314C0000F02CF833483449002200F027F83348BB
:10315C003349091A082902DB002202604160314A16
:10316C0090471F481F49884205D00268043003B4B9
:10317C00904703BCF7E700208646EC460020002170
:10318C00294A9047FEE7884207D0521A05D00378A7
:10319C0001300B700131013AF9D17047884202D0ED
:1031AC0002700130FAE770470000012000F800209F
:1031BC000000012000000120E0DA0200F8210020CC
:1031CC0068220020F0320200F0320200BEC202007F
:1031DC00E0DA0200F8210020F8210020D0C3020020
:1031EC00D0C30200D0C30200D0C30200D0C302007F
:1031FC00D0C30200D0C30200D0C30200E0DA020048
:10320C0050DB020068220020682200206822002087
:10321C00E72A0020E82A0020E82A0020E82A0020DB
:10322C00E82C00205D320200BD9502000F484FF0E3
:10323C000701884385460E4880470E48016841F4D3
:10324C0070010160BFF34F8FBFF36F8FFFF740BF6B
:10325C0009480A490A4A884207D0521A05D003780D
:10326C0001300B700131013AF9D170470000012097
:10327C002DAF020088ED00E058C302008021002031
:10328C00F8210020FEE7FEE7FEE7FEE7FEE7FEE79B
:10329C00FEE7FEE7FEE7FEE7FEE7FEE7FEE7FEE7FA
:1032AC00FEE7FEE7FEE7FEE7FEE7FEE7FEE7FEE7EA
:1032BC00FEE7FEE7FEE7FEE7FEE7FEE7FEE7FEE7DA
:1032CC00FEE7FEE7FEE7FEE7FEE7FEE7FEE7FEE7CA
:1032DC00FEE7FEE7FEE7FEE7FEE7FEE7FEE7FEE7BA
:0432EC00FEE700BF3A
:1032F00000B5A1B00590049103920293049802F0E6
:10330000EAFF039B1593029B169300231793002358
:103310008DF8603000231993229B1A9300231F938A
:103320000FA91F9B0822049803F090F808231F930D
:10333000119B1293109B9BB2ADF84C3000238DF87B
:1033400050309DF83C3003F00303DBB2012B32D147
:103350000F9BC3F395231D939DF83C30C3F3C20329
:10336000DBB28DF84E309DF83C30C3F38003DBB206
:10337000002B14BF01230023DBB28DF84F30BDF8C2
:103380003C30C3F38313DBB21C931C9B9A0009A946
:103390001F9B049803F05AF81C9B9B001F9A134430
:1033A0001F9312AA09A915AB009313461C9A1D98E6
:1033B00000F032FF3BE09DF83C3003F00303DBB24A
:1033C000022B34D1BDF83E30C3F389139BB21E9358
:1033D0009DF83C30C3F3C203DBB28DF84E309DF84C
:1033E0003C30C3F38003DBB2002B14BF0123002366
:1033F000DBB28DF84F301E9B082B28BF08231B9390
:1034000007A91F9B1B9A049803F020F81F9A1B9B87
:1034100013441F931E9A1B9BD31A1E9315AB12AA1B
:1034200007A81B9900F09AFF1E9B002BE3D104987C
:1034300002F060FF00BF21B05DF804FB82B0019094
:103440000091034B01221A7000BF02B0704700BF09
:10345000A822002030B58DB003468DF807301A4BF6
:1034600002AC1D460FCD0FC495E80F0084E80F0095
:10347000062302934FF0FF3303934FF0FF3304937F
:103480004FF0FF3305934FF0EB7308939DF807302F
:10349000002B01D00D4A00E0002202AB19460C4877
:1034A00004F0FAFF0B900B9B0A930A9B002B04D0AD
:1034B000084A43210A9801F04FF9074A9DF807305E
:1034C000137000BF0DB030BD4CC402003D3402008B
:1034D000F8210020D0C30200A922002000B583B04B
:1034E00001238DF807309DF807301846FFF7B2FF2B
:1034F00000BF03B05DF804FB00B589B003900291F2
:103500000192019B8DF81F30124B00221A709DF81A
:103510001F301A460299104805F026F90690069BBE
:103520000593059B002B04D00C4A5321059801F00C
:1035300013F900BF0A4B1B78002B07D0054B1B78F3
:10354000DBB283F00103DBB2002BF3D100BF09B083
:103550005DF804FBA8220020F8210020D0C302005F
:10356000A922002000B585B003900291054B00937D
:103570004023054A02990398FFF7BAFE00BF05B041
:103580005DF804FBF93402006822002082B001904B
:1035900000BF02B07047000000B583B0019005483D
:1035A00004F0CCFF0020FFF755FF00BF03B05DF82B
:1035B00004FB00BFF821002082B00190019B012292
:1035C0005A7200BF02B0704700B583B04FF0FF33AE
:1035D0000193FFF783FF0421084800F057FD019095
:1035E000019B002B03DA0649482005F077FB0348CE
:1035F000FFF7E2FF00BF03B05DF804FB00220020EC
:1036000078C4020000B583B001900091019B1B6853
:103610001B6800990198984700BF03B05DF804FB50
:1036200000B583B00190019B1B685B6801989847C7
:1036300000BF03B05DF804FB82B001900B468DF82B
:103640000330019B9DF803201A7200BF02B070473F
:1036500082B00190019B1B7A184602B0704782B07D
:103660000190019B01225A7200BF02B0704782B0E4
:103670000190019B5B7A184602B0704710B487B086
:1036800001900091019B009A53E8004F44EA020028
:1036900043E8000191F0000FF6D1059404900391E6
:1036A000049B184607B05DF8044B704710B487B010
:1036B00001900091019B009A53E8004F04EA020038
:1036C00043E8000191F0000FF6D1059404900391B6
:1036D000059B184607B05DF8044B704700B583B0F2
:1036E000019001210198FFF7C9FF0346184603B076
:1036F0005DF804FB00B583B0019000210198FFF74D
:10370000D5FF0346184603B05DF804FB00B587B04B
:1037100001901F4BFF229A601D4B00221A601C4B28
:1037200000225A601A4B0022C3F81824184B0022BA
:10373000C3F81424164B002283F81C24154802F009
:103740002FFD0490049B002B01D0049B1CE0124A27
:10375000124BD31ADB080393002305930FE0059A5D
:1037600013465B0013449B001A460D4B134402930F
:10377000059B9AB2029B1A80059B01330593059A1B
:10378000039B9A42EBD30023184607B05DF804FB75
:103790007C230020F8C4020040C30200F0C20200F3
:1037A00080210020024A034BD31ADB0818467047D9
:1037B00040C30200F0C2020000B587B001900B4682
:1037C0008DF803309DF80330002B23D0FFF7EAFF7C
:1037D00004900023059317E0059A13465B001344F9
:1037E0009B001A460E4B13440393039B5B881A46B7
:1037F000019B1B689A4204D1019B059A1A60002321
:1038000009E0059B01330593059A049B9A42E3D393
:10381000052300E00023184607B05DF804FB00BF55
:103820008021002000B585B001900B468DF8033053
:103830009DF8032001AB11461846FFF7BDFF034674
:10384000002B07D1019BDB00054A13440393039B24
:103850001B6800E00023184605B05DF804FB00BFBC
:10386000F0C2020084B001900B468DF80330019B3A
:10387000DB00174A134402939DF80330013B032BEE
:103880001CD801A252F823F099380200A138020096
:10389000A9380200B338020002238DF80F3011E07E
:1038A00004238DF80F300DE0029B1B798DF80F304B
:1038B00008E0029B5B798DF80F3003E000238DF860
:1038C0000F3000BF9DF80F30184604B0704700BF9E
:1038D000F0C2020000B589B04148FFF7FFFE414841
:1038E000FFF7FCFE404B5B6807933F4B9B680493DC
:1038F000079A049B134002339B003B4A1344043352
:1039000006931BE0079B01330793069B5B88C3F379
:1039100089139BB21A46069B1B88C3F389139BB27B
:1039200013441A46079B13440793079A049B1340BA
:1039300002339B002C4A134404330693069B1B78E6
:1039400003F00303DBB2002BDCD00023059311E06E
:10395000079B5A1C0792049A1340059A92006946E5
:103960000A44214902339B000B445B681360059BAA
:1039700001330593059B012BEAD99DF80030C3F371
:103980000103DBB2012B0CD0022B14D1BDF80230A5
:10399000C3F389139BB203339B08079A134407931D
:1039A0000FE0BDF80030C3F38313DBB21A46079B68
:1039B0001344079305E00D4940F24D1005F08EF9D0
:1039C00000BF0848FFF796FE0390039B002B02D030
:1039D000054A079B536000BF09B05DF804FB00BFB8
:1039E00094270020902700207C2300201CC5020083
:1039F00010B586B00390029101920093039B1B0CBB
:103A0000ADF81630BDF81640FFF7CCFE03469C42D9
:103A100004D323494FF4B27005F060F9009B5A1C9F
:103A2000089B1340BDF816201E4902339B000B442F
:103A30005A60009A089B134002339B00194A1344B2
:103A400004330493039B1B0903F00103D9B2049AC6
:103A5000137861F382031370039B03F00703D9B259
:103A6000049A137861F3C5031370019B03F00F03ED
:103A7000D9B2049A138861F389131380029BC3F3AC
:103A80001501049A136861F39F231360049A137855
:103A9000012161F30103137000BF06B010BD00BF28
:103AA0001CC502007C23002000B58BB00190009162
:103AB000019B023308930223079301238DF81B30E7
:103AC00000238DF80F300DF10F03184601F0C0FDF3
:103AD000214B1A68009B1A601F4B9A681E4B59684D
:103AE0001D4B1B68CB1A134401330993089A079B9B
:103AF000134405930BE0FFF7EDFE174B9A68164B46
:103B00005968154B1B68CB1A134401330993059A66
:103B1000099B9A42EFD8104B1A680F4B9B681340D1
:103B200002339B000C4A134404330493049A137821
:103B300043F003031370084B1A68089B1344064AAA
:103B400013609DF80F30184601F098FD9DF81B306A
:103B500018460BB05DF804FB7C23002000B58BB049
:103B600005900491039202931F4B9B68079306AB49
:103B700019460298FFF798FF0346002B24D0069BB6
:103B8000023309930023089311E0089B9B00039ADA
:103B90001A44099B591C099107990B401268124954
:103BA00002339B000B445A60089B01330893089A28
:103BB000029B9A42E9D3069A079B00931346029A06
:103BC00004990598FFF714FF074B93F81C34002B5A
:103BD00005D000BF00F064F80346002BFAD100BF07
:103BE0000BB05DF804FB00BF7C23002000B583B060
:103BF000019000910023002200990198FFF7AEFF89
:103C000000BF03B05DF804FB00B587B003900291DC
:103C10000192019B059305AA012302990398FFF7DE
:103C20009DFF00BF07B05DF804FB00B587B00390AF
:103C3000029101920093019B0493009B059304AAB7
:103C4000022302990398FFF789FF00BF07B05DF8D0
:103C500004FB00B589B00390029101920093019B8F
:103C60000493009B05930A9B06930B9B079304AA5E
:103C7000042302990398FFF771FF00BF09B05DF8B4
:103C800004FB0000054B5A68044B1B689A420CBFAA
:103C900001230023DBB21846704700BF7C230020BD
:103CA00000B599B0FFF7EEFF0346002B01D00023CB
:103CB000B2E1AB4B0022C3F81824BFF34F8FA84BDF
:103CC0005B681793A64B9B681093179A109B134041
:103CD00002339B00A24A1344043316930023159326
:103CE0000023149300230F931BE0179B01331793BA
:103CF000169B5B88C3F389139BB21A46169B1B88DD
:103D0000C3F389139BB213441A46179B13441793AA
:103D1000179A109B134002339B00914A13440433BB
:103D20001693169B1B7803F00303DBB2002BDCD049
:103D30000023139311E0179B5A1C1792109A1340FB
:103D4000139A920002A90A44854902339B000B444E
:103D50005B681360139B01331393139B012BEAD908
:103D60009DF8083003F00303DBB2022B40F09C8087
:103D7000BDF80A30C3F389139BB20E93BDF80A3025
:103D8000C3F389139BB2502B28BF50239BB20D93D2
:103D90000D9BC3F309039AB2BDF80A3062F38F1387
:103DA000ADF80A300D9B08330C939DF80830C3F32F
:103DB000C203DBB20F930C996A4802F0FCF915902C
:103DC000159B002B00F0E080159802F084FA02A900
:103DD000149B0822159802F027FB149B08331493B8
:103DE000179BDA43109B134001339B000B930D9AF2
:103DF0000B9B9A4242D90B9B002B08D0179A109B21
:103E0000134002339B00564A1344043300E0564BE0
:103E10000A930B9B002B02D00B9BDBB201E00D9BA6
:103E2000DBB28DF827300B9B002B01D04E4B00E00E
:103E3000002308930B9B002B06D00D9BDAB20B9B43
:103E4000DBB2D31ADBB200E000238DF81F309DF8FF
:103E50002720149B0A99159802F0E6FA9DF827305E
:103E6000149A13441493089B002B16D09DF81F201E
:103E7000149B0899159802F0D7FA0EE0179A109B38
:103E8000134002339B00364A134404330693149BB9
:103E90000D9A0699159802F0C7FA0E9B03339B08FA
:103EA000179A134417936FE09DF8083003F003034B
:103EB000DBB2012B5AD1BDF80830C3F38313DBB258
:103EC000062B28BF0623DAB2BDF8083062F3891347
:103ED000ADF80830BDF80830C3F38313DBB202330A
:103EE00005939DF80830C3F3C203DBB20F93059B23
:103EF0009B0019461B4802F05EF91590159B002B9C
:103F000042D0159802F0E7F902A9149B08221598EF
:103F100002F08AFA149B083314930023139314E0DD
:103F2000179B5A1C1792109A134002339B000C4A9D
:103F30001344191D149B0422159802F075FA149B62
:103F400004331493139B01331393BDF80830C3F368
:103F50008313DBB21A46139B9342E1D314E000BFF4
:103F60007C230020F8C40200882300209DF808303C
:103F700003F00303DBB2032B06D1294BD3F818342B
:103F8000002B01D1002347E0159B002B3ED0244B92
:103F9000D3F810341293224BD3F81834002B1AD0D4
:103FA000159802F0A7F931E000238DF847301298F8
:103FB000FFF75DFB0346002B02D001238DF847304D
:103FC0009DF84730002B03D015991298FFF71AFB84
:103FD000129B5B681293129B002BE5D1159802F09F
:103FE00089F900238DF807300DF10703184601F019
:103FF0002FFB0B4BD3F81834002B02D1084A179B28
:1040000053609DF80730184601F038FBFFF73AFE81
:10401000034683F00103DBB2184619B05DF804FBD8
:104020007C23002000B585B00023039322E0164BCB
:10403000D3F81034029301238DF807300EE0029874
:10404000FFF706FB03461A46039B934203D1002366
:104050008DF8073005E0029B5B680293029B002B02
:10406000EDD19DF80730002B01D0039B07E0039BA7
:1040700001330393039B092BD9DD4FF0FF3318461F
:1040800005B05DF804FB00BF7C23002000B585B0BF
:1040900001900B468DF80330FFF7C4FF0390039B9C
:1040A000B3F1FF3F01D1039B1EE0039BDBB2194636
:1040B0000198FFF7C1FA0E4BD3F81034002B07D14B
:1040C0000B4A019BC2F81034019B00225A600AE09F
:1040D000074BD3F810345A68019B5A60044BD3F84D
:1040E0001034019A5A60039B184605B05DF804FB32
:1040F0007C23002000B583B00C4BD3F8103401931F
:104100000A4B012283F81C2408E00198FFF7A7FA64
:104110000198FFF785FA019B5B680193019B002BD7
:10412000F3D100BF03B05DF804FB00BF7C23002087
:1041300010B582B001900091019BDB7983F00103FF
:10414000DBB2002B28D0019B1B7A002B12D0019BE5
:104150009B881A46019B9B7919461046FFF782FB04
:1041600003461A460E4B53F822301A460D49009862
:1041700001F0E8FB019B9B791A460B4B53F8224058
:10418000019B9B8800211846FFF74CFB0346224603
:104190000649009801F0D6FB00BF02B010BD00BF79
:1041A00020220020FCC502000C22002000C60200D4
:1041B00000B585B00390029113468DF80730039B3C
:1041C000DB7983F00103DBB2002B0FD0039B1B7A5A
:1041D000002B06D00D4B1B681A460D49029801F0C2
:1041E000B1FB0C49029801F0ADFB07E09DF80730E8
:1041F000002B03D00749029801F0A4FB029801F0BC
:104200007FFB00BF05B05DF804FB00BF202200204B
:10421000FCC502000CC6020030B58BB007900691B9
:10422000059204930E9B1B7B8DF827300E9B00227A
:104230001A730E990498FFF77BFF059B062B7FD816
:1042400001A252F823F000BF654202006F42020053
:104250007F42020093420200B1420200D9420200B2
:104260000943020007990E9801F06CFB69E0069B78
:104270001B681A4607990E9801F064FB61E0069BE3
:104280001A68069B04331B6807990E9801F05AFBC5
:1042900057E0069B1A68069B04331968069B08338F
:1042A0001B6800930B4607990E9801F04BFB48E002
:1042B000069B1968069B04331868069B08331B6825
:1042C000069A0C3212680192009303460A46079937
:1042D0000E9801F037FB34E0069B1868069B043308
:1042E0001C68069B08331B68069A0C3212680699F4
:1042F0001031096802910192009323460246079902
:104300000E9801F01FFB1CE0069B1C68069B043303
:104310001D68069B08331B68069A0C3212680699C2
:1043200010310968069814300068039002910192D8
:1043300000932B46224607990E9801F003FB00E0FC
:1043400000BF00220E990498FFF732FF0E9B9DF8E4
:1043500027201A7300BF0BB030BD00BF00B587B077
:104360000390029101920093029B082B5CD8009B62
:104370001B7B8DF81330009B00221A730099019863
:10438000FFF7D6FE0023059314E0059A029B9A429C
:1043900009D2039A059B13441B781A4624490098B6
:1043A00001F0D0FA03E02349009801F0CBFA059B15
:1043B00001330593059B072BE7D91F49009801F0AE
:1043C000C1FA0023059322E0059A029B9A4217D274
:1043D000039A059B13441B788DF812309DF8123018
:1043E000184607F0DBFE0346002B02D09DF8123082
:1043F00000E02E231A461149009801F0A3FA03E0C9
:104400000F49009801F09EFA059B01330593059B27
:10441000072BD9D9012200990198FFF7C9FE009B0B
:104420009DF813201A7300E000BF07B05DF804FB8D
:1044300010C6020018C602001CC6020020C60200F8
:1044400024C6020000B589B0019000238DF81F300A
:1044500051E02E4B1A689DF81F30DB001344069381
:10446000069B1B781A46012393400593284B1A6834
:10447000059B1340002B39D0059BDA43244B1B6866
:104480001340234A1360069B1B78184603F084F9F7
:1044900003468DF81330069B1B781A460123934080
:1044A0001A461C4B1B6813409DF813200699097887
:1044B0008A4093421AD19DF81330069A5278012A05
:1044C0000CBF01220022D2B293420CBF0123002371
:1044D000DBB20393069B5B68002B07D0069B5B68EF
:1044E000069A12780399C9B2104698479DF81F3072
:1044F00001338DF81F30084B1B789DF81F209A421E
:10450000A7D300BF09B05DF804FB00BF9C270020C3
:10451000CC270020C8270020A027002000B585B0A8
:1045200001900B468DF803300122019B02FA03F340
:1045300003931E4B184600F0F7FF0290029B002BDE
:1045400030D11B4B1A68039B1340002B22D10198DA
:1045500003F022F90346002B06D0164B1A68039B82
:104560001343144A136006E0039BDA43114B1B68A4
:104570001340104A13600E4B1A68039B13430C4AF6
:1045800013600A480C4B1B680022194600F09AFF82
:10459000029008E0039BDA43054B1B681340044A72
:1045A000136000E000BF05B05DF804FBA827002001
:1045B000CC270020C8270020A427002000B589B000
:1045C00003900B4601928DF80B30019B042B01D810
:1045D000072351E002F0AAFF034683F00103DBB298
:1045E000002B07D002F05AFF0790079B002B01D049
:1045F000079B41E0224A039B1360224A9DF80B303F
:104600001370214A019B1360204B00221A60204B3B
:1046100000221A6023E09DF80B30DB00039A13445C
:10462000069303238DF8143000238DF815300023F2
:104630008DF8163000238DF81730069B9B788DF887
:104640001530069B1B78184605AB124A194602F036
:1046500079FF0790079B002B01D0079B0CE09DF88A
:104660000B305A1E8DF80B20002BD4D10A4A0021A2
:104670000A4800F0F7FE0346184609B05DF804FB4F
:104680009C270020A0270020A4270020C827002066
:10469000CC2700201D4502004544020028C6020028
:1046A00000B583B0114B1B68002B03D11049B62015
:1046B00004F014FB002301930CE00C4B1A68019BDF
:1046C000DB0013441B780121184602F09FFF019B79
:1046D00001330193074B1B781A46019B9342ECD39D
:1046E0000023184603B05DF804FB00BF9C270020A0
:1046F0002CC60200A027002000B583B0124B1B6817
:10470000002B03D11149C42004F0E8FA00230193DF
:104710000BE00D4B1A68019BDB0013441B78184615
:1047200002F0FCFF019B01330193094B1B781A46F1
:10473000019B9342EDD3074B184600F0F5FE03466C
:10474000184603B05DF804FB9C2700202CC602002D
:10475000A0270020A827002000B589B0039002916F
:104760000192029B9BB2ADF81430019B0693039B10
:10477000079305AB1A46002144F2010000F050F8FF
:1047800000BF09B05DF804FB86B00390029101926E
:1047900001238DF817309DF81730204A039B1360D2
:1047A0001E4A029B53601D4A019B9360039B44F287
:1047B0000102934213D0039B44F20202934222D19E
:1047C000019B164AD360154BDB681B881A46134BB6
:1047D0009A61124BDB685B68104AD36113E0019B5E
:1047E0000E4A13610D4B1B699B680C4A53610B4BBE
:1047F0001B691B881A46094B9A61084B1B695B6849
:10480000064AD36100BF72B600BF9DF81730DBB215
:10481000002BFAD162B600BF06B07047D027002047
:1048200030B589B0059004910392FFF763FC00BF97
:10483000FFF736FA0346002BFAD1059B41F201023D
:1048400093421DD0059B41F20102934203D8059B80
:10485000012B0BD04CE0059B44F20102934229D07E
:10486000059B44F20202934214D041E02D4B1B8879
:104870001B0443F001032C491846FFF7B7F942E047
:10488000284B1B881B0443F0010328491846FFF7F7
:10489000ADF938E0039B0793224B1B881B0443F0C0
:1048A0000100079B5B681A46079B1B882049FFF79E
:1048B000BCF928E0039B06931A4B1B881B0443F0AA
:1048C0000104069B9D68069B9B68184601F02CFE20
:1048D00003461946069B5B681A46069B1B88019394
:1048E00000920B462A4613492046FFF7B2F90AE028
:1048F0000C4B1B881B0443F00103049A0E49184615
:10490000FFF782F900BF0D4B1B6803F00103002B7A
:1049100000D0FFDE039A04990598FFF735FF00BF2A
:1049200009B030BD8021002090C60200B0C6020050
:10493000D4C60200F0C6020008C70200F0ED00E095
:1049400082B003468DF807309DF8073003F01F0250
:1049500005499DF907305B09012000FA02F241F890
:10496000232000BF02B0704700E100E082B00346A0
:104970008DF807309DF8073003F01F0206499DF9B6
:1049800007305B09012000FA02F2203341F82320AE
:1049900000BF02B0704700BF00E100E082B00346F4
:1049A0008DF807309DF8073003F01F0206499DF986
:1049B00007305B09012000FA02F2403341F823205E
:1049C00000BF02B0704700BF00E100E082B00346C4
:1049D0008DF807309DF8073003F01F0206499DF956
:1049E00007305B09012000FA02F2603341F823200E
:1049F00000BF02B0704700BF00E100E082B0034694
:104A000000918DF807309DF90730002B0CDA009BE0
:104A1000DAB20C499DF8073003F00F03043B520152
:104A2000D2B20B441A7609E0009BDAB206499DF92E
:104A300007305201D2B20B4483F8002300BF02B00A
:104A4000704700BF00ED00E000E100E084B001909D
:104A5000244B0393019B002B40D0234B1A680399EE
:104A6000019B00BF00BF00BF00BF00BF00BF00BF71
:104A700000BF8A422FD000BF00BF00BF00BF00BFF1
:104A800000BF00BF00BF00BF00BF00BF00BF00BF2E
:104A900000BF00BF00BF00BF00BF00BF00BF00BF1E
:104AA00000BF00BF00BF00BF00BF00BF00BF00BF0E
:104AB00000BF00BF00BF00BF00BF00BF00BF00BFFE
:104AC00000BF00BF00BF00BF00BF00BF00BF00BFEE
:104AD00000BF00BF00BF013BC3D1019300BF04B0C2
:104AE000704700BF0024F4005022002000B583B0BE
:104AF0000190064A019BC2F8083507211120FFF7F3
:104B00007DFF00BF03B05DF804FB00BF0010014053
:104B100008B50D4B4FF48032C3F844230A4B4FF4D1
:104B20008032C3F804231120FFF750FF1120FFF754
:104B300007FF054B01221A602F20FFF787FF034B69
:104B400001221A7000BF08BD001001400E2900208C
:104B500008B51120FFF70AFF0E4B4FF48032C3F85F
:104B600048230C4B4FF48032C3F80823094B012231
:104B70005A602F20FFF76AFF064B01229A60064B0E
:104B800000221A602F20FFF761FF044B00221A70E9
:104B900000BF08BD00100140002900200E290020A0
:104BA000024BD3F804351846704700BF001001408F
:104BB00082B001900091019A009BD31A23F07F43A9
:104BC000184602B07047000082B00190034A019B72
:104BD000C2F8403500BF02B0704700BF001001406E
:104BE00086B00190284B1B68002B03D1264A019BFD
:104BF000136045E0019B1A68234B1B681B689A42AF
:104C000010D8214B1B681968019B1A681E4B1B6842
:104C10008A1A1A601C4B1A68019BDA611A4A019BB6
:104C200013602DE0019B1B680393174B1B680593D2
:104C3000154B1B68049309E0049B1B68039AD31A65
:104C40000393049B0593049BDB690493049B002B53
:104C500004D0049B1B68039A9A42EDD8049B002B56
:104C600005D0049B1A68039BD21A049B1A60019B0F
:104C7000039A1A60019B049ADA61059B019ADA6132
:104C800000BF06B0704700BFFC28002000B587B009
:104C900001902A4B1B680393284B1B680593059BC7
:104CA000049308E0049A019B9A4208D0049B059360
:104CB000049BDB690493049B002BF3D100E000BF4D
:104CC000049B002B01D1002333E0059A049B9A42F8
:104CD00014D11A4B1B68DB69184A1360174B1B6809
:104CE000002B0BD1164B01229A60164B00221A6042
:104CF000154B01221A702F20FFF7A8FE049B1B689A
:104D00000293049BDA69059BDA61059BDB690493D6
:104D1000049B002B05D0049B1A68029B1A44049B39
:104D20001A60064B1B68039A9A4214BF01230023A2
:104D3000DBB2184607B05DF804FB00BFFC2800207A
:104D400000100140002900200F29002008B5112083
:104D5000FFF724FE00BF08BD08B51420FFF71EFEB4
:104D600000BF08BD00B583B00190019B5B69019A4B
:104D700092691046984700BF03B05DF804FB00003D
:104D800000B585B02B4B1B68002B4ED00023019340
:104D9000FFF706FF0246284B1B6819461046FFF72F
:104DA00007FF0290234B1B6803931DE0039B1B68C6
:104DB000029A9A421CD3039B1B68029AD31A02934D
:104DC000039B1B68019A13440193039B0093039B6D
:104DD000DB690393009B1B7C002B05D0009B00220A
:104DE0001A740098FFF7BEFF039B002BDED100E092
:104DF00000BF124B1A78124B1B789A420CD1104B01
:104E00001B780133DAB20E4B1A700D4B1B78022B54
:104E100002D10B4B00221A70094B1B781946094A24
:104E2000019B42F82130FFF797FF00BF05B05DF806
:104E300004FB00BFFC280020002900200C290020D2
:104E40000D2900200429002082B00190184B1A7807
:104E5000184B1B789A4223D0154B1B780133DAB2DA
:104E6000134B1A70124B1B78022B02D1104B0022ED
:104E70001A700F4B1B781A460F4B53F82220019BD8
:104E80001A60019B1A680D4B1B6813440B4A136090
:104E90000A4B1B6823F07F43084A1360012303E099
:104EA000019B00221A600023184602B0704700BF21
:104EB0000C2900200D2900200429002000290020B1
:104EC00088B00390029101920023079338E0204BB1
:104ED0001B680693069B1B68039A9A4206D2069BA0
:104EE0001A68039BD21A069B1A602DE0069B1B686A
:104EF000039AD31A0393069B1B68079A13440793DC
:104F0000069B00221A60124B1B680593069BDB6907
:104F10000F4A1360069BDB68002B11D0029A079B97
:104F2000134423F07F42069B5A60069BDA68069B77
:104F30009A60019B1A68069BDA61019B059A1A60C8
:104F4000034B1B68002BC2D100BF08B0704700BFE5
:104F5000FC28002000B589B0019000238DF81F3097
:104F6000664B1B680593AAE0019B002B05D0019BB3
:104F70000693069BDB69019361E0614B1B781A463F
:104F800013465B001344DB005D4A1344043304936F
:104F90005B4B1B780133DAB2594B1A70584B1A78B5
:104FA000574B9B789A4202D1554B00221A70049BB2
:104FB0005B680693049B1B78022B04D0032B1BD049
:104FC000012B1FD01DE0049B5B681846FFF75EFEB7
:104FD0000346002B02D001238DF81F30069B0022D0
:104FE0001A746CE0454B1B680393039B00221A74F0
:104FF000039BDB69414A1360404B1B68002BF1D1D6
:105000005DE05CE000BF069B1B7C002B00D056E0FF
:10501000049B9A68069B5A60049BDA68069B9A6018
:10502000049B1A69069BDA60049B5A69069B9A6185
:10503000344B1B78002B02D0069B00225A60069B43
:105040005A68314B1B68D31A23F07F432F4A93428F
:105050000ED8069B5A682C4B1B6819461046FFF762
:10506000A7FD0246069B9B681A44069B1A6017E040
:10507000254B1A68069B5B6819461046FFF798FD9A
:105080000290069B9B68029A9A4206D2069B9A68F7
:10509000029BD21A069B1A6002E0069B00221A604D
:1050A000069B00225A60069B00229A60069B012202
:1050B0001A74069B0022DA610698FFF791FD019BA6
:1050C000002B7FF451AF0E4B1A780D4B5B789A4250
:1050D0007FF44AAF9DF81F30002B04D1074B1B68AB
:1050E000059A9A4201D0012300E0002303F0010356
:1050F000DBB2184609B05DF804FB00BFFC280020B5
:10510000F02700200F29002000290020FEFF7F004B
:1051100010B588B00190274B1B68002B44D0254B5D
:105120001B681B680793FFF73BFD0690224B1B682B
:10513000059305990698FFF73BFD03460333049357
:105140001E4B1B7883F00103DBB2002B01D0FFF76D
:10515000DFFC049A079B934238BF1346059A134419
:105160000593059B23F07F4305930598FFF72CFDDE
:10517000FFF716FD039006990398FFF719FD034604
:10518000DC1C06990598FFF713FD03469C420DD9D8
:10519000FFF706FD03461846FFF716FD2F20FFF721
:1051A00055FCFFF7D3FD01E0FFF7D2FC00BF08B0CC
:1051B00010BD00BFFC280020002900200E2900207F
:1051C00000B587B00023019300238DF81730194BE9
:1051D0001B680493184B1B6803936B461846FFF734
:1051E00033FE03468DF80B309DF80B30002B08D0B2
:1051F000009B01AA04991846FFF762FE01238DF86F
:105200001730019B1846FFF7A5FE0346002B02D07E
:1052100001238DF817309DF81730002B02D003982A
:10522000FFF776FF054B00221A7000BF07B05DF84C
:1052300004FB00BF00290020FC2800200F290020CB
:1052400082B003468DF80730034A9DF8073053704B
:1052500000BF02B0704700BFF027002084B001906B
:10526000144B5B7801338DF80F30124B9B789DF80F
:105270000F209A4202D100238DF80F300D4B1B787E
:105280009DF80F209A4201D100230FE0019B9DF869
:105290000F201A70074B5B781A4613465B001344C5
:1052A000DB00044A134404330293029B184604B003
:1052B000704700BFF027002000B589B0039002912D
:1052C000019200930023079300238DF816300DF10F
:1052D0001603184600F0BCF90DF117031846FFF746
:1052E000BDFF0690069B002B02D10423079318E014
:1052F000069B01221A70069B039A5A60FFF750FC26
:105300000246069B9A60069B029ADA60069B019A07
:105310001A61069B009A5A619DF817301846FFF7EC
:105320008FFF9DF81630184600F0A8F9079B002B58
:1053300001D1FFF711FD079B184609B05DF804FB8A
:1053400000B587B001900B468DF80330002305931C
:1053500000238DF80E300DF10E03184600F078F999
:105360000DF10F031846FFF779FF0490049B002B03
:1053700002D1042305930BE0049B9DF803201A70CF
:10538000049B019A5A609DF80F301846FFF758FFAA
:105390009DF80E30184600F071F9059B002B01D1E5
:1053A000FFF7DAFC059B184607B05DF804FB000028
:1053B00008B50E4B0022C3F840210C4B0022C3F865
:1053C00044210A4B0022C3F84821084B0022C3F8AD
:1053D0004C21064B0022C3F80021044B0022C3F8E5
:1053E0000421FFF7CDFC00BF08BD00BF0010014045
:1053F00008B5FFF7E5FE00BF08BD000008B5FFF7E0
:10540000A7FB134B00221A70114B00225A70104B4D
:105410000B229A700F4B00221A600F4B00221A7059
:105420000E4B00221A701420FFF7D0FA0721142027
:10543000FFF7E4FA1420FFF783FA0020FFF756FB8A
:10544000FFF7AEFB0246064B1A600023184608BD64
:10545000F0270020FC2800200C2900200D29002026
:105460000029002086B003900B4601928DF80B3086
:10547000134B9B78002B01D108231EE0019B002BCE
:1054800001D1072319E0039B002B01D1072314E06E
:10549000039B1B681B7C002B01D008230DE0039BA2
:1054A0001B680593059B00221A74059B9DF80B2031
:1054B0005A74059B019A5A610023184606B070473A
:1054C000F027002000B587B0039002910192039B62
:1054D0000593144B9B78002B01D108231EE0039BFE
:1054E000002B01D1082319E0029B042B01D80723CC
:1054F00014E0059B5B69002B01D108230EE0059B9E
:105500005B7C012B01D1029B00E000230493019BF3
:10551000049A02990598FFF7CFFE0346184607B094
:105520005DF804FBF027002000B585B00190019BD9
:1055300003930D4B9B78002B01D1082310E0019BB6
:10554000002B03D0039B5B69002B01D1082307E0EC
:10555000039B00221A7402210398FFF7F1FE034611
:10556000184605B05DF804FBF027002082B0EFF389
:1055700010830093009B019372B6019B184602B002
:10558000704762B600BF704700B585B00190FFF765
:10559000EDFF0390164B9B68002B1BD1144B01228F
:1055A0009A60144BD3F88020134B1340104A1360B9
:1055B000104B114AC3F880200E4BD3F884300C4AAC
:1055C00053600C4B4FF0FF32C3F88420019B002244
:1055D0001A7002E0019B01221A70039B002B01D17B
:1055E000FFF7CFFF0023184605B05DF804FB00BFAE
:1055F0001029002000E100E0FC06FFBD00B585B0E9
:1056000003468DF80730104B9B68002B16D09DF891
:105610000730002B12D1FFF7A9FF03900B4A0A4B6A
:105620001B681360094A084B5B685360064B0022F5
:105630009A60039B002B01D1FFF7A3FF00231846BC
:1056400005B05DF804FB00BF1029002000E100E078
:1056500000B583B0019000F02BF80346012B03D076
:105660000549432003F03AFB0198FFF78DFF00BF87
:1056700003B05DF804FB00BF20C7020000B583B093
:1056800003468DF8073000F013F80346012B03D0D2
:105690000649512003F022FB9DF807301846FFF71A
:1056A000ADFF00BF03B05DF804FB00BF20C70200E0
:1056B00084B0EFF305830193019BC3F308030393C5
:1056C000039B002B0DD1EFF314830093009B0293F7
:1056D000029B03F00103002B0CBF01230023DBB26C
:1056E00000E00123184604B07047000000B583B005
:1056F00001900B468DF80330019B002B03D1084924
:10570000AF2003F0EBFA019BDA689DF803300199B2
:10571000098A01FB03F31344184603B05DF804FB48
:1057200090C7020000B583B001900091019B002B4F
:1057300003D10849BC2003F0D1FA009B019AD2683A
:105740009B1A019A128AB3FBF2F3DBB2184603B03C
:105750005DF804FB90C7020000B585B00190019B85
:10576000002B01D10E2348E0019B1B68002B03D1C5
:105770002449C62003F0B2FA019B5B68002B03D1D9
:105780002049C72003F0AAFA019B9B68002B03D194
:105790001C49C82003F0A2FA019BDB68002B03D14F
:1057A0001849C92003F09AFA019B1B8A002B03D1E8
:1057B0001449CA2003F092FA019B9A68019B5B6826
:1057C000D31A8DF80F30019B1B68019A52681A603A
:1057D00007E0019B1A681368591C11609DF80F209F
:1057E0001A709DF80F305A1E8DF80F20002BF0D143
:1057F000019B1B6800221A710023184605B05DF852
:1058000004FB00BF90C7020000B585B00190019B6A
:10581000002B03D11F49EC2003F060FA002303930F
:1058200000238DF80A300DF10A031846FFF710FF28
:10583000019B1B681A68019B5B689A421FD9019BF8
:105840001B681A68013A1A601B681B781946019890
:10585000FFF74CFF0390019B9A68019B1B681B6834
:10586000D31A8DF80B30019B1B681B799DF80B2018
:105870009A4204D9019B1B689DF80B201A719DF870
:105880000A301846FFF7FAFE039B184605B05DF88C
:1058900004FB00BF90C7020010B584B001900091D6
:1058A000019B002B04D115494FF4887003F016FAC0
:1058B000009B002B04D1114940F2111003F00EFAA5
:1058C000009B039300238DF80B300DF10B0318465A
:1058D000FFF7BEFE019B1B681C68621C1A600399DF
:1058E0000198FFF71FFF034623709DF80B30184601
:1058F000FFF7C4FE00BF04B010BD00BF90C7020098
:1059000000B583B00190019B002B03D10C493120DD
:1059100003F0E4F9019B9B68002B0CD0019B5B69B1
:10592000019A1069019A1168019A92689847019B3F
:1059300000229A6000E000BF03B05DF804FB00BFE6
:10594000F4C702000EB400B584B00190019B002B97
:1059500003D11849422003F0C1F9019B5B69002B78
:1059600003D11449432003F0B9F9019B1B68002BB4
:1059700003D11049442003F0B1F9019B5B68002B6F
:1059800003D10C49452003F0A9F9059B002B0AD04F
:105990000023039306AB039303AB1A4605990198C2
:1059A00000F0B0F900E000BF04B05DF804EB03B014
:1059B000704700BFF4C7020000B583B001900B46EA
:1059C0008DF80330019B1A68019B9B68581C019954
:1059D000886013449DF803201A70019B9A68019B0C
:1059E0005B689A4202D30198FFF78AFF00BF03B0B9
:1059F0005DF804FB00B587B003900291019200931B
:105A000000230593009B03F00103002B24D00BE03F
:105A1000029B01330293059B013305939DF81330DC
:105A200019460398FFF7C8FF029B1B788DF81330C7
:105A30009DF81330002BEBD106E0019B013B019355
:105A400020210398FFF7B8FF019A059B9A422ED9AF
:105A5000019B002BF1D12AE0029B002B0BD0029876
:105A600006F0FDFB059006E0019B013B0193202120
:105A70000398FFF7A1FF019A059B9A420FD9019B5A
:105A8000002BF1D10BE0029B01330293059B013304
:105A900005939DF8133019460398FFF78DFF029B7D
:105AA0001B788DF813309DF81330002BEBD100BF1D
:105AB00007B05DF804FB000000B589B003900291C7
:105AC00001920093029B07930123069307E0079A34
:105AD000019BB2FBF3F30793069B01330693079AEE
:105AE000019B9A42F3D2009A069B9A4201D9009BED
:105AF00006930B9B03F00103002B22D10A9B002B82
:105B00001FD00B9B03F00203002B06D0009B002B41
:105B100003D130238DF8173002E020238DF81730A1
:105B200008E00A9B013B0A939DF817301946039839
:105B3000FFF742FF0A9B002B03D0069A0A9B9A426A
:105B4000EFD301230793009B012B03D9009B013B5B
:105B5000009309E0029A079BB2FBF3F30493049AC3
:105B6000019B9A4200D205E0079B019A02FB03F3D6
:105B70000793E8E7029A079BB2FBF3F30493049BB5
:105B8000079A02FB03F3029AD31A0293154A049B65
:105B900013441B7819460398FFF70EFF079A019BE1
:105BA000B2FBF3F30793079B002BE3D10B9B03F0AE
:105BB0000103002B11D00A9B002B0ED006E00A9B9C
:105BC000013B0A9320210398FFF7F6FE0A9B002B66
:105BD00003D0069A0A9B9A42F1D300BF09B05DF840
:105BE00004FB00BFB0C8020000B589B00590049165
:105BF00003920293049B002BB8BF5B4206930123E0
:105C0000079307E0039B069A92FBF3F30693079B27
:105C100001330793039B069A9A42F3DA029A079B91
:105C20009A4201D9029B07930A9B002B0AD0049B3E
:105C3000002B04DB0B9B03F00403002B02D00A9B18
:105C4000013B0A930B9B03F00203002B02D0029B43
:105C5000002B16D00B9B03F00103002B11D10A9BE4
:105C6000002B0ED006E00A9B013B0A9320210598E9
:105C7000FFF7A2FE0A9B002B03D0079A0A9B9A42C9
:105C8000F1D3049B002B07DA049B5B4204932D2184
:105C90000598FFF791FE08E00B9B03F00403002B2F
:105CA00003D02B210598FFF787FE0B9B03F002031F
:105CB000002B19D00B9B03F00103002B14D1029B86
:105CC000002B11D10A9B002B0ED006E00A9B013B52
:105CD0000A9330210598FFF76FFE0A9B002B03D033
:105CE000079A0A9B9A42F1D304990B9B01930A9B52
:105CF0000093029B039A0598FFF7DEFE00BF09B0F0
:105D00005DF804FB00B58FB0059004910392059BEC
:105D1000002B04D1C8494FF49F7002F0DFFF059BB0
:105D20005B69002B04D1C4494FF4A07002F0D6FF88
:105D3000059B1B68002B04D1BF4940F2411002F0C3
:105D4000CDFF059B5B68002B04D1BB494FF4A170CC
:105D500002F0C4FF049B002B00F0ED81049B1B7834
:105D60008DF83730049B013304939DF83730002BB6
:105D700000F0D8819DF83730252B40F0C7810023F3
:105D80000A9301230C93049B1B788DF837309DF800
:105D900037302D2B04D0302B0AD02B2B10D017E00E
:105DA0000A9B43F001030A93049B0133049312E01E
:105DB0000A9B43F002030A93049B013304930AE015
:105DC0000A9B43F004030A93049B0133049302E00B
:105DD00000230C9300BF0C9B002BD4D1002309930C
:105DE0009DF837302A2B0CD1039B1B68191D039A91
:105DF00011601B68099A13440993049B01330493AF
:105E00001AE0049B1B788DF837309DF837302F2B24
:105E100012D99DF83730392B0ED8049B01330493E7
:105E2000099A13469B0013445B001A469DF83730CD
:105E30001344303B0993D3E700230B93049B1B7857
:105E40008DF837309DF837302E2B1DD1049B013350
:105E50000493049B1B788DF837309DF837302F2B37
:105E600012D99DF83730392B0ED8049B0133049397
:105E70000B9A13469B0013445B001A469DF837307B
:105E80001344303B0B93E4E7049B1B788DF83730C9
:105E90009DF837306C2B03D09DF83730682B07D135
:105EA000049B01330493049B1B788DF83730EFE794
:105EB0009DF83730253B532B00F2238101A252F885
:105EC00023F000BFF96002000361020003610200D9
:105ED000036102000361020003610200036102002A
:105EE000036102000361020003610200036102001A
:105EF000036102000361020003610200036102000A
:105F000003610200036102000361020003610200F9
:105F100003610200036102000361020003610200E9
:105F200003610200036102000361020003610200D9
:105F300003610200036102000361020003610200C9
:105F400003610200036102000361020003610200B9
:105F500003610200036102000361020003610200A9
:105F60000361020003610200036102000361020099
:105F70000361020003610200036102000361020089
:105F80000361020003610200036102000361020079
:105F900085600200036102000361020003610200E8
:105FA0000361020003610200036102000361020059
:105FB0000361020003610200036102001560020038
:105FC0003D60020003610200036102000361020000
:105FD000036102003D6002000361020003610200F0
:105FE0000361020003610200036102000361020019
:105FF000C56002000361020003610200A9600200A3
:10600000036102006160020003610200036102009B
:1060100085600200039B1B68191D039A11601B68B1
:106020000C930C9B8DF823309DF82330194605986E
:10603000FFF7C2FC66E000BF50C80200039B1B686C
:10604000191D039A11601B680C930A9B0193099B0D
:1060500000930B9B0A220C990598FFF7C5FD51E0B0
:10606000039B1B68191D039A11601B680C930C9904
:106070000A9B0193099B00930B9B0A220598FFF74B
:106080001BFD3FE0039B1B68191D039A11601B68F1
:106090000C930C990A9B0193099B00930B9B102274
:1060A0000598FFF709FD2DE0039B1B68191D039A56
:1060B00011601B6807930A9B099A07990598FFF7D7
:1060C00099FC1FE0039B1B68191D039A11601B6854
:1060D0000C9330210598FFF76FFC78210598FFF7A6
:1060E0006BFC0C99002301930823009308231022D2
:1060F0000598FFF7E1FC05E025210598FFF75CFC1A
:1061000000E000BF049B0133049305E09DF83730A5
:1061100019460598FFF750FC049B1B78002B7FF471
:106120001DAE00E000BF059B1B7B002B04D0059833
:10613000FFF7E6FB00E000BF0FB05DF804FB00BF17
:1061400010B487B001900091019B009A53E8004F72
:1061500004EB020043E8000191F0000FF6D1059432
:1061600004900391049B184607B05DF8044B7047F8
:1061700010B487B001900091019B009A53E8004F42
:10618000A4EB020043E8000191F0000FF6D1059462
:1061900004900391049B184607B05DF8044B7047C8
:1061A00000B583B001900198FFF7D6FA0346184670
:1061B00003B05DF804FB00B58BB001900091019B2A
:1061C0001B8A043B0793009A079B1344DA1C079B26
:1061D000B2FBF3F38DF81B300198FFF715FB059028
:1061E000059B002B01D1002338E0059B00221A718A
:1061F000059B01225A71079B9AB2059BDA80059B89
:1062000009939DF81B30013B0493099B019A1A6086
:10621000002308931DE00198FFF7F6FA0390039B13
:10622000002B0ED0059B5B790133DAB2059B5A71C6
:10623000099B039A1A60039B019A1A60039B0993B6
:1062400004E0059800F00EF8002307E0089B0133F6
:106250000893089A049B9A42DDD3059B18460BB01D
:106260005DF804FB00B58BB00190019B0793079B81
:106270005B798DF81B30019B08939DF81B30013B27
:1062800005930023099305E0089B1B680893099B6D
:1062900001330993099A059B9A42F5D3089B1B6821
:1062A0000493019B0893002309930BE0089B1B6850
:1062B000039308990498FFF7EFFA039B0893099B4F
:1062C000013309939DF81B30099A9A42EED300BF1F
:1062D0000BB05DF804FB00B585B00190019B039302
:1062E000039B043301211846FFF72AFF00BF05B0C6
:1062F0005DF804FB00B587B00190019B0593059BF9
:10630000043301211846FFF733FF0346039303AB21
:106310000493049B1B78002B02D10198FFF7A2FF86
:1063200000BF07B05DF804FB00B58DB0039002918B
:1063300001920093039B0693069BDB880593039BC6
:106340000B93009B1A1D059BB2FBF3F30A93009B72
:106350000433059AB3FBF2F2059901FB02F29B1A92
:106360000993009A019B1A44059B1344DA1C059B70
:10637000B2FBF3F38DF81330069B5B799DF8132085
:106380009A420AD92749BA2002F0A8FC05E00B9BE3
:106390001B680B930A9B013B0A930A9B002BF6D1C7
:1063A00000230893059A099BD31A0793079A019B28
:1063B000934228BF134607932DE09DF83830002BF9
:1063C0000BD0029A089BD0180B9A099B13440433F4
:1063D000079A194605F0E7FE0AE00B9A099B134459
:1063E000181D029A089B1344079A194605F0DBFE14
:1063F000002309930B9B1B680B93019A079BD31AED
:106400000193089A079B13440893059A019B9342B2
:1064100028BF13460793019B002BCED100BF0DB0C0
:106420005DF804FBC0C8020000B587B00590049178
:106430000392029300230093029B039A0499059808
:10644000FFF772FF00BF07B05DF804FB00B587B02F
:10645000059004910392029301230093029B039AF7
:1064600004990598FFF760FF00BF07B05DF804FBD3
:1064700000B583B001900091019B002B03D110491E
:10648000502002F02BFC009B002B03D10C49512023
:1064900002F024FC019B009A1A60019B1B681A6899
:1064A000019B5A60019B5A68019B1B685B689A427A
:1064B00002D1019B00225A6000BF03B05DF804FBCB
:1064C00030CA020000B583B00190019B002B03D1BC
:1064D0001449632002F002FC019B1B68002B03D1CE
:1064E0001049642002F0FAFB019B5B68002B14D07A
:1064F000019B5B681A46019B1B689B6813441A4604
:10650000019B5A60019B5A68019B1B685B689A4219
:1065100004D1019B00225A6000E000BF03B05DF887
:1065200004FB00BF30CA020000B585B0019001989D
:1065300000F00EF80390039B002B01D0039B00E0BA
:10654000024B184605B05DF804FB00BFACCA020060
:1065500086B00190164B0593164B04931FE0049AE6
:10656000059BD31ADB10DA0F13445B10DB00059A8E
:1065700013440393039B1B680293029A019B9A4264
:1065800002D9039B04930AE0029A019B9A4203D228
:10659000039B0833059302E0039B5B6804E0059AC4
:1065A000049B9A42DBD30023184606B0704700BF15
:1065B000C8CD0200B8CE020082B001900B46ADF803
:1065C0000230019B1A68BDF80230012101FA03F381
:1065D0001A43019B1A6000BF02B0704782B001905D
:1065E0000B46ADF80230019B1A68BDF8023001215C
:1065F00001FA03F3DB431A40019B1A6000BF02B0AB
:10660000704782B001900B46ADF80230BDF8023001
:10661000012202FA03F31A46019B1340002B14BF18
:1066200001230023DBB2184602B0704700B585B0E5
:1066300001900023ADF80E3010E0BDF80E30194681
:106640000198FFF7DEFF0346002B02D0BDF80E30A5
:106650000AE0BDF80E300133ADF80E30BDF80E3053
:106660001F2BEAD94FF6FF73184605B05DF804FBFF
:1066700000B587B00590049111461A460B46ADF857
:106680000E3013468DF80D30BDF80E209DF80D30FC
:106690000093134601220499059800F004F800BF06
:1066A00007B05DF804FB00B587B00390029101923A
:1066B000ADF80230039B002B3BD0029B002B38D05F
:1066C000019B002B35D0002305932FE0059B5B0039
:1066D000039A13441B88BDF802209A4223D1002359
:1066E00004931BE09DF82030002B0AD0049B9B00F4
:1066F000029A1344059A92B211461846FFF75CFFBE
:1067000009E0049B9B00029A1344059A92B2114639
:106710001846FFF763FF049B01330493049A019B1F
:106720009A42DFD305E0059B01330593059B1F2BA0
:10673000CCD907B05DF804FB00B597B00390029187
:10674000019200230493029B002B1ED0002315937B
:1067500018E0159B9BB219460198FFF752FF0346BC
:10676000002B0CD0159B5B00029A1A44049B591C09
:10677000049112885B0016A90B4423F8442C159B46
:1067800001331593159B1F2BE3D9039B184604ABCC
:106790004422194605F007FD039817B05DF804FB85
:1067A00000B583B00190019B1B681F2B04D90549DC
:1067B0004FF4E87002F092FA4FF0A043184603B08D
:1067C0005DF804FBB8CE020000B585B00190084624
:1067D00011461A4603468DF803300B468DF80230F9
:1067E00013468DF8013001AB1846FFF7D9FF03902F
:1067F0009DF803209DF802305B001A439DF801309C
:106800009B001A439DF818301B0242EA03019DF8D1
:106810001C301B04019A1943039B02F5E07243F8F4
:10682000221000BF05B05DF804FB00B585B00390F1
:1068300000230193002300930023012201210398E8
:10684000FFF7C2FF00BF05B05DF804FB00B585B0DF
:10685000019001AB1846FFF7A3FF0390019B0122B3
:1068600002FA03F31946039800F02AF800BF05B0B6
:106870005DF804FB00B585B0019001AB1846FFF749
:106880008FFF0390019B012202FA03F3194603983C
:1068900000F020F800BF05B05DF804FB00B583B040
:1068A00001900091009B002B03D10198FFF7E2FFBC
:1068B00002E00198FFF7CAFF00BF03B05DF804FBD8
:1068C00082B001900091019B009AC3F8082500BF97
:1068D00002B0704782B001900091019B009AC3F80A
:1068E0000C2500BF02B0704700B583B00190019B3A
:1068F000032B03D907493E2002F0F0F9064A019B19
:1069000013441B7800211846FFF7C8FF00BF03B0EF
:106910005DF804FBF0CE020048CF020000B583B062
:106920000190019B032B03D90749442002F0D6F9BB
:10693000064A019B13441B7801211846FFF7AEFF5E
:1069400000BF03B05DF804FBF0CE020048CF0200A8
:1069500000B583B00023019305E00198FFF7DEFF47
:10696000019B01330193019B032BF6D900BF03B0B8
:106970005DF804FB00B583B00023019309E0094AE8
:10698000019B13441B781846FFF74FFF019B01330F
:106990000193019B032BF2D9FFF7DAFF00BF03B08D
:1069A0005DF804FB48CF020082B003468DF8073043
:1069B0009DF8073003F01F0206499DF907305B0977
:1069C000012000FA02F2203341F8232000BF02B078
:1069D000704700BF00E100E082B001904FF08042BC
:1069E000019BC2F8083300BF02B0704782B0034673
:1069F0008DF807309DF8073003F1804301221A60BB
:106A000000BF02B0704784B00346ADF80630BDF851
:106A1000063003F1804300221A60BDF8063003F10E
:106A200080431B680393039B00BF04B0704782B090
:106A30000346ADF80630BDF8063003F180431B680D
:106A4000002B14BF01230023DBB2184602B07047AD
:106A500082B003468DF807309DF807304FF0804232
:106A600003F00303C2F8183500BF02B070474FF0BF
:106A70008043D3F818341B0C03F00103002B14BF20
:106A800001230023DBB218467047000082B00346A2
:106A90008DF807300A4A9DF907305B0952F8232028
:106AA0009DF8073003F01F03012101FA03F313409F
:106AB000002B14BF01230023DBB2184602B070473D
:106AC00000E100E008B50020FFF7E0FF034683F097
:106AD0000103DBB2002B03D00721002000F096F960
:106AE00000BF08BD08B505F0D7F8034683F00103E1
:106AF000DBB2002B03D10949842002F0EFF80C200F
:106B0000FFF774FF00BFFFF7B2FF0346002BFAD177
:106B1000034B00229A7000BF08BD00BF54CF020093
:106B20001C29002000B583B000230193134B1B7870
:106B3000002B02D0852301931BE0104B00229A60AA
:106B40000E4B00225A600D4B00221A610B4B0022A3
:106B5000DA60FFF7B7FF05F09FF8034683F0010303
:106B6000DBB2002B02D00120FFF772FF034B0122A2
:106B70001A70019B184603B05DF804FB1C29002025
:106B800084B00190019B1B680393039B002B03D0EF
:106B9000039B1A68019B1A60039B184604B0704758
:106BA00000B583B0164B1B78002B04D115494FF468
:106BB0008E7002F093F8124BDB68002B04D1114960
:106BC00040F21D1002F08AF800238DF807300DF115
:106BD00007031846FEF73CFD094BDB68013B084AFA
:106BE000D360074BDB68002B01D1FFF77BFF9DF8DB
:106BF00007301846FEF742FD00BF03B05DF804FB06
:106C00001C29002054CF020000B585B003468DF842
:106C100007309DF80730002B02D10C4B039301E0A5
:106C20000B4B03930398FFF7ABFF0290029B002BE3
:106C300006D0029B5B689DF8072010469847F1E755
:106C400000BF00BF05B05DF804FB00BF2429002091
:106C50002C29002008B54FF48070FFF7E8FE0346AA
:106C6000002B0CD04FF48070FFF7CDFE0120FFF712
:106C7000B3FE0E4B01225A700020FFF7C5FF4FF400
:106C80008270FFF7D4FE0346002B0CD04FF48270C5
:106C9000FFF7B9FE0220FFF79FFE044B01229A7016
:106CA0000120FFF7B1FF00BF08BD00BF1C29002075
:106CB00000B583B001900091019B002B02D1002010
:106CC000FFF7A2FF00BF03B05DF804FB00B585B07D
:106CD000034600918DF807309DF80730012B07D04F
:106CE000032B24D0002B32D10020FFF75DFE2FE0D4
:106CF00000238DF80F300DF10F031846FEF7A8FCA6
:106D0000154B1B7883F00103DBB2002B01D0FFF79A
:106D100009FF114BDB6801330F4AD3600E4B012290
:106D20009A709DF80F301846FEF7A8FC10E00A4B49
:106D30001B78002B04D1094940F25B2001F0CEFF03
:106D40000721002000F062F8FFF72AFF00E000BFF3
:106D500000BF05B05DF804FB1C29002054CF0200E1
:106D600082B003468DF807309DF8073003F01F020C
:106D700005499DF907305B09012000FA02F241F84C
:106D8000232000BF02B0704700E100E082B003465C
:106D90008DF807309DF8073003F01F0206499DF972
:106DA00007305B09012000FA02F2603341F823202A
:106DB00000BF02B0704700BF00E100E082B00346B0
:106DC00000918DF807309DF90730002B0CDA009BFD
:106DD000DAB20C499DF8073003F00F03043B52016F
:106DE000D2B20B441A7609E0009BDAB206499DF94B
:106DF00007305201D2B20B4483F8002300BF02B027
:106E0000704700BF00ED00E000E100E000B583B096
:106E100003460A468DF8073013468DF806309DF874
:106E20000630012B03D99DF80630032B0CD99DF8B1
:106E30000630042B03D99DF80630072B04D90D49E1
:106E40004FF4927001F04AFF9DF806209DF907303B
:106E500011461846FFF7B2FF9DF907301846FFF7B5
:106E600095FF9DF907301846FFF77AFF00BF03B082
:106E70005DF804FBBCCF020000B583B00346ADF85B
:106E80000630BDF80630184600F026F803461B68A9
:106E9000012B0CBF01230023DBB2184603B05DF8C1
:106EA00004FB00B585B00346ADF80630BDF80630EA
:106EB000184600F011F803461A4600231360BDF887
:106EC0000630184600F008F803461B680393039B3E
:106ED00000BF05B05DF804FB82B00346ADF8063094
:106EE000BDF8063003F1804303F5C043184602B0F5
:106EF0007047000082B00190034A019BC2F804333E
:106F000000BF02B0704700BF0060004082B0019037
:106F1000034A019BC2F8083300BF02B0704700BFAC
:106F20000060004082B00190034BD3F80423019B22
:106F30001340184602B070470060004082B00190D4
:106F4000084A019B03F5A27352F82330054943F028
:106F50000102019B03F5A27341F8232000BF02B098
:106F6000704700BF0060004082B00190084A019B5A
:106F700003F5A27352F82330054923F00102019B67
:106F800003F5A27341F8232000BF02B0704700BF91
:106F90000060004084B00390029113468DF80730E2
:106FA000144A039B03F5A27352F82330114923F4CA
:106FB000473323F44073039A02F5A27241F822305A
:106FC0000C4A039B03F5A27352F82320029B1B0279
:106FD00003F4F8519DF807301B0403F440330B43CE
:106FE00004491A43039B03F5A27341F8232000BF11
:106FF00004B070470060004082B00190054A019BD8
:1070000003F5A27352F823301B0A03F01F0318463E
:1070100002B070470060004082B00190064A019BB8
:1070200003F5A27352F823301B0C03F00303DBB209
:10703000184602B0704700BF0060004000B583B042
:107040000190019B1B681F2B04D905494FF4E87080
:1070500001F044FE4FF0A043184603B05DF804FB76
:1070600028D0020000B585B00190084611461A46A6
:1070700003468DF803300B468DF8023013468DF829
:10708000013001AB1846FFF7D9FF03909DF80320AC
:107090009DF802305B001A439DF801309B001A43B3
:1070A0009DF818301B0242EA03019DF81C301B04B6
:1070B000019A1943039B02F5E07243F8221000BFC6
:1070C00005B05DF804FB00B585B003900B468DF864
:1070D0000B309DF80B2000230193002300931346EF
:1070E000002200210398FFF7BDFF00BF05B05DF847
:1070F00004FB00B585B0019001AB1846FFF79EFF79
:107100000390019A039B02F5E07253F8223023F0BA
:1071100002030293019A039B02F5E072029943F87D
:10712000221000BF05B05DF804FB00B585B00190EA
:107130000B468DF8033001AB1846FFF77FFF039035
:10714000019A039B02F5E07253F82230019A23F46E
:107150004031039B02F5E07243F82210019A039B31
:1071600002F5E07253F822309DF803201204114614
:10717000019A1943039B02F5E07243F8221000BF05
:1071800005B05DF804FB00B585B0019001AB184671
:10719000FFF754FF0390039800F020F80246019B8C
:1071A00022FA03F303F00103184605B05DF804FB6F
:1071B00000B585B0019001AB1846FFF73FFF039083
:1071C000019A039B02F5E07253F822301B0C03F086
:1071D0000303DBB2184605B05DF804FB82B00190F2
:1071E000019BD3F81035184602B0704700B587B040
:1071F0000390029101924FF0A0430493039A029BE3
:107200001344012B04D912494FF43A7001F066FD82
:10721000039B059311E0059B9B0006AA134453F8BA
:10722000083C1846FFF7DAFF0246019B1A60019BF3
:1072300004330193059B01330593039A029B134486
:10724000059A9A42E7D300BF07B05DF804FB00BF80
:1072500028D0020084B001900091009B0393019B11
:10726000DB080293019B03F0070301930122019BBA
:1072700002FA03F30399029A0A441278134018465B
:1072800004B0704784B001900091009B0393019B70
:10729000DB080293019B03F007030193039A029B0F
:1072A00013441B785AB20121019B01FA03F35BB22C
:1072B000134359B2039A029B1344CAB21A7000BF17
:1072C00004B0704782B001900C4A019B13443033E4
:1072D00093F90030002B09DB084A019B134430333B
:1072E00093F90030072B01DC012300E0002303F0B9
:1072F0000103DBB2184602B0704700BF30290020FE
:1073000082B00190064A019B1344303393F9003058
:10731000072BCCBF01230023DBB2184602B0704715
:107320003029002082B00190064A019B134430337B
:1073300093F90030DB43DBB2DB09DBB2184602B065
:10734000704700BF3029002084B003900291019261
:107350008DF80330029B59B20E4A039B134430331D
:107360000A461A700B49029B019A41F823209DF8A6
:10737000033083F00103DBB2002B08D0029B083BF3
:10738000039A51B2034A13440A4683F8502000BFBF
:1073900004B070473029002082B00190044A019B5C
:1073A00013443033FF221A7000BF02B0704700BF91
:1073B0003029002082B00190044A019B13443033ED
:1073C00093F90030184602B0704700BF3029002002
:1073D00082B00190034A019B52F82330184602B054
:1073E000704700BF3029002000B589B0039002919A
:1073F00013468DF80730FF238DF81F309DF80730B6
:10740000002B01D0002300E0082305939DF80730EE
:10741000002B01D0082300E00C230493059B069366
:1074200014E00F4A069B52F82330B3F1FF3F0AD114
:107430009DF80730029A06990398FFF785FF069B8F
:107440008DF81F3006E0069B01330693069A049BD5
:107450009A42E6D39DF91F30184609B05DF804FB47
:107460003029002082B003468DF807309DF80730A0
:10747000094A4FF0FF3142F823109DF80730072BDF
:1074800007D99DF80730083B034A1344FF2283F8CD
:10749000502000BF02B070473029002000B583B0F3
:1074A000214B93F85430002B03D008230093009B0A
:1074B00036E000238DF8073009E09DF807301846C4
:1074C000FFF76AFF9DF8073001338DF807309DF80C
:1074D00007301F2BF1D900238DF8073009E09DF804
:1074E00007301846FFF7BEFF9DF8073001338DF8CF
:1074F00007309DF807300B2BF1D907210620FFF745
:1075000085FC4FF4BE70FFF7CCFC4FF00040FFF756
:10751000F1FC054B012283F8542000230093009BCB
:10752000184603B05DF804FB30290020044B93F8A3
:107530005430002B14BF01230023DBB218467047E0
:107540003029002000B587B0039002910192039B7F
:107550001F2B04D92B4940F2F71001F0BFFB002389
:1075600005930398FFF7DEFE0346002B02D00823A5
:10757000059341E0029BDB781A4601990398FFF7D7
:1075800033FF03468DF813309DF91330B3F1FF3FFD
:1075900030D0029B9B78002B03D00398FFF7A9FD06
:1075A00005E0029B5B7819460398FFF78CFD029B70
:1075B000DB78002B08D09DF91300029B1B781A463C
:1075C0000399FFF7E7FC17E09DF91330083B0E4ADB
:1075D000134493F95010029B1B789B015AB29DF9FA
:1075E0001330083B0A4351B2074A13440A4683F852
:1075F000502001E004230593059B184607B05DF871
:1076000004FB00BF68D002003029002000B587B01D
:1076100001900B468DF80330019B1F2B04D93D4987
:1076200040F2252001F05AFB0198FFF77BFE03464C
:10763000002B04D1374940F2262001F04FFB01987E
:10764000FFF75EFE0346002B2FD00198FFF7B2FE36
:107650000346083B304A134493F950308DF81630F6
:107660009DF816309B098DF815309DF81530032BC9
:107670000BD10198FFF787FD0346002B01D00323B0
:1076800000E002238DF8173008E09DF81530012B3B
:1076900001D1022300E003238DF817309DF8173045
:1076A00019460198FFF741FD30E00198FFF70AFE07
:1076B0000346002B2AD00198FFF77CFE0346049373
:1076C000049B9BB240339BB29B00ADF80E30049BF1
:1076D0001846FFF733FCBDF80E301846FFF7E1FB04
:1076E0009DF80330002B11D00198FFF763FE03468D
:1076F0001846FFF76DFE0290029B002B06D0012278
:10770000049B02FA03F31846FFF7F4FB00BF07B02F
:107710005DF804FB68D002003029002000B585B078
:107720000190019B1F2B04D91A4940F2522001F00D
:10773000D5FA0198FFF7F6FD0346002B04D1154951
:1077400040F2532001F0CAFA0198FFF7D9FD034631
:10775000002B04D000210198FFF7E7FC15E0019809
:10776000FFF7B0FD0346002B0FD00198FFF722FE74
:1077700003460393039B1846FFF7F6FB0122039B86
:1077800002FA03F31846FFF7C1FB00BF05B05DF82E
:1077900004FB00BF68D0020000B583B00190019BDC
:1077A0001F2B04D9084940F2722001F097FA019882
:1077B000FFF7E9FC0346002B14BF01230023DBB2D3
:1077C000184603B05DF804FB68D0020000B595B020
:1077D00000231093002303934FF48073ADF84C30D3
:1077E0000123129300230F9321E0BDF84C3018467B
:1077F000FFF742FB0346002B0ED01298FFF792FBD7
:107800000346002B08D0BDF84C301846FFF749FB63
:10781000109A129B13431093129B5B001293BDF8B6
:107820004C300433ADF84C300F9B01330F930F9B5A
:10783000072BDAD94FF4BE70FFF71EFB0346002B6F
:107840000DD04FF4BE70FFF72CFB109B43F00043AC
:10785000109303AB1A4601210020FFF7C7FC109BD1
:10786000DBB2002B29D00123129300230F9321E0D8
:10787000129A109B1340002B16D00F98FFF7BCFBF9
:107880000D900F98FFF7C8FB03468DF833300F9823
:10789000FFF79EFD0B900B9B002B05D09DF833202E
:1078A0000B9B11460D989847129B5B0012930F9B00
:1078B00001330F930F9B072BDAD9109B002B80F21B
:1078C000EE8000238DF84F300023029300231193A4
:1078D0000AE0119B9B0014AA13444FF0FF3243F8B7
:1078E0004C2C119B01331193119B002BF1D00023E1
:1078F0008DF84F3000230F9378E06B4A0F9B1344B1
:10790000503393F900308DF82B309DF82B3023F055
:10791000C0030993644A0F9B1344503393F900301A
:10792000B3F1FF3F5FD001AB19460998FFF792FC16
:107930000346002B57D09DF82B309B098DF8233040
:107940000998FFF737FD03461846FFF741FD0790FA
:10795000079B002B03D19DF82330032B43D19DF8C7
:107960002330032B04D102AB19460998FFF78AFC98
:107970000998FFF71DFC03468DF81B3003AB194631
:107980000998FFF767FC0590059B002B03D09DF835
:107990001B30022B06D0059B002B24D19DF81B30F9
:1079A000032B20D19DF82330032B13D19DF81B30DE
:1079B000022B01D1032300E002238DF813309DF840
:1079C000133019460998FFF7B0FB9DF84F3001338B
:1079D0008DF84F30079B002B05D09DF82320079B87
:1079E0001146099898470F9B01330F930F9B032B68
:1079F00083D99DF84F30002B4CD001238DF83B30BC
:107A00006B461A4601210020FFF7F0FB002311937B
:107A100014E0119B9B0014AA134453F8502C119BA3
:107A20009B0014A90B4453F8443C9A4203D0002312
:107A30008DF83B3005E0119B01331193119B002B16
:107A4000E7D09DF83B30002B03D000238DF84F305A
:107A500020E0002311931AE0119B9B0014AA134409
:107A600053F8502C119B9B0014A90B4443F8442C51
:107A7000119B9B0014AA134453F8482C119B9B00A4
:107A800014A90B4443F84C2C119B01331193119B07
:107A9000002BE1D09DF84F30002B7FF428AF00BFC2
:107AA00015B05DF804FB00BF3029002082B003460A
:107AB0008DF807309DF8073003F01F0206499DF945
:107AC00007305B09012000FA02F2203341F823203D
:107AD00000BF02B0704700BF00E100E084B0019039
:107AE0000B46ADF80230BDF80230019A1344002273
:107AF0001A60BDF80230019A13441B680393039B7C
:107B000000BF04B0704782B001900B46ADF8023060
:107B1000BDF80230019A13441B68002B14BF0123E7
:107B20000023DBB2184602B0704782B0019000918A
:107B3000019B009AC3F8042300BF02B0704782B0D3
:107B400001900091019BD3F80423009B1340002B6C
:107B500014BF01230023DBB2184602B0704782B085
:107B600001900091019B009AC3F8082300BF02B066
:107B7000704784B00190019BD3F880340393019B3C
:107B8000039AC3F88024039B184604B0704782B060
:107B90000190019B0422C3F8002500BF02B070478A
:107BA00082B00190019B0022C3F8002500BF02B003
:107BB000704784B0039002910192039B019AC3F82D
:107BC0001425039B029AC3F80C2500BF04B070472C
:107BD00000B583B001904FF0FF324FF0FF310198B4
:107BE000FFF7E7FF00BF03B05DF804FB82B0019030
:107BF000019BD3F80C35184602B0704782B0019053
:107C0000019BD3F81435184602B0704782B001903A
:107C1000019BD3F80835184602B0704782B0019036
:107C2000019BD3F81035184602B0704784B003901A
:107C300002910192039B029AC3F80825039B019AC3
:107C4000C3F8102500BF04B0704700B583B00190A1
:107C50004FF0FF324FF0FF310198FFF7E7FF00BF11
:107C600003B05DF804FB82B00190019BD3F8183596
:107C7000DBB2184602B0704782B001900B468DF817
:107C800003309DF80320019BC3F81C2500BF02B000
:107C9000704782B001900B468DF803309DF8033099
:107CA000019A134401221A6000BF02B0704782B0EB
:107CB00001900B468DF8033013468DF802309DF885
:107CC00003209DF802301343DBB21A46019BC3F830
:107CD0006C2500BF02B0704782B001900091019BFB
:107CE000009AC3F8242500BF02B0704784B0019009
:107CF0000B46ADF80230BDF80230019A1344002261
:107D00001A60BDF80230019A13441B680393039B69
:107D100000BF04B0704782B001900B46ADF802304E
:107D2000BDF80230019A13441B68002B14BF0123D5
:107D30000023DBB2184602B0704782B00190009178
:107D4000019BD3F80022009BDB431A40019BC3F840
:107D5000002200BF02B0704782B001900091019BE9
:107D6000009AC3F8042300BF02B0704782B00190AC
:107D70000091019B009AC3F8082300BF02B070472E
:107D800084B00190019BD3F880340393019B039A44
:107D9000C3F88024039B184604B0704782B001905A
:107DA000019B0822C3F8002500BF02B0704782B0D3
:107DB0000190019B0022C3F8002500BF02B070476C
:107DC00084B0039002910192039B029AC3F80C25A0
:107DD000039B019AC3F8142500BF04B0704700B597
:107DE00083B001904FF0FF324FF0FF310198FFF761
:107DF000E7FF00BF03B05DF804FB82B00190019B78
:107E0000D3F80C35184602B0704782B00190019B40
:107E1000D3F81435184602B0704782B00190019B28
:107E2000D3F80835184602B0704782B00190019B24
:107E3000D3F81035184602B0704784B00390029111
:107E40000192039B029AC3F80825039B019AC3F889
:107E5000102500BF04B0704700B583B001904FF00B
:107E6000FF324FF0FF310198FFF7E7FF00BF03B08B
:107E70005DF804FB82B001900B468DF803309DF84D
:107E80000330019A134401221A6000BF02B0704708
:107E900082B001900B468DF8033013468DF8023006
:107EA0009DF803209DF802301343DBB21A46019B74
:107EB000C3F86C2500BF02B0704782B001900091FA
:107EC000019B009AC3F8242500BF02B0704784B01C
:107ED0000390029113468DF80730029A039BC3F872
:107EE00044259DF80720039BC3F8482500BF04B034
:107EF000704782B00190019BD3F84C35184602B010
:107F0000704782B00190019BD3F83C35184602B00F
:107F1000704700B583B003468DF807309DF90730F0
:107F20001846FFF7C3FD00BF03B05DF804FB84B043
:107F30000190019B1B0B8DF80F309DF90F301846F7
:107F400004B0704782B00190019B03F06043B3F12D
:107F5000005F0CBF01230023DBB2184602B070475C
:107F600000B583B00190019B1B681F2B04D9054904
:107F70004FF4E87000F0B2FE4FF0A043184603B093
:107F80005DF804FBD4D0020000B585B0019008462E
:107F900011461A4603468DF803300B468DF8023021
:107FA00013468DF8013001AB1846FFF7D9FF039057
:107FB0009DF803209DF802305B001A439DF80130C4
:107FC0009B001A439DF818301B0242EA03019DF8FA
:107FD0001C301B04019A1943039B02F5E07243F81D
:107FE000221000BF05B05DF804FB00B585B003901A
:107FF0000023019300230093002301220121039811
:10800000FFF7C2FF00BF05B05DF804FB00B585B007
:1080100003900B468DF80B309DF80B200023019345
:10802000002300931346002200210398FFF7ACFFC2
:1080300000BF05B05DF804FB00B585B003900023D8
:108040000193002300930023012200210398FFF7EE
:108050009BFF00BF05B05DF804FB00B585B0019043
:1080600001AB1846FFF77CFF0390019B012202FA47
:1080700003F31946039800F004F800BF05B05DF85B
:1080800004FB82B001900091019B009AC3F808257F
:1080900000BF02B07047000000B583B001900091AE
:1080A000009B1B68B3F1FF3F09D0009B1B6818467B
:1080B000FFF7D3FF009B1B681846FFF796FF009B56
:1080C0005B68B3F1FF3F05D0009B5B680021184659
:1080D000FFF79CFF019B1B79464A5B0113441C334D
:1080E0001B78002B41D0019B1A68009B9B691946A5
:1080F0001046FFF7E2FE019B1868009B597D009B2C
:108100001B7D1A46FFF7C4FE019B1868009B196887
:10811000009B5B681A46FFF753FE009B1B7D012BFB
:1081200064D1009B9B68B3F1FF3F05D0009B9B6827
:1081300000211846FFF76AFF009BDB68B3F1FF3FA1
:1081400009D0009BDB681846FFF787FF009BDB68C0
:108150001846FFF74AFF019B1868009BD968009BEF
:108160009B681A46FFF769FE40E0019B1A68009B76
:108170009B6919461046FFF7AFFD019B1868009BED
:10818000597D009B1B7D1A46FFF791FD019B1868E6
:10819000009B1968009B5B681A46FFF70AFD009B6D
:1081A0001B7D012B22D1009B9B68B3F1FF3F05D0C3
:1081B000009B9B6800211846FFF728FF009BDB68A7
:1081C000B3F1FF3F09D0009BDB681846FFF745FF7E
:1081D000009BDB681846FFF708FF019B1868009BAF
:1081E000D968009B9B681A46FFF720FD00BF03B0CB
:1081F0005DF804FB8829002000B583B001900B4690
:108200008DF80330019B1B792D4A5B0113441C330D
:108210001B78002B2FD0019B1B684FF488711846E8
:10822000FFF764FD019B1B684FF490711846FFF740
:108230005DFD019B1B684FF492711846FFF756FDD8
:10824000019B1B684FF4A2711846FFF74FFD019B7D
:108250001B681C491846FFF77FFD019B1B681846E9
:10826000FFF765FE03461A469DF80330194610468F
:10827000FEF7CCFD20E0019B1B684FF48E71184681
:10828000FFF72CFC019B1B684FF4A2711846FFF707
:1082900025FC019B1B680C491846FFF746FC019B17
:1082A0001B681846FFF743FE03461A469DF8033045
:1082B00019461046FEF7AAFD00BF03B05DF804FBA7
:1082C00088290020100302008000020000B583B05E
:1082D0000190019B1B79154A5B0113441C331B78E9
:1082E000002B0FD0019B1B6811491846FFF73EFD7C
:1082F000019B1B681846FFF71AFE03461846FFF756
:1083000008FE0EE0019B1B680A491846FFF727FC90
:10831000019B1B681846FFF70AFE03461846FFF745
:10832000F8FD00BF03B05DF804FB00BF8829002002
:10833000100302008402020000B587B00190019B87
:108340001B79364A5B0113441C331B78002B22D067
:10835000019B1B681846FFF750FD0590019B1B68A9
:108360001846FFF752FD0490019B1B681846FFF763
:1083700054FD0390019B1B681846FFF756FD0290C1
:10838000019B1B681846FFF72AFD019B1B681846D6
:10839000FFF762FD21E0019B1B681846FFF726FCF2
:1083A0000590019B1B681846FFF728FC0490019B71
:1083B0001B681846FFF72AFC0390019B1B681846B0
:1083C000FFF72CFC0290019B1B681846FFF700FC8E
:1083D000019B1B681846FFF738FC059BB3F1FF3F74
:1083E00002D00598FFF728FE049BB3F1FF3F02D0AF
:1083F0000498FFF721FE029BB3F1FF3F02D00298E1
:10840000FFF71AFE039BB3F1FF3F02D00398FFF77B
:1084100013FE00BF07B05DF804FB00BF88290020F1
:1084200000B583B00190019B1B790B4A5B0113449B
:108430001C331B78002B05D0019B1B681846FFF7E7
:10844000ADFC04E0019B1B681846FFF7A0FB00BFD2
:1084500003B05DF804FB00BF8829002000B583B09D
:108460000190019B1B790B4A5B0113441C331B7861
:10847000002B05D0019B1B681846FFF798FC04E011
:10848000019B1B681846FFF78BFB00BF03B05DF82C
:1084900004FB00BF8829002000B587B0039002913B
:1084A0000192029B002B04D122494FF4887000F006
:1084B00015FC039B1B795B011F4A134405930023A2
:1084C0000493059BDB7E002B03D008230493049BBD
:1084D0002BE0029B5A7F059B1A7702990398FFF7BE
:1084E000DBFD059B019A5A60029B1A69059B1A6085
:1084F000059B5B68002B05D0029B1B7F19460398E8
:10850000FFF77AFE0398FFF78BFF059B0022DA75D1
:10851000059B00221A76059B00229A75059B012275
:10852000DA76059B00229A76049B184607B05DF820
:1085300004FB00BF14D102008829002000B585B0DB
:108540000190019B1B795B010C4A13440393019832
:10855000FFF784FF039B5B68002B02D00198FFF7B5
:10856000B5FE0198FFF7E8FE039B0022DA76039B35
:1085700000225A6000BF05B05DF804FB8829002086
:1085800000B585B0019000914FF48E710198FFF70E
:10859000A5FA009B9B68009A928A92B213441B78BA
:1085A0008DF80F30009B9B8A9BB201339AB2009BDF
:1085B0009A829DF80F3019460198FFF75DFB00BFC6
:1085C00005B05DF804FB000000B585B00190019B8B
:1085D0001B795B01344A1344029300230393019BEC
:1085E0001B684FF48E711846FFF778FA019B1B68E1
:1085F00008211846FFF74DFB019B1B68029918469E
:10860000FFF7BEFF029B5B68002B48D11FE000BF55
:10861000019B1B684FF48E711846FFF774FA0346EE
:1086200083F00103DBB2002B05D0029B9B8A9BB237
:10863000B3F5807FECD1029B9B8A9BB2B3F5807F20
:1086400005D0019B1B6802991846FFF799FF029B12
:108650009B8A9AB2029B9B7D9BB29A42D7D3029B84
:108660009B8A9BB2B3F5807F02D10F23039313E063
:1086700000BF019B1B684FF48E711846FFF743FA49
:10868000034683F00103DBB2002BF2D1019B1B6890
:108690000C211846FFF7FDFA029B00229A75039BF6
:1086A000184605B05DF804FB8829002000B587B0A6
:1086B0000190019B1B795B012A4A13440493002318
:1086C0000593019B1B684FF490711846FFF70EFB52
:1086D000019B1B684FF4AC711846FFF707FB019B29
:1086E0001868049B9968049B9B7D1A46FFF7EFFB73
:1086F000019B1B6808211846FFF7BCFB049B5B68C5
:10870000002B2AD1019B1B684FF490711846FFF78C
:1087100002FB03468DF80F30019B1B684FF4AC71D0
:108720001846FFF7F8FA03468DF80E309DF80F3023
:1087300083F00103DBB2002B06D09DF80E3083F0EE
:108740000103DBB2002BDDD19DF80E30002B01D0F0
:108750000F230593049B00229A75059B184607B0CA
:108760005DF804FB8829002000B587B003900291D2
:1087700013468DF80730039B1B795B012E4A134487
:108780000493049BDB7E012B04D02C494FF4CC7066
:1087900000F0A4FA9DF80730002B04D1274940F2DD
:1087A000991000F09BFA029B002B04D123494FF44F
:1087B000CD7000F093FA039B1B791F4A5B011344B1
:1087C0001C331B78002B0CD00298FFF7BBFB034631
:1087D00083F00103DBB2002B03D010230593059B2C
:1087E00025E0039800F02CF80346002B03D011235A
:1087F0000593059B1BE0049B9DF807209A75049B3D
:10880000029A9A60049B00229A82039B1B790A4A6F
:108810005B0113441C331B78002B04D00398FFF733
:1088200045FF034603E00398FFF7CEFE03461846D4
:1088300007B05DF804FB00BF8829002014D10200B6
:1088400082B00190019B1B79064A5B0113441633E9
:108850001B78002B14BF01230023DBB2184602B0A3
:10886000704700BF8829002010B582B001900091A8
:10887000009BDB7D002B08D14FF484710198FFF73A
:108880002DF90198FFF7EFF916E04FF48471019884
:10889000FFF724F9009BDB68009A527ED2B29C1845
:1088A0000198FFF7E0F903462370009B5B7EDBB283
:1088B0000133DAB2009B5A7602B010BD00B589B020
:1088C00003900B4601928DF80B3001238DF8103088
:1088D0009DF80B308DF81830019B0593039B5B6866
:1088E000039A116804AA1046984700BF09B05DF8C2
:1088F00004FB00B587B001900B468DF803300023D0
:108900008DF808309DF803308DF81030019B9B687E
:108910000393019B00229A75019B5B68019A116881
:1089200002AA1046984700BF07B05DF804FB00B5E7
:1089300089B0019000914FF400710198FFF7FFF8A2
:108940000346002B39D04FF492710198FFF7DBF802
:108950000346002B31D04FF492710198FFF7BEF817
:108960004FF401710198FFF7FAF8009B9B7E83F0AA
:108970000103DBB2002B03D004210198FFF789F932
:1089800002238DF808300198FFF7F3F803460593AA
:10899000009BDB7D8DF81030009BDB680393009B10
:1089A0000022DA75009B00221A76009B5B68009A11
:1089B000116802AA1046984756E004210198FFF773
:1089C000BEF80346002B4FD04FF484710198FFF797
:1089D0009AF80346002B47D000990198FFF744FF0F
:1089E000009BDA7D009B5B7EDBB29A423CD1009B10
:1089F0001B7E002B1CD0009BDB680793009B5B7EDB
:108A00008DF81B30009B1A7E009BDA75009B1A695B
:108A1000009BDA60009B00221A76009B00225A76A7
:108A20009DF81B30079A19460098FFF747FF1BE097
:108A3000009B9B7E83F00103DBB2002B03D004215B
:108A40000198FFF726F94FF401710198FFF787F8B5
:108A5000009B0022DA75009B5B7ED9B2009BDB682D
:108A60001A460098FFF72AFF4FF48E710198FFF71E
:108A70004AF80346002B1BD0009B9B8A9AB2009BAE
:108A80009B7D9BB29A4204D200990198FFF778FD32
:108A90000EE04FF48E710198FFF720F8009B9B7D4C
:108AA000002B05D0009B9B7D19460098FFF721FF06
:108AB0004FF4A2710198FFF726F80346002B1CD053
:108AC0004FF4A2710198FFF709F8009B9B7E002BE1
