:020000022000DC
:10600000000001205D630200456302004763020057
:10601000496302004B6302004D6302000000000070
:10602000000000000000000000000000B531030087
:106030005163020000000000D531030055630200E7
:106040005996020057630200F99A02005763020052
:1060500095AA020057630200759902005763020077
:106060005763020057630200576302005763020040
:106070005763020057630200576302005763020030
:106080005763020049300300576302005763020060
:106090005763020057630200BD18030057630200F4
:1060A0005763020057630200576302005763020000
:1060B0005763020057630200000000000000000068
:1060C00057630200576302005763020057630200E0
:1060D000E56D0200576302005763020000000000F4
:1060E00000000000000000000000000000000000B0
:1060F00000000000000000000000000000000000A0
:10610000000000000000000000000000000000008F
:10611000000000000000000000000000000000007F
:10612000000000000000000000000000000000006F
:10613000000000000000000000000000000000005F
:10614000000000000000000000000000000000004F
:10615000000000000000000000000000000000003F
:10616000000000000000000000000000000000002F
:10617000000000000000000000000000000000001F
:10618000000000000000000000000000000000000F
:1061900000000000000000000000000000000000FF
:1061A00000000000000000000000000000000000EF
:1061B00000000000000000000000000000000000DF
:1061C00000000000000000000000000000000000CF
:1061D00000000000000000000000000000000000BF
:1061E00000000000000000000000000000000000AF
:1061F000000000000000000000000000000000009F
:10620000314932480A1A02D0072291438D4630495B
:1062100030480A1A06D00722914381F309880222E6
:1062200082F314882C482D492D4A00F03CF82D4863
:106230002D492E4A00F037F82D482E492E4A00F0FD
:1062400032F82E482E492F4A00F02DF82E482F49BB
:106250002F4A00F028F82F482F49304A00F023F841
:106260002F483049304A00F01EF8304830490022AB
:1062700000F024F82F483049002200F01FF82F4A80
:1062800090471F481F49884205D00268043003B474
:10629000904703BCF7E700208646EC46002000212B
:1062A000274A9047FEE7884207D0521A05D0037864
:1062B00001300B700131013AF9D17047884202D0A8
:1062C00002700130FAE770470000012000E0002072
:1062D000000001200000012084760300B42D00207E
:1062E000183A0020B8630200B8630200D0490300E6
:1062F00084760300B42D0020B42D0020B84B030099
:10630000B84B0300B84B0300B84B0300B84B030075
:10631000B84B0300B84B0300B84B0300847603006E
:10632000E8820300183A0020183A0020183A0020AA
:10633000206300202063002020630020856302008A
:1063400035B20200FEE7FEE7FEE7FEE7FEE7FEE706
:10635000FEE7FEE7FEE7FEE700F002B8FFF7FCBF4E
:106360000F484FF00701884385460E4880470E4886
:10637000016841F470010160BFF34F8FBFF36F8F6D
:10638000FFF73EBF09480A490A4A884207D0521A15
:1063900005D0037801300B700131013AF9D1704713
:1063A000000001204990020088ED00E0A44B0300AA
:0863B000A02D0020B42D0020F7
:1063B800F0B595B01C46164608460D4602F06AFB35
:1063C8001A9B0D93CDE9086400242346082205A9E9
:1063D80028460A948DF82C400C9402F078FB079B11
:1063E8000293069B03939DF814308DF8114003F037
:1063F8000302012A1DD1BDF81440059EC3F3C20350
:10640800C4F383148DF81030A20008230EA928467F
:1064180002F05DFBC6F3952608AB0093224602AB5B
:106428000EA9304600F09CFB284602F037FB15B059
:10643800F0BD022AF8D1BDF81640C3F3C203A4097F
:106448008DF810300827082C264628BF08263B461A
:1064580032460EA9284602F03AFBA41B08AB02AA52
:1064680031460EA8374400F0DFFB002CEBD1DBE708
:10647800014B01221A707047593A002070470000FA
:1064880070B50E4D06460FCD88B06C460FC495E822
:106498000F00002E84E80F004FF00603084A094851
:1064A800009308BF0022694603F01AF808B100F00B
:1064B80015FC054B1E7008B070BD00BFB84B03003B
:1064C80079640200B42D0020183A002007B5044B67
:1064D8000093044A4023FFF76BFF03B05DF804FB09
:1064E800F1640200193A002038B50D4B0D4D00201B
:1064F80018700D4804782D5DD2B21C4665B1043081
:1065080003F0FEFF08B100F0E9FB084B1A7812B15E
:106518002378002BFBD038BD0C3003F029FDF1E7C0
:10652800593A002098410020B42D0020183A002044
:1065380008B50848084A0378D35C3BB1043003F037
:1065480069FF0020BDE80840FFF79ABF0C3003F050
:10655800ABFCF6E7B42D002098410020037813F037
:10656800040216D003F00303012B03D0022B09D039
:10657800012070470A6800880232C0F38310024481
:106588000A60F5E70B684288023303EB92130B604D
:10659800EEE71046704700002DE9F04F87B0002362
:1065A8000446851C0DF107000F4690468DF807300C
:1065B80000F0DAFB454806683E60D0E90132134432
:1065C80001339B1B824600F21C4600F5836900F2EA
:1065D8001447AB421BD30022B8F1000F70D005233B
:1065E80063F3070264F38912DAF80010DAF8083066
:1065F8009DF807000B4003330D444AF82320CAF8DE
:10660800005000F0D5FB012007B0BDE8F08F012154
:10661800304601F09FFC484601F0B5FC384601F0D1
:10662800B2FCDAF80400DAF808B0029000EA0B00CD
:1066380003300AEB800002A9FFF790FF029B50BBD2
:106648000BEA03020AEB820203F1020CD2680392FE
:10665800013303EA0B0B0AEB8B0B02F00302012A4E
:10666800CDF808C0DBF80C1022D0022A16D08346D9
:10667800384601F08BFC10B1029BCAF80430594629
:10668800304601F067FCDAE901231344DAF8002008
:1066980001339B1A9DE70BEA0300C9E7BDF80E30EA
:1066A8009B0903334FEA114B0CEB93030293DFE78B
:1066B800BDF80C30C3F383134FEA114B6344F5E77D
:1066C800062363F3070264F39F528DE72C3B0020F7
:1066D80030B50A4C71B10A4A0A49121BD208002384
:1066E8009A4201D1002030BD31F82350854202D0B2
:1066F8000133F5E7034654F83300F4E75C4A030036
:10670800444B0300A02D0020094B013903EBC000C6
:10671800032909D8DFE801F00A02040604207047BB
:106728000079704740797047002070470220704711
:106738005C4A0300034BD3E90030C31A584258415E
:10674800704700BF2C3B00202DE9F04387B0FFF7CE
:10675800F1FF0646002840F0FB807E4DC5F818047E
:10676800BFF34F8F6868AC6802902040033005EB98
:10677800800002A9FFF7F2FE029B18B1D5F8182491
:10678800002A5FD004EA0302991C013305EB820258
:10679800234005EB8303D268DB68049302F003030C
:1067A800022B0392029162D1BDF80E306A484FEA7B
:1067B8009318B8F1500FC14628BF4FF0500969F33C
:1067C8008F1309F10801ADF80E3002F034F90746CD
:1067D800002800F0A88002F05DF903A90023082230
:1067E800384602F06AF9029924EA01060136B60031
:1067F800B14535D95FFA89F97EB3F6B2A9EB060936
:10680800214003315FFA89F4B146544E05EB81010A
:1068180008234A46384602F050F936B109F1080310
:1068280022463146384602F048F9029B08F103082F
:1068380003EB98030293D5F81834002B4BD1D5F805
:1068480010445BE02A689A4204D86A60304607B070
:10685800BDE8F08304EA030088E740493446D7E7F7
:106868002140033108234A4605EB8101DAE7012B71
:1068780059D1BDF80C303848C3F38311062928BF15
:10688800062161F3891302318900ADF80C3002F05A
:10689800D2F80746002846D002F0FCF80023082268
:1068A80003A9384602F009F90026BDF80C20C2F306
:1068B8008312B300964203F10803BCD202994A1C22
:1068C80021400331029205EB81010422384602F08F
:1068D800F4F80136E9E7384602F0E0F8FFF72AFF56
:1068E80080F00100C6B2B1E7E3685B7923B12368A1
:1068F80039461B6820469847E3681C68002CF3D18A
:10690800384602F0CBF80DF107008DF8074000F08B
:106918002BFAD5F818340BB9029B6B609DF8070069
:1069280000F046FADAE7D5F8104454B90C4B0D4894
:106938000D49C01AC008000440F0020000F06EF8CB
:10694800CCE7236820469B689847E3681C68ECE717
:1069580000267BE72C3B0020444B0300383B0020FB
:106968005C4A0300844A0300F54B03002DE9F74F06
:10697800284C80460F46924601A9012218469B469C
:10698800D4F80890FFF708FE80B3019D0026A91CE3
:106998005E4506EB010233D100211F4801F099FA48
:1069A80080F310006A1C02EA090204EB8202000468
:1069B80005EA0903033340EA1840D06014F823209D
:1069C80068F3C50204F8232034F8232066F38912FB
:1069D80024F8232054F8232067F39F2244F8232027
:1069E80002F0F80242F0010204F8232094F820345F
:1069F8001BB1FFF7A9FE0028FBD103B0BDE8F08F5B
:106A080009EA020204EB82025AF82630D360013602
:106A1800BEE700BF2C3B0020483F002000231A4659
:106A2800FFF7A4BF07B50123019201AAFFF79EFF54
:106A380003B05DF804FB07B5CDE9002302236A46DD
:106A4800FFF794FF03B05DF804FB1FB5CDE9012300
:106A5800069B039301AA0323FFF788FF05B05DF89F
:106A680004FB1FB5CDE90023069B0293079B039304
:106A78006A460423FFF77AFF05B05DF804FB0000BF
:106A8800094A38B50123D2F8104482F820341D464B
:106A980004B938BDE3685D71236820465B68984790
:106AA800E3681C68F4E700BF2C3B0020037A052B41
:106AB80010B50C460FD0437A23B1084A084920463E
:106AC80001F0C7FA0749204601F0C3FA2046BDE89D
:106AD800104001F0B3BA002AF8D0F3E73F4C0300A6
:106AE8005F6803006C570300C38873B504460D46FE
:106AF80033B1144A00921449144A284601F0A9FAFD
:106B0800217A05291CD0637A4BB1A088FFF7FCFDD8
:106B18000F4B104953F82020284601F09AFA227AA0
:106B28000D4BA08853F822600021FFF7D1FD0B49D7
:106B380003463246284602B0BDE8704001F089BAE3
:106B480002B070BD3F4C03004C4C0300444C0300A2
:106B58000C4C03005F680300704C0300644C030096
:106B68002DE9F04385B01F460C9D002306460C46D0
:106B7800904695F80C902B7329463846FFF7B4FFDA
:106B8800B8F1060F09D8DFE808F00412181F2833F7
:106B980040003146284601F05CFA00222946384672
:106BA800FFF784FF85F80C9005B0BDE8F0832268F4
:106BB8003146284601F04DFAEFE7D4E90023314683
:106BC800284601F046FAE8E7A36800933146D4E97D
:106BD8000023284601F03DFADFE7E3680193A36844
:106BE80000933146D4E90023284601F032FAD4E76D
:106BF80023690293E3680193A36800933146D4E9BB
:106C08000023284601F025FAC7E76369039323693F
:106C18000293E3680193A36800933146D4E9002303
:106C2800284601F016FAB8E708292DE9F84F8046FA
:106C38000E4617461C463AD8002593F80C901D734B
:106C480019461046FFF750FFDFF884A0DFF884B03C
:106C5800AE422ED918F805205946204601F0F9F918
:106C68000135082DF4D11849DFF86CB0204601F041
:106C7800F0F94FF0000A564520D918F80A507E2D31
:106C880003D828460DF0BAF900B92E252A465946E8
:106C9800204601F0DEF90AF1010ABAF1080FEAD13B
:106CA800012221463846FFF701FF84F80C90BDE821
:106CB800F88F5146204601F0CCF9D1E70349204628
:106CC80001F0C7F9E7E700BF3A4C0300384C03006E
:106CD800364C0300304C03003C4C03001FB5002128
:106CE800039001AA44F20100CDE9011100F004F873
:106CF80005B05DF804FB000010B572B6FFF7C0FEE2
:106D0800FFF722FD0028FBD1104B114C1149E41A62
:106D1800E408240444F00100FFF780FE0E4B1B68D2
:106D2800DB0700D500BE0D4944F00200FFF776FEF0
:106D3800BFF34F8F0A490B4BCA6802F4E062134352
:106D4800CB60BFF34F8F00BFFDE700BF5C4A030075
:106D5800844A0300CF4C0300F0ED00E0DB4C030055
:106D680000ED00E00400FA0570B5EFF3108672B686
:106D78000C4A946801239CB993600B4B0B4DD3F8D4
:106D8800801029401160C3F88050D3F884105160F6
:106D98004FF0FF32C3F88420047006B962B670BDA4
:106DA8000370FAE7503F002000E100E0FC06FFBD59
:106DB800084B9A6810B55AB150B9EFF3108172B602
:106DC800054A1C6814605C685460986001B962B632
:106DD80010BD00BF503F002000E100E0024B034A15
:106DE8001B681068184700BF643F00205C3F002004
:106DF80070B5064D0646002455F8043B0BB13046E5
:106E080098470134042CF7D170BD00BF743F0020AF
:106E1800033080B240F2FE33984230B51FD8134B8E
:106E28001A783AB91C895D892C440444A4B2B4F593
:106E3800806F0AD91A7DAAB99A8BDC8B2244024446
:106E480092B2B2F5806F0DD801220A80144614223E
:106E580002FB04335A8910445881002030BD48F29F
:106E68000860FBE748F20660F8E700BFA83F00208B
:106E78000B4A0C4B5188142000FB0131CB6833B905
:106E88000420496810700122074801F065BB0523FA
:106E98000649137002238B80012200230968F3E757
:106EA8008C3F0020A83F0020A02D0020704000202B
:106EB80007B5002305490093054A096805480823D2
:106EC80001F0B4FA03B05DF804FB00BF7040002085
:106ED800F44C0300A02D002007B5002300930146C1
:106EE8000823034A034801F0A1FA03B05DF804FB44
:106EF800EC4C0300A02D002013B500230C46009392
:106F080001460423074A084801F090FA38B9074BAC
:106F1800142202FB04340123237402B010BD48F28A
:106F28000D60FAE7E84C0300A02D0020A83F0020E0
:106F380037B50A480A4B42689C8819685388032564
:106F4800033305709BB2002000909B0001EB840185
:106F5800044801F06BFA03B030BD00BF8C3F00203D
:106F680070400020A02D002010B50146044800F014
:106F7800E4FE1C22044600210DF0F8F8204610BD5E
:106F88005C40002068B10268084B9A4209D1406809
:106F9800074B984207D0013398420CBF01200320C9
:106FA8007047032070470020704700BFDEC0ADDE89
:106FB800FE011EF14388033300EB830399420BD390
:106FC80082884FF6FF739A4208D0038833B18068ED
:106FD800431C5842584170470220704701207047AF
:106FE8002DE9F8430223DFF860800B800D46174631
:106FF80000F5805600F108044FF00109B4420FD2A1
:10700800236801330CD031462046FFF7D3FF48B13F
:107018000FB187F8009002280BD14FF480632B80C2
:10702800BDE8F883A368D8F80020934201D9C8F8CE
:1070380000302B886288033313442B806388033322
:1070480004EB8304DAE700BFA03F0020154A1423AD
:1070580003FB002070B50B6844680D4604F58056A4
:10706800ABB15C88033403EB8404B4420DD22368CB
:1070780001330AD031462046FFF79CFF01280BD088
:1070880010F0FF0F05D00228EFD1002003E00834EC
:10709800EBE72C60012070BD6388033304EB8304A5
:1070A800E3E700BFA83F0020436873B504460D46D8
:1070B8006BB3244AD1688B4229D31269934226D8EC
:1070C80013F0030023D1204A2189128991421ED14D
:1070D80021689A6891421AD11C4A51688B4203D997
:1070E80001F580518B420DD3926993420CD902F578
:1070F8008052934208D201232B80B0FA80F04009D5
:1071080002B070BD0346F7E748F20960F5E70023CF
:107118002B801E46019601A92888FFF797FF30B9F2
:107128002B8801339BB2012B2B80F3D9E8E7019B15
:10713800226899689142EED16360034B1B892381D1
:10714800DEE700BFA02D00208C3F0020A83F0020D4
:107158002DE9F8431C461D4B1B7806460F4615467D
:1071680073B382B37CB3DFF86C804FF01409A38843
:10717800012B02D948F2096020E009FB03F318F853
:1071880003302BB92146A088FFF760FF20B92060A3
:10719800A3880133A380EAE723681EB1998832885F
:1071A8009142EFD11FB119883A889142EAD19A6881
:1071B800C5E90023064B1B892B810020BDE8F88315
:1071C80048F20160FAE748F20460F7E7843F0020DC
:1071D8008C3F0020A83F002008B5074B191D588890
:1071E800FFF734FF18B1BDE80840FFF7A1BEBDE8BE
:1071F8000840FFF73DBE00BF8C3F00202DE9F04F4F
:10720800A34FDFF8B09289B00646B8463B6823B969
:107218004946A04800F0CBFD3860D8F800502978DE
:107228004B1E052B00F2FE80DFE813F0060060001D
:107238006000F200F20064012EB1974B00225A6000
:107248004FF40644F0E02B79032B1DD8DFE803F058
:1072580015022B3691490B78022B08461AD00B7D64
:10726800022B4FF0010317D114225343C2180020F8
:10727800C8545068FFF730FE03E001232B71FFF775
:1072880017FE002800F0BE80834B00225A6048F2A7
:107298000D64C9E00023E7E77F4A137000235360B9
:1072A80041F61D54C0E07E497E48002302222B711E
:1072B8008A800122096801F04FF9E2E7784C00263C
:1072C8002E712068754DFFF707FE774BD4F800C084
:1072D8005A8814235343EA18EE5451682160A18850
:1072E800C2F804C011810222A280CAE7B5F814A02E
:1072F800AA7DDFF8A8B1AEB1022AEB8806D914211D
:1073080001FB0AB1DA1C088902440A81142202FB33
:107318000ABAC3F57F43BAF80A20FD331344AAF822
:107328000A308DE7142303FB0AB318895C6804EB61
:107338008004062A69D8DFE802F0274E36441D5A31
:10734800040041F61D54AA7DEB88022A06D91421AF
:1073580001FB0AB1DA1C088902440A81142202FBE3
:107368000ABAC3F57F43BAF80A20FD331344AAF8D2
:107378000A3059E04D484E4900234360AB69036029
:10738800FFF792FE002874D00223AB750023009308
:107398000423EA182146434801F048F8002831D070
:1073A80048F20D64CFE72B69002B14BF0323012398
:1073B800AB750023009305F10C02042304F10801C6
:1073C800E9E70123AB750022EB8800929B002A694C
:1073D80004F10C01DFE703290CBF05230623AB7575
:1073E80000230093042305F10802E118D3E70623DC
:1073F800AB752F4B19882D4B5868FFF77DFD044658
:107408000028A0D109B0BDE8F08F48F20E649AE7D1
:10741800002E7FF415AF2B79012B4DD0EBB1022B49
:107428003FF43EAF48F20E641422002103A80CF08A
:107438009DFE41F61D539C4208BF0024D8F8003039
:1074480004941A78023A042A00F20881DFE812F05C
:10745800E900F50018012001270102232B710DF125
:107468000A01EB68039303A8CDE90466FFF71CFE45
:1074780010B948F20964D7E70498BDF80A10838860
:10748800EB8003882B81FFF737FD044629E000BF16
:10749800A43F00205C400020843F0020A83F00203B
:1074A80070400020A02D00208C3F0020683F002065
:1074B8007C4000209C3F0020DFF800A203AA53462E
:1074C8003146A81DFFF744FE044668B9BAF804100F
:1074D8000498FFF711FD044648F209639C423FF403
:1074E800DFAE002CA0D18DE70822314650460CF0C3
:1074F8003DFEF1E7002E7FF4A3AE6B4B1A7BAAB1D9
:107508001E731A78013A062A8CD801A151F822F084
:10751800BF750200E57502000376020009760200D5
:107528002D7402000F760200217602001A78072ACD
:10753800E7D801A151F822F0617502000B7502002D
:107548000B750200877502009B750200BB7502006F
:10755800BB750200837502001A89544901321A81E9
:1075680000225A801A730A78B2FA82F252099A7281
:107578000A7DB2FA82F25209DA72012207E04C4916
:1075880058688A884088033202448A8002221A7026
:10759800B7E7464C5A884649142505FB0242086855
:1075A800546850608888108102228A800C60062204
:1075B800EDE70722EBE79A7A32B9DA7A8AB900223C
:1075C8001A705A805A606BE6384900229A72CA6863
:1075D800002AF2D1097C0029EFD05A80FFF7FCFD80
:1075E80053E70022DA72314A116A0029E7D192F88A
:1075F8002420002AE3D00122EFE7FFF799FC44E7B3
:10760800FFF736FC41E7294A5B88142101FB032375
:107618005868FFF761FC38E700225A60FFF748FC1A
:1076280033E701228DF80C201A89ADF818209A88C2
:10763800DB68ADF81A20059310E002228DF80C20C3
:107648001A89ADF818209A88ADF81A20DA689B7D57
:1076580005929A1F534253418DF81C3003A8FFF737
:10766800C7FB002649461348C8F8006000F0CAFB6B
:107678000121114800F079FC00287FF4C7ADC1E66C
:1076880003228DF80C20DA88ADF818201A89CFE784
:107698000422DB888DF80C20ADF81830DEE70523CE
:1076A8008DF80C30DAE700BF8C3F0020A83F00209F
:1076B800704000205C4000206C400020804000208A
:1076C8004068FFF79BBD000008B50121044800F0A1
:1076D80036FC18B9BDE80840FFF790BD08BD00BFEB
:1076E8006C4000202DE9F3419846374B1B7806463D
:1076F8000D46002B5CD000295DD009884FF6FF733A
:1077080099425BD06B88002B58D06B689B0758D187
:107718004AB92F890DF102013846FFF779FB30B1DC
:1077280002B0BDE8F08113885788ADF8023001A88F
:10773800FFF71AFC044660B9BDF80230234A142149
:1077480001FB032358890338C01B588148F207609E
:10775800E6E700238375BDF8023083826B68036116
:1077680080F8008001211A4800F0F4FB2B8823815F
:10777800B8F1030F6B88A38004BF0423A3754FF0EF
:10778800000508BF3368E06008BFA361E780658132
:1077980001A9104800F0FBFA36B1E36833600E4BDC
:1077A80075601B89B5723381FFF78EFF0020B7E73C
:1077B80048F20160B4E748F20460B1E748F20360B8
:1077C800AEE748F20260ABE7843F0020A83F002004
:1077D800A03F00205C4000208C3F002008B5084BEB
:1077E8001A68042A09D01968064A42F821000121BA
:1077F800184600F0AFFB002008BD48F20B60FBE71D
:1078080078400020743F00202DE9F04F89B0142201
:10781800002103A80CF0AAFC784A137803F0FF01B2
:10782800009190463BB103A8FFF7E2FA00273846DB
:1078380009B0BDE8F08F101D00F0A2FB0028F5D1BB
:1078480040F6F8734FF080521B685C1C08BF6C4B05
:107858006C4C08BF1B6811695269581C08BF02FBB1
:1078680001F323610022A3F540536749E3602046F2
:1078780000F0A8FD019407460028D8D11C238C22CB
:1078880062496348DFF89CB100F022FABA463D46E7
:107898004FF003093C46019BDE6856443046FFF72B
:1078A80071FB012860D042B2002A4AD0032827D1B0
:1078B8003268531C02D0574B9A4234D1321D06F518
:1078C8008051106801302ED104329142F9D1DBF891
:1078D80000203AB902220123CBF80060ABF804205B
:1078E80000930BE0142262434B4B022099189854E2
:1078F8004A4A4E60548001340881A4B245F001051B
:107908000AF5805ABAF5405FC5D1B9F1010F98BFA1
:107918000025EDB2022D03D0062D44D0002D4CD108
:1079280048F20A6783E73C4914226243881809F140
:10793800FF394660032088541FFA89F90134A4B23C
:10794800DEE735491420604301EB000C0A5400F1CE
:10795800100208300A44CCF8046001443046FFF7AE
:107968003FFB45F00205E9E7009B6BB12A4B142267
:107978006243991802209854DBF800204A60274A8D
:10798800088154800134A4B200222549CBF8006054
:107998003046FFF725FBBBF80420022A0CBF04225F
:1079A80008221543ACE7012388F8003003A8002318
:1079B800C8F80430FFF71CFA39E702A8FFF7D4FA31
:1079C800C8B10123013D03700A2D09D8DFE805F08D
:1079D80006080608070807080F110F00002303719F
:1079E80002A90B4800F0D3F9FFF76EFE1FE7032347
:1079F800F5E70223F3E748F2076718E7843F00201A
:107A080014100010A02D0020E84E0300D03F0020E5
:107A18005C400020DEC0ADDEA83F00208C3F002087
:107A2800744000207040002073B50D460446C8B16C
:107A3800C1B10DF10601FFF737FBB0B10C4BBDF832
:107A480006006668142202FB003001210C3000F0A9
:107A580081FA63682E600C336B600123A3720020E7
:107A680002B070BD48F20460FAE748F20960F7E72F
:107A7800A83F002013B50446A8B10DF10601FFF791
:107A880013FB98B10C4ABDF80630142101FB0323FF
:107A9800DA6872B1A27A62B1DA680020013ADA6073
:107AA800A07202B010BD48F20460FAE748F209601B
:107AB800F7E748F20560F4E7A83F00200223002218
:107AC800FFF710BE18B103230022FFF70BBE48F2E0
:107AD80004607047114B1B7813B50446ABB14FF6E1
:107AE800FF73984214D001A8FFF73EFA98B1052316
:107AF800037001230371C48001A9094800F047F904
:107B0800FFF7E2FD002002B010BD48F20160FAE77D
:107B180048F20360F7E748F20760F4E7843F002083
:107B28005C4000200F4B1B7807B5A3B101A8FFF7F5
:107B38001BFA98B10623037001A90B4800F027F936
:107B48000A4B1A780AB101221A73FFF7BDFD00200B
:107B580003B05DF804FB48F20160F9E748F20760FA
:107B6800F6E700BF843F00205C4000208C3F0020E7
:107B780007B5ADF80600ADF804100DF1060001A92F
:107B8800FFF7E6FA03B05DF804FB07B51346ADF856
:107B980006000A4600200DF10601FFF7D9FA03B0E6
:107BA8005DF804FB07B51346ADF806000A460DF16B
:107BB80006000021FFF7CCFA03B05DF804FB20B102
:107BC80019B103680B600020704748F204607047E1
:107BD8002DE9F84F3C4B1B780446002B6ED000284B
:107BE8006FD012220021DFF8E4A00CF0BFFA0323C3
:107BF80023804FF0000BD04614274FF00109DAF824
:107C08000410BAF80A50BAF808600846FFF7BAF93B
:107C1800032808BF2388628804BF03F1FF33238049
:107C280007FB0B832E44DB681344638023891D44C0
:107C380063892581B6B233446381C6F58066A3891A
:107C4800B6B2B34238BFA68101F1080501F58056E6
:107C5800AE4217D92B68013314D031462846FFF7B6
:107C6800A9F9012819D010F0FF0F23D00228EFD16D
:107C7800E38884F81090761BE589013305EBA605A7
:107C8800E380E5810AF1140ABBF1000F02D000205D
:107C9800BDE8F88F4FF0010BB1E7E3880133E380CB
:107CA800E3896A8803331344E3816B88033305EB64
:107CB8008305CDE7A3880133A380F6E748F2016086
:107CC800E6E748F20460E3E7843F0020A83F00208D
:107CD80010B561B1B2FBF3F403FB1424A4B244B9A8
:107CE800C0E9001484608281C381204610BD0E2043
:107CF800FCE70920FAE782B050E8022FC188B2EB0E
:107D0800324F4FF0000317BF92B241EA014142EAF5
:107D1800014104E04268B2EB324F08BF012340E85A
:107D28000212002AE8D18DF807309DF80730002BA1
:107D38000CBF1120002002B0704737B550E8013F52
:107D48009DB2C48925448489A54228BF2D1B048976
:107D5800A54202BFBFF32F8F002207E0C5EA030543
:107D680040E80154002CE9D14FF001028DF80320BE
:107D78000193019B9DF803200B6002F0FF0322B1E1
:107D88000B880068184403B030BD1846FBE70A8822
:107D98004B889A4209D150E8012FC2EA024240E8D2
:107DA8000123002BF7D1012070470020704737B519
:107DB80050E8023F1FFAA3F5C488A54202BFBFF3EB
:107DC8002F8F00220DE0C48925448489A54228BF4D
:107DD8002D1BC3EA054540E80254002CE8D14FF0BA
:107DE80001028DF803200193019B9DF803200B608D
:107DF80002F0FF0322B14B880068184403B030BD7D
:107E08001846FBE70A884B889A4209D150E8022FA6
:107E1800C2EA224240E80223002BF7D10120704732
:107E28000020704701F01F024B090121914000EB2F
:107E3800830000F063B84B0910B501F01F0401215D
:107E4800A14000EB830000F04EF8E04000F0010094
:107E580010BD01F01F0301229A404B0900EB83007B
:107E6800D14300F061B84B0901F01F0150F823001D
:107E7800C84000F0010070472DE9F0474E1E760912
:107E880080460F460136002558F8254008EB85093D
:107E9800E44394FAA4F4B4FA84F44FEA451A202C83
:107EA80006D10135AE42EFD83C462046BDE8F08702
:107EB8005444A742F5D921464046FFF7BCFF0028A5
:107EC800F3D0D9F80040E44394FAA4F4B4FA84F463
:107ED800E5E750E8002F0B4640E8003C9CF0000F17
:107EE800F7D11046704750E8002F42EA010340E8F6
:107EF800003C9CF0000FF6D11046704750E8003F58
:107F080043EA010240E8002C9CF0000FF6D110462D
:107F1800704750E8002F02EA010340E8003C9CF05B
:107F2800000FF6D11046704750E8003F03EA0102FF
:107F380040E8002C9CF0000FF6D11046704750E83E
:107F4800002F02EB010340E8003C9CF0000FF6D143
:107F58001046704750E8003F03EB010240E8002C50
:107F68009CF0000FF6D11046704750E8003FA3EB95
:107F7800010240E8002C9CF0000FF6D11046704733
:107F88000121FFF7B0BF0121FFF7B8BF0021FFF7BC
:107F9800C0BF10B590B1D0E9012301689B1ADBB2CC
:107FA8000A60013BDBB2FF2B026802D1002010718E
:107FB80010BD11684C1C14600B70F2E70E20F7E737
:107FC80037B5054600240DF107008DF80740FEF788
:107FD800CBFE2A686B68116899420ED9481E10605A
:107FE80011F8014CEB68298A01FB0434AB6811795C
:107FF8001B1ADBB2994238BF13719DF80700FEF7D0
:10800800D7FE204603B030BD37B5054600230DF135
:1080180007000C468DF80730FEF7A6FE2A6813689D
:10802800591C1160E968641A298AB4FBF1F41C70C0
:108038009DF80700FEF7BCFE03B030BD826810B59E
:1080480004462AB143690168006998470023A36080
:1080580010BD0EB403B5039921B104AB01AA019375
:1080680000F074F802B05DF804EB03B070470A2919
:1080780038B504460D4602D10D21FFF7F8FFA36875
:108088002268591CA160D554D4E901329A4204D31C
:108098002046BDE83840FFF7D1BF38BD2DE9F84F7D
:1080A8009946DDE90A431746824688460A4601266C
:1080B800BA420FD24E4538BF4E4613F0010B01D1DC
:1080C80064B900240125B9F1010F1AD909F1FF3962
:1080D8007D43F8E7B2FBF7F20136E9E79B070ED5D7
:1080E800B9F1000F0CBF30252025A642EAD2013C89
:1080F80029465046FFF7BBFF002CF6D1E1E72025C3
:10810800F3E7B8FBF5F39F42E2D9DFF83C90B8FB00
:10811800F5F3504619F8031005FB1388FFF7A7FF7E
:10812800B5FBF7F3BD4207D2BBF1000F02D00CB18B
:10813800A64203D3BDE8F88F1D46E8E72021504644
:10814800013CFFF794FFF2E7FC4C03002DE9F74FE1
:10815800054617468846002900F0308118F8011BAB
:1081680049B92B7B002B00F02981284603B0BDE8D4
:10817800F04FFFF763BF252940F0C080002698F82C
:1081880000302D2B424608F1010823D0302B24D093
:108198002B2B25D000242A2B02F1010123D13B6887
:1081A8001A1D1B683A601C440A4613782E2B26D1E8
:1081B80001324FF00009104610F8011BA1F1300CF4
:1081C800BCF1090F1DD80A2303FB0913A3F13009D9
:1081D8000246F0E746F00106D1E746F00206CEE790
:1081E80046F00406CBE711F8013CA3F1300009285A
:1081F800DBD80A2202FB0434303C0A46CBE74FF0B6
:10820800000912F8011B01F0FB0068289046F8D01D
:1082180069290ED04AD8582964D006D825296DD0A6
:1082280098F80030002B99D19BE7632962D0642924
:10823800F6D13A68D2F800A0111D8AEAEA723960CC
:10824800A2EBEA724FF0010B092A5BDCCB4538BF81
:10825800CB462CB1BAF1000F01DB720700D5013C07
:10826800B30702D5B9F1000F04D0F00702D4002CEF
:108278004ED10024BAF1000F52DACAF1000A2D21BA
:108288002846FFF7F4FE06F00302022A05D1B9F1E9
:10829800000F02D1002C47D10024CDE900464B46FF
:1082A8000A2251462846FFF7F9FEB9E773294CD050
:1082B80014D87029B4D13B681A1D3A603021284679
:1082C8001C68FFF7D4FE78212846FFF7D0FE00226D
:1082D8000823CDE9003221461022E3E775292BD087
:1082E80078299DD139680A1D3A60CDE900464B4688
:1082F800102228E03B681A1D19783A602846FFF7D3
:10830800B6FE8DE70A230BF1010BB2FBF3F29BE7F4
:10831800A345AFD220212846013CFFF7A8FEA6E7D7
:108328007107B0D52B21ABE7A345B6D2302128463B
:10833800013CFFF79CFEADE73968CDE900460A1D10
:108348003A604B460A220968ACE73B681A1D3A6056
:1083580016F00106D3F800A020D1BAF1000F03D01F
:1083680050460BF05DFF0646B44200D9C4B90AF185
:10837800FF3A1EE028460136FFF779FE1AF8061084
:108388000029F7D1A642BFF44BAF002C3FF448AF09
:1083980020212846013CFFF76AFEF3E70026EDE7B7
:1083A80020212846013CFFF762FEDDE72846FFF75B
:1083B8005EFE1AF8011F0029F8D131E703B0BDE8C5
:1083C800F08F000007B50B4688B9124B1248134AC4
:1083D800C01A0E23C0080093114B0004114940F045
:1083E8000100FEF732FB0E2003B05DF804FB4BB929
:1083F800084B09480C4AC01AC0080E230093000411
:10840800074BEBE703601B68114603B05DF804EB0C
:10841800184700BF5C4A0300C44A0300B94D030073
:108428000C4D0300BE4D0300354E03002DE9F3410A
:1084380088B93D4B3D483E4AC01AC0080E243D4B02
:10844800009400043C4940F00100FEF7FEFA204683
:1084580002B0BDE8F0814AB9334B3448374AC01AF4
:10846800C0080E2400040094324BEBE7D0F800C09B
:10847800BCF1000F09D12C4B2C48314AC01AC00856
:108488000824000400942B4BDCE74BB9264B274803
:108498002C4AC01AC008092400040094254BD1E7CF
:1084A8004768D7F80480B3FBF8F708FB17374FB1D4
:1084B8001D4B1E48244AC01AC00809240004009411
:1084C8001C4BBFE78F0709D0174B18481F4AC01A23
:1084D800C008102400040094164BB3E712F0030FF1
:1084E80009D0114B11481A4AC01AC00810240004B8
:1084F8000094104BA6E7C768B9420BD34C1E056918
:108508001C44AC4206D8DCF80C40A44602B0BDE8D6
:10851800F0416047044B05480E4AC01AC0081024B1
:1085280000040094034B8DE75C4A0300C44A03002F
:10853800B94D03001E4D0300BE4D03003B4E030022
:108548002F4E0300EE4D0300414E03006B4E030017
:10855800834E0300A64E0300F7B580B92A4B2B487B
:108568002B4AC01AC0080E242A4B009400042A493A
:1085780040F00100FEF769FA204603B0F0BDD0F8DC
:1085880000C0BCF1000F09D11F4B2048234AC01A74
:10859800C0080824000400941E4BE8E74AB91A4BA7
:1085A8001A481F4AC01AC008092400040094194B2D
:1085B800DDE74768D7F800E00EF1FF370F4209D032
:1085C800114B1248174AC01AC0081024000400941E
:1085D800104BCCE7C768B9420CD34C1E05690EFB9B
:1085E8000244AC4206D8DCF81040A44603B0BDE80B
:1085F800F0406047044B05480B4AC01AC0081024D5
:1086080000040094034BB2E75C4A0300C44A030029
:10861800B94D0300314D0300BE4D03002F4E03003A
:10862800EE4D0300444D03006A4D030070B508B1D8
:108638000368ABB90C4D0D4C0026641B1423B4FB26
:10864800F3F4B44201D1002009E02B6813B90136D4
:108658001435F6E7DB69284698470028F7D070BD3F
:10866800DB69BDE870401847A02D0020B42D00201C
:1086780029DF704728DF704770B503689D6886B0AA
:1086880004460E466DB11422002168460BF06EFDBB
:10869800A3680593237901962BB1012B0DD0684669
:1086A800A84706B070BD01238DF8003023690293F6
:1086B800E368039363690493F1E702238DF80030BC
:1086C800E3681B030293F5E70846704700207047EC
:1086D800024B187A003018BF01207047244100204F
:1086E800034B187A0122B0FA80F05A744009704797
:1086F8002441002008B510461A460BF00EFD002054
:1087080008BD000008B51422002104480BF02EFD16
:108718000348FFF7F0FA002008BD00BF24410020FD
:108728001441002010B5094C094B43602046FFF75F
:1087380027FC40B909F0A4F81C2320748C220549B1
:108748000548FFF7C5FA002010BD00BF24410020EE
:10875800DC4E0300884000201441002070B5244CF2
:10876800244E237A25463BB923492448FFF71FFBAB
:10877800306008B9606070BD346802232B722379B9
:1087880073B1012B24D020460321FFF775FF002386
:108798002B726B6018491948BDE87040FFF732BB6F
:1087A800D4E90523D21AB2F5805F28BF4FF480526E
:1087B800D4E903109208012A38BF01221944184449
:1087C800FFF756FF50B11128DDD101232B72D2E7F4
:1087D800D4E903031844FFF74DFFF3E72B7C002B84
:1087E800C9D10146BDE87040022000F009B800BFB9
:1087F800244100203C410020384100201441002041
:1088080038B5831E012B45D8234C237A002B41D041
:10881800022B09D1032830D0204B1B680022E260CC
:108828001A793AB1012A22D0637C7BBBBDE8384073
:10883800FFF794BFD3E905128D1AB5F5805F94BF91
:10884800521902F580529A619142EDD102284FF0F7
:10885800000308BF19462372104B18BF0D21186872
:10886800FFF70AFF0E490F48FFF7CCFADCE71A6951
:1088780001321A615B699A42E7E7E3680133082B22
:1088880001D8E360D0E70023E360DFE7BDE83840C4
:1088980008F0E6BF38BD00BF244100203C4100205D
:1088A800384100201441002000F0FD03012B08D1BD
:1088B800044B00225A74421E504250411874FFF76C
:1088C8004DBF70472441002010B5064C201DFFF70E
:1088D80057FB28B9637C1BB9BDE81040FFF73EBFC2
:1088E80010BD00BF244100202DE9F34180460D460C
:1088F8000F4801A916461F46FFF71FFA0446A8B1FC
:108908001C2200210BF032FC2D0B0123237101A93D
:10891800C4F80080A760E56066610548FFF737FA8C
:10892800FFF7D2FF002002B0BDE8F0810420FAE78B
:10893800144100202DE9F74381468846104801A9D3
:1089480017461E46FFF7F9F90446B0B11C2200216C
:108958000BF00CFC00250A9BA36001A92571C4F843
:108968000090C4E9037866610548FFF710FAFFF73D
:10897800ABFF284603B0BDE8F0830420FAE700BF48
:10898800144100202DE9F047B0F806904479D2F858
:1089980000A09DF8208009FB04F4043C06460AEB7D
:1089A8000300A0420F4688BFA4EB030A191DC2F8B2
:1089B80000A0B1FBF9F509FB15114DB9A9EB0104AC
:1089C800544528BF5446BAF1000F04D1BDE8F087DA
:1089D8003668013DF1E704317B1970182246B8F179
:1089E800000F0ED001461846AAEB040A0BF095FBBF
:1089F800D145254436684C464FF0000128BF5446FF
:108A0800E1E71946F0E7FFF7C4BAF8B54679014639
:108A1800721E0546002393422D6803D30024A64204
:108A280002D8F8BD0133F6E70F682846FFF7ECFADD
:108A380001343946F3E72DE9F843068ACD1C074689
:108A4800FFF7BEFA043E35440446B5FBF6F5F0B12F
:108A58004FF48073EDB28380C680013D0760814684
:108A68004FF00008A84512D23846FFF7A9FA064683
:108A780048B163790133637108F10108C9F800004E
:108A880007608146EEE72046FFF7BFFF34462046E1
:108A9800BDE8F88301210430FFF75CBA10B5012165
:108AA80004460430FFF761FA10F0FF0F04D12046A6
:108AB800BDE81040FFF7A9BF10BD1FB50392002203
:108AC800009203AAFFF75EFF05B05DF804FB1FB52F
:108AD80003920122009203AAFFF754FF05B05DF844
:108AE80004FB41DF70470000064B10B500241C70E2
:108AF800054B1C60BFF35F8F0449054800F0EAF896
:108B0800204610BD484100204C410020084F03007A
:108B18004041002007B500230DF107008DF807300C
:108B2800FEF722F9F1EE103A23F09F03E1EE103A36
:108B3800BFF35F8F094B4022C3F884219DF80700DB
:108B4800FEF736F908F09CFE20B1FFF7CAFF03B024
:108B58005DF804FB20BF40BF20BFF8E700E100E05C
:108B6800026813685268934291BFD01A8068013036
:108B7800801888BFC01A7047036881681A685B68E4
:108B88008B4234BF01330023D31A584258417047EF
:108B9800F7B5002304460DF107000D468DF80730A0
:108BA800FEF7E2F82046FFF7E7FF10B1237C002B21
:108BB8003CD12268A66853685168B14234BF01317C
:108BC8000021516030B11168A068814234BF013181
:108BD80000211160E2686068511E072920D8DFE88B
:108BE80001F004101F141F1F1F182A78C2542046B2
:108BF800FFF7B6FF23689A68824200D29860002483
:108C080015E02A8820F81320F1E72A6840F8232085
:108C1800EDE7D5E9006700EBC300C0E90067E6E7C8
:108C2800294602FB03000BF078FAE0E704249DF8DC
:108C38000700FEF7BDF8204603B0F0BD03681868CA
:108C48005B68C31A58425841704773B500230546FC
:108C58000DF107000C4616468DF80730FEF784F82C
:108C68002846FFF7EBFF002832D129680B682EB998
:108C78000A68A868824238BF561C0E60EA686968AC
:108C8800501E07281ED8DFE800F0040E1D121D1D17
:108C98001D16CB5C237000249DF80700FEF788F8AA
:108CA800204602B070BD31F813302380F3E751F845
:108CB80023302360EFE701EBC301D1E90023C4E9C6
:108CC8000023E8E703FB021120460BF026FAE2E74F
:108CD8000524E1E70B684A684360934208BF002314
:108CE800016008BF43607047436843B102689168F8
:108CF80052680B449342436004BF002343607047AB
:108D080010B50D49A1F59472914201D800200FE0E9
:108D18008B1ADB1003EBD3735B1002EBC30452F81E
:108D28003330834205D802D204F10802ECE76068C8
:108D380010BD2146E8E700BF6450030008B5FFF7FF
:108D4800DFFF024B002808BF184608BD264F030066
:108D580049B152B1531E1A4007D182600160838025
:108D6800C260104670470E2070470920704710B542
:108D78008468C2688388121B934208D3C268134070
:108D88000268D154C3680133C360002010BD0420B9
:108D9800FCE78268C3689A420AD0826883881340D5
:108DA8000268D35C0B7083680133836000207047CE
:108DB800052070470648074A03780749D35C012213
:108DC80013B1043001F0F0BB0C3001F027B900BF3B
:108DD800D02D002098410020784100200648074AFD
:108DE80003780749D35C012213B1043001F088BB32
:108DF8000C3001F0BDB800BFD02D002098410020F4
:108E08007941002037B50578012D05D0002D30D0E7
:108E1800022D23D003B030BD43681C4C197820467E
:108E2800FFF7A5FF78B18DF800500190184B684600
:108E38001B689847A168E368A2885B1A9A4209D31D
:108E4800FFF7B8FFE6E7A268E3689A42F2D08DF828
:108E58000000EBE70F4B01221A70DBE7C3688DF8BF
:108E680000500193FFF7A6FF094B68461B68984717
:108E7800D0E709490948FFF78CFF10B9FFF7AEFFA3
:108E8800C8E703238DF80030EEE700BF5441002007
:108E980050410020644100207941002068410020B1
:108EA800F0B51F46294B89B006461A600C460029C2
:108EB80049D08A8826480968FFF74AFF002840D128
:108EC800A289A1682348FFF743FF002839D1224D22
:108ED8000FCD6C460FC495E80F0084E80F00736946
:108EE8000693337C1D4C1E4A8DF81C70003318BF46
:108EF80001238DF81430737C002B14BF0E2300233C
:108F08008DF81530F3680293B368039333680193BF
:108F1800694673680093204600F0E2FA88B9114B5D
:108F28001870336801330CD09DF81D303BB9237895
:108F38000D4AD35C1BB904F10C0001F0E7F8FFF708
:108F480039FF09B0F0BD0720FBE700BF5041002002
:108F5800544100206841002020540300D02D0020F7
:108F68000D8E0200644100209841002010B5014692
:108F78000E48FFF7FCFE0446A8B90D480D4A0378D1
:108F8800D35C63B1043001F003FB60B90A490748B8
:108F9800FFF7FFFE38B9BDE81040FFF71FBF0C30E0
:108FA80001F030F8F1E7204610BD00BF684100200D
:108FB800D02D0020984100207941002010B50446AA
:108FC800C0B2FFF7D3FF204610BD00000C4B1B7842
:108FD800062B10D10B4B1B681A070CD10A4B1868CB
:108FE80000F0F003302B08D000F0E000A0F14003BF
:108FF800584258417047002070470120704700BF11
:10900800E00F00F0E40F00F0E80F00F0094B1B78C8
:10901800062B0CD1084B1B681A0708D1074B186898
:1090280000F0F000A0F1300358425841704700208A
:10903800704700BFE00F00F0E40F00F0E80F00F009
:1090480008B5FFF7C3FF28B17D4B7E4A1B68C3F301
:1090580004231360FFF7DAFF10B17B4B7B4A1A60D9
:10906800FFF7B4FF28B17A4B7A4A1B68C3F342333F
:109078001360FFF7CBFF20B1774AD36823F08073E2
:10908800D360FFF7A3FF40B14FF080430022C3F83D
:109098000C21C3F81021C3F83825FFF7B7FF10B12A
:1090A8006E4B03221A60FFF7B1FF40B16C4B0522EB
:1090B8001A6001229A6700229A603F225A60694B1F
:1090C8001B78062B50D1684B1B6819074CD1674B8E
:1090D8001B6803F0F003502B46D14FF08052644BCD
:1090E800D2F80414C3F82015D2F80814C3F82415CC
:1090F800D2F80C14C3F82815D2F81014C3F82C159C
:10910800D2F81414C3F83015D2F81814C3F834156B
:10911800D2F81C14C3F84015D2F82014C3F844152B
:10912800D2F82414C3F84815D2F82814C3F84C15FB
:10913800D2F82C14C3F85015D2F83014C3F85415CB
:10914800D2F83414C3F86015D2F83814C3F864158B
:10915800D2F83C14C3F86815D2F84014C3F86C155B
:10916800D2F84424C3F87025FFF730FF28B1414BEB
:10917800414A1B6803F04F031360FFF727FF48B10C
:109188004FF08043D3F80024D20744BF6FF00102A8
:10919800C3F80024394B1B68062B08D1384B1B68D1
:1091A800062B01BF374A136843F480631360364ABD
:1091B800D2F8883043F47003C2F88830BFF34F8F79
:1091C800BFF36F8F4FF01023D3F80022002A03DB80
:1091D800D3F80432002B2FDA2C4B0122C3F80425D4
:1091E800D3F80024002AFBD04FF010221521C2F832
:1091F8000012D3F80024002AFBD04FF010231522C8
:10920800C3F80422214B1A46D3F800140029FBD0D6
:109218000021C3F80415D2F80034002BFBD0BFF3AB
:109228004F8F19491A4BCA6802F4E0621343CB60A6
:10923800BFF34F8F00BFFDE7164B174A1A6008BDF2
:10924800240300104035014074C007400DF0ADBA4A
:10925800440200103C050040F0ED00E0A00500408D
:1092680010560040E00F00F0E40F00F0E80F00F0A7
:1092780000C0004058020010E40E00403001001009
:10928800340100103C17004000ED00E000E0014010
:109298000400FA05E42D00200090D003044B1A5C6A
:1092A800012393404FF0A042C2F80C35704700BF2D
:1092B80040540300044B1A5C012393404FF0A04232
:1092C800C2F80835704700BF4054030038B5074C52
:1092D800051E04F1080318BF1C4623682BB11A6841
:1092E80022605B6828469847F7E738BD844100202C
:1092F80020B9054B01225A70FFF7E8BF012802D1B7
:10930800014A9070F8E770477C41002020B9034B70
:1093180001225A70FFF7DABF704700BF7C41002076
:1093280038B5124C2378FBB911486360A3602361F8
:10933800E36000F011F9054608F0A2FA08B900F058
:109348002FF9012323702846FFF7F8FC094C0A4B34
:109358000A4A0B49E41AE4082404034644F00300CB
:10936800FDF769FB284638BD8525ECE77C410020E0
:10937800F9920200AC4A03005C4A0300445403001B
:109388005754030037B5184CA378054603F0FF027D
:109398009BB110B143680120984700230DF10700E5
:1093A8008DF80730FDF7E0FCE3689DF8070001330E
:1093B800E360FDF7FDFC03B030BD0DF107008DF84B
:1093C8000720FDF7D1FC25B1226913463BB92A6075
:1093D8002561E368002BE7D100F002F9E4E79D423C
:1093E800F7D01B68F2E700BF7C41002037B50B4C73
:1093F80000230DF107008DF80730FDF7B5FCE36891
:10940800013BE360E56815B900F016F9A5709DF811
:109418000700FDF7CDFC03B030BD00BF7C41002044
:10942800012813B509D018B103281CD002B010BD0B
:109438000F4B0122C3F88020F8E70E4C00230DF1F2
:1094480007008DF80730FDF78FFC23780BB9FFF77D
:1094580067FFE3689DF807000133E3600123A37009
:10946800FDF7A6FCE2E700F09BF8FFF7BFFFDDE79A
:1094780000E100E07C4100201FB503788DF8003042
:109488004368019383688DF80830C3680393054ADD
:10949800054B684653F8213052F82110984705B01B
:1094A8005DF804FB90410020944100201FB503782B
:1094B8008DF800304368019383688DF80830C368DD
:1094C8000393054A054B684653F8213052F821109A
:1094D800984705B05DF804FB9041002094410020B6
:1094E800F0B5184B077891F81DE043F82720164B84
:1094F80016460A6943F82720144B03F807E00C4680
:1095080084460FCC89B06D460FC594E80F0085E8F6
:109518000F000497BEF1000F0AD0002E0C4A6946CE
:1095280008BF32460CF1040000F0AEFE09B0F0BDF1
:10953800002E084A694608BF32460CF10C0000F0BC
:10954800F9FBF3E794410020904100209841002066
:1095580081940200B594020038B50C4B1D799DB971
:10956800012218609A802846FFF7E8FB084C094B4F
:10957800094A0A49E41AE4082404034644F00300AB
:10958800FDF759FA284638BD8525ECE79C410020AF
:109598005C4A03005C4A03007B54030057540300F1
:1095A8000B4B0C481A680C49D2075FBFC02283F8DE
:1095B800002301221A604FF080430122C3F81825C6
:1095C800064BC01AC008000440F00300FDF726BA95
:1095D80000E100E05C4A03008B5403005C4A03008E
:1095E80037B5114B00221A601B680193019B4FF09D
:1095F80080430222C3F804230C4AD06840F08073E9
:10960800D3600B4B1C6844F0010119605D68596810
:10961800491BB1F50A5FFAD31C60064BD0600122E2
:109628001A6003B030BD00BF04010040F0ED00E057
:10963800001000E008000040044B01221A604FF0BF
:109648008042D2F81834DB03FBD470470C0000408A
:10965800154B07B51A687AB100221A601B68009387
:10966800009B4FF080430122C3F808230F4B587921
:1096780010B95A711B6898470D4B1A6882B10022BD
:109688001A601B680193019B4FF080430222C3F8C4
:109698000823064B1B68012003B05DF804EB18474C
:1096A80003B05DF804FB00BF000100409C410020AE
:1096B8000401004000F1804000F5C040002382B062
:1096C800036003680193019B02B07047800000F1BA
:1096D800A040D0F8003723F44033C0F80037D0F862
:1096E800003743EA0141C0F800177047054B4FF0B7
:1096F800FF32072843F8202084BF1B1883F848202E
:10970800704700BFA441002038B5244B244C254D98
:10971800E41A95F85830E40824045BB10820FFF7F0
:109728000DFB214A2149034644F00200FDF783F965
:10973800082038BD05F130032021FF22013911F03E
:10974800FF0103F8012BF9D1C8B2FFF7CFFF0131B0
:109758000C29F9D10021042215480AF007FD154B00
:10976800C02283F8062340221A604FF4BE70FFF728
:10977800A1FF114B4FF00042C3F80423002001233E
:1097880085F85830FFF7DAFA074A0849034644F0E3
:109798000300FDF750F90020CBE700BF5C4A030047
:1097A800644A0300A4410020A15403005754030055
:1097B800F841002000E100E000600040034B93F80E
:1097C8005800003018BF0120704700BFA441002096
:1097D800F8B53E4D2C1894F93040002C74DA8C788A
:1097E800C4F34004002C0BBF082300230C260826D2
:1097F800B34211D104242046FFF7A0FA344D354B6B
:10980800354A3649ED1AED082D04034645F00300A4
:10981800FDF711F92046F8BD55F8237001373FD1FF
:109828002E1845F8232086F8303014B9EA1882F843
:1098380048008A78540713D4D60733D5820002F13A
:10984800A042D2F8004724F00204C2F80047244E90
:10985800C40800F007070122BA40375D3A43325581
:109868008C780E7814F0020425D09B0003F1804315
:1098780003F5C0430202D3F8101521F4473121F44F
:109888004071C3F810153604D3F8101502F4F852D5
:1098980006F4403632430A43C3F810250024AAE7E9
:1098A8000133A5E74C7800F5E0724FF0A046A4001C
:1098B80046F82240CBE7083B2B4493F8502042EA75
:1098C800861683F8506096E7082494E7A4410020A0
:1098D800644A03005C4A0300B2540300575403006F
:1098E800F841002038B51F4C251895F93020072A73
:1098F80017DD224492F84810890903290CD14FF04A
:10990800A043D3F81035C34013F0010F08BF02215C
:10991800BDE83840FFF7DABE012914BF0321022150
:10992800F6E7D3B2072B1CD8930003F1804303F565
:10993800C043D3F8100540F00100C3F8100502F148
:109948004000800080B2FFF7B5FE51B195F9303084
:1099580054F823302BB1012303FA02F2024BC3F867
:10996800042338BDA4410020006000402DE9F04FD9
:1099780085B000245A4D01944FF48072012102F100
:10998800804303F5C04390B21B68012B06D1D5F87C
:1099980004330B4202D0FFF78DFE0C430432B2F5BC
:1099A800907F4FEA4101EAD14E4B1B68012B0AD147
:1099B8004FF4BE70FFF77EFE4FF0A04344F0004422
:1099C800D3F81035019314F0FF0F1AD0464F002535
:1099D8000126344210D0AB0003F1804303F5C043A5
:1099E800D3F81005D3F8101557F8253023B1C1F373
:1099F8000141C0F3042098470135082D4FEA460677
:109A0800E7D1002C64DA00224FF0FF33CDE90223BE
:109A1800354D01274FF0000A344E54464FF0A04808
:109A280016F9012B531C46D0D2B222F0C0094FEAD6
:109A3800D90104A8084402F0070310F804CC07FA77
:109A480003F31CEA030F36D005EB090C92099CF9C5
:109A580030C055F82CB0BBF1000F0AD1032A2AD127
:109A68000DF1080E1EF801C04CEA030C0EF801C0F7
:109A780001E0032AF4D009F5E07110F80C0C58F84D
:109A880021101842C1F3014105D0022913D1032A3C
:109A98000BD1114604E003290DD1032A05D1022177
:109AA8004846FFF713FE0134E4B2BBF1000F02D0C1
:109AB80011464846D8470AF1010ABAF1040FAFD156
:109AC80034B14FF0A043019AD3F81035934202D134
:109AD80005B0BDE8F08F0193029B03939AE700BF9E
:109AE800006000407C610040A4410020F441002057
:109AF800014B1B68184700BF004200200E4B9842DC
:109B080037B50D4602D0002003B030BD00230DF15B
:109B180007008DF80730FDF727F9084B1C7914B9B1
:109B280001221D601A719DF80700FDF741F9002C0C
:109B3800E9D01120E8E700BF0020004000420020E3
:109B4800034B984201BF034B00221A601A717047F9
:109B580000200040004200200023435082B04358B8
:109B68000193019B02B070470A4610B54FF48E71FD
:109B7800FFF7F2FF136A9168C95C136A0133136235
:109B8800C0F81C1510BD024608B54FF49271006864
:109B9800FFF7E2FF4FF484711068FFF7DDFF1368E9
:109BA80001221A6008BD8B690A4610B54FF484710A
:109BB80023B9FFF7D1FFD0F8183510BDFFF7CCFF58
:109BC800536AD168D0F81805C854536A01335362F0
:109BD800F3E700001FB501238DF80030044BCDE9F1
:109BE8000110D3E900126846904705B05DF804FB00
:109BF8000842002030B54D4AD2F8043313F4007FF0
:109C080085B015464FD0D2F82431002B4BD04FF4F5
:109C180092711046FFF7A0FF4FF40173C2F80833A2
:109C2800434B93F8291009B9012151603F49022299
:109C38008DF80020D1F88024C1F8802403929A6915
:109C48000292DA6801920022C3E906226846D3E943
:109C5800001290473548D0F81C315BB134494A6945
:109C68000B6A9A420A464BD991F82830002B47D103
:109C7800FFF77AFF2D4AD2F8443193B14FF4A2711D
:109C88001046FFF769FF2A4B93F8291009B1012103
:109C980011609A692AB100229A61586AD968FFF757
:109CA80099FF05B030BDD5F804335B07D2D5D5F898
:109CB8000831002BCED01E4C1C482146FFF773FFFD
:109CC800636AA2699A422346C4D1E269E1684AB14B
:109CD8002369E3600023606AA261E3616362FFF7BE
:109CE80079FFB7E794F829200AB901226A600F4A78
:109CF8004FF40170C2F8080300229A61586AEEE72F
:109D08004FF48E710948FFF727FF5369002BB1D034
:109D180051690291002391688DF8003001915361D7
:109D28006846D2E900139847A4E700BF0020004026
:109D3800084200202DE9F843564F047991462C2219
:109D480002FB0472064692F82A200D46002A40F0CB
:109D58009A8051490068FFF7D1FE8046002840F0FC
:109D6800958029683368481C0BD04FF0A040012229
:109D78008A40C0F8082501F5E0724FF0030C40F85E
:109D880022C06868421C1FBF00F5E0724FF0A04C6B
:109D98004FF0000E4CF822E0AA6995F814C0C3F8F9
:109DA80024256A7DBCF1010F4CEA0202C3F86C2538
:109DB800C3F81405C3F80C151DD1AA68511C1FBFA0
:109DC80002F5E0714FF0A0404FF0000C40F821C0C0
:109DD800E968481C0BD04FF0A04C01208840CCF813
:109DE800080501F5E0704FF0030E4CF820E0C3F8C9
:109DF8000815C3F810252C236343FA18C2F80490F9
:109E08002A69FA50B9F1000F2AD04FF48E713068E0
:109E18002D7FFFF7A1FE30684FF4A271FFF79CFE7B
:109E280032681E4BC2F80433120B51B20029A8BF86
:109E380001F160404FEA4513BABF194802F00F0517
:109E480000F56140DBB2B4BF435580F8003302F03F
:109E58001F02012303FA02F24909124B43F8212099
:109E680033680422C3F800252C2303FB0473002263
:109E7800C3E9062283F829205A61012283F82A209F
:109E88004046BDE8F8834FF00808F9E74FF011089D
:109E9800F6E700BF08420020FD9B02008000020098
:109EA80014ED00E000E100E0F8B5047900682D4DFC
:109EB8000023C0F800352C2303FB04535B6873B1FF
:109EC800294BC0F80833020B53B201215B0902F099
:109ED8001F0201FA02F22033244941F82320D0F866
:109EE8000C65D0F81415D0F80835D0F810254FF0C7
:109EF800FF37BE42C0F8147518BF06F5E076C0F803
:109F08000C75C0F80875C0F810751EBF4FF0A04753
:109F18004FF0020C47F826C04E1C1FBF4FF0A0465A
:109F280001F5E071022746F82170511C1FBF4FF060
:109F3800A04102F5E072022641F822605A1C1FBFB8
:109F480003F5E0734FF0A042022142F82310FFF717
:109F5800F7FD2C2303FB0454002384F82A306360A4
:109F6800F8BD00BF084200208402020000E100E0C2
:109F78002DE9F84F224F06794FF02C0909FB06749A
:109F880080466569002D38D16261A16025624FF471
:109F98008E71006884F82850FFF7DEFDD8F80000BD
:109FA800012383602146FFF7DFFD6368A1469BB963
:109FB800D8F800A0D4F814B0236A9B4512D8D8F872
:109FC8000020D2F81C31002BFBD00123D3602C23B6
:109FD80003FB067300225A612846BDE8F88F94F8FF
:109FE800283043B9DAF81C31002BF8D049465046DE
:109FF800FFF7BAFDE0E70F25E9E71125ECE700BF19
:10A00800084200200379044A2C2101FB03235869E4
:10A01800003018BF01207047084200202DE9F8439E
:10A02800394E05792C2303FB056307465C6824B188
:10A0380003684FF40170C3F808032C2303FB05637E
:10A04800986950B1D86900283ED024B13B684FF4D4
:10A058000172C3F80423112433E09A61D96058626D
:10A06800D8612C2303FB056393F829301BB910B979
:10A078003846FFF788FD4FF02C0909FB056838685A
:10A08800D8F80430002B34D14FF4A271FFF764FDE7
:10A09800C1463868D0F82431D0F80821D0F84441B6
:10A0A800B2B90CB9002BF4D02C2202FB05650022B2
:10A0B800AA6123BB2CBB95F829103B680122B1B1DA
:10A0C8001A602046BDE8F8831961DA610120C8E703
:10A0D800002BE9D1002CE7D14946FFF764FDD8F8F9
:10A0E8002430D8F818209A42D3D82346DCE75A609F
:10A0F800E7E74FF40173C0F804330024E1E70324D1
:10A10800DFE70F24DDE700BF0842002070B50279C1
:10A11800084C2C2505FB0242064692F829303BB92B
:10A12800FFF731FD337905FB0343012283F829202A
:10A1380070BD00BF084200200023435082B043583E
:10A148000193019B02B070471FB501238DF80030C1
:10A15800044BCDE90110D3E900126846904705B0D9
:10A168005DF804FB344200207FB5454AD2F82461EB
:10A17800002E63D010464FF49271FFF7DDFF0223E3
:10A188008DF80030D2F88034C2F880340393D2F8C6
:10A198003C3502933B4BDA6801920022C3E9062260
:10A1A8006846D3E900129047354AD2F844317BB16A
:10A1B8004FF4A2711046FFF7BFFF324B996939B1CE
:10A1C8000021C3E90611D968D2F83C05FFF7BCFFA6
:10A1D8002B4AD2F82031B3B14FF490711046FFF7F3
:10A1E800ABFF0123D360274B596961B1D2F84C15F5
:10A1F8000291002299688DF8002001915A61684601
:10A20800D3E9001290471E4AD2F85831A3B14FF44F
:10A21800AC711046FFF790FF1A4B596961B1D2F83B
:10A228004C150291002299688DF8002001915A611D
:10A238006846D3E90012904704B070BDD2F81031D7
:10A24800002BB1D04FF488711046FFF775FF0D4B06
:10A25800D2F83C0599698842A6D1DC69D96864B10D
:10A26800D2F8005225F02005C2F800521A699C6104
:10A27800DA60DE61FFF768FF96E79C61FAE700BFE6
:10A2880000200040344200202DE9F8435C4F067955
:10A298009146242202FB0672044692F820200D46BD
:10A2A800002A40F0A78057490068FFF727FC80463E
:10A2B800002840F0A28029682368481C0BD04FF082
:10A2C800A04001228A40C0F8082501F5E0724FF04D
:10A2D800030C40F822C06868421C1FBF00F5E072FA
:10A2E8004FF0A04C4FF0000E4CF822E0AA6995F808
:10A2F80014C0C3F824256A7DBCF1010F4CEA0202A0
:10A30800C3F86C25C3F80C15C3F814051DD1AA6849
:10A31800511C1FBF02F5E0714FF0A0404FF0000C38
:10A3280040F821C0E968481C0BD04FF0A04C012030
:10A338008840CCF8080501F5E0704FF0030E4CF8A2
:10A3480020E0C3F80815C3F8102524237343FA182E
:10A35800C2F804902A69FA50B9F1000F39D04FF4C5
:10A36800887120682D7FFFF7E7FE4FF49071206811
:10A37800FFF7E2FE4FF492712068FFF7DDFE4FF41D
:10A38800A2712068FFF7D8FE20684FF4AC71FFF780
:10A39800D3FE22681C4BC2F80433120B51B20029B9
:10A3A800A8BF01F160404FEA4513BABF174802F051
:10A3B8000F0500F56140DBB2B4BF435580F80033A8
:10A3C80002F01F02012303FA02F24909104B43F875
:10A3D800212023680822C3F80025242303FB0673E1
:10A3E8000022C3E906225A61012283F82020404650
:10A3F800BDE8F8834FF00808F9E74FF01108F6E7D1
:10A408003442002071A102001003420014ED00E064
:10A4180000E100E0F8B5374D0479242303FB045329
:10A4280006465B68006873B1334BC0F80833020B0B
:10A4380053B201215B0902F01F0201FA02F2203334
:10A448002E4941F82320D0F80032012223F02003BE
:10A45800C0F800324FF4AC714260FFF76DFE30680F
:10A46800C260D0F85831002BFBD00023C0F800356B
:10A47800D0F80C65D0F81415D0F80835D0F81025A8
:10A488004FF0FF37BE42C0F80C7518BF06F5E076EE
:10A49800C0F81475C0F80875C0F810751EBF4FF0E5
:10A4A800A0474FF0020C47F826C04E1C1FBF4FF0C4
:10A4B800A04601F5E071022746F82170511C1FBF24
:10A4C8004FF0A04102F5E072022641F822605A1CC2
:10A4D8001FBF03F5E0734FF0A042022142F823109A
:10A4E800FFF72EFB242303FB0454002384F82030B9
:10A4F8006360F8BD344200201003420000E100E030
:10A5080001F06043B3F1005F2DE9F041074638D10F
:10A518001E4B0679242505FB063598466C69002CE8
:10A5280031D16A61A96000684FF49071FFF704FEA9
:10A538004FF4AC713868FFF7FFFD3B686A69A9689A
:10A54800C3F84415C3F8482501229A606A68AAB975
:10A55800D3F82021D3F858411AB9002CF8D00F2489
:10A5680007E0002CFBD10122DA60D3F85821002A39
:10A57800FBD0242303FB0686002373612046BDE835
:10A58800F0811024FAE71124F8E700BF34420020D4
:10A598000379044A242101FB03235869003018BFBA
:10A5A8000120704734420020F8B501F06043B3F150
:10A5B800005F04460F465ED10379304D242101FB2C
:10A5C8000351486820B121684FF40476C1F8086344
:10A5D800242101FB03539E6956B1D969002939D05A
:10A5E80020B123684FF40472C3F80423112030E02B
:10A5F8009A61DF60DE614FF488712068FFF79CFD87
:10A608004FF4A2712068FFF797FD2368C3F83475EB
:10A61800C3F8382516BB01221A602179242202FBCF
:10A62800015252680ABBD3F81041D3F84421D3F839
:10A638002401144302D10028F5D02246242303FB29
:10A6480001550023984218BF03209A42AB6118BFF6
:10A658000F20F8BD1F61DA610126CCE7D3F800228C
:10A6680042F02002C3F80022D7E74FF40472C3F87F
:10A6780004230020EDE71020EBE700BF3442002060
:10A6880037B5D0F818350A7EDBB28DF8073091F867
:10A6980020309A4282BF4A699DF80740D45491F805
:10A6A800204091F82150631CDBB26D0781F82030FF
:10A6B80003F1010209D50D7C954284BFA51C0D74D8
:10A6C8000D7E954284BF02340C760D7C954205D9E7
:10A6D800CB689B5CC0F81C3501200AE00C7E9442D4
:10A6E80001D9CB7FF6E7AB42F6D3A3422CBF0020BB
:10A6F800012003B030BD00002DE9F84F5D4E5E4CDF
:10A708004579A41B24275D4E6F4306EB070CE4082C
:10A718009CF81CE02404BEF1000F0CD00820FEF7C2
:10A728000DFB574A5749034644F00200FCF783F9EA
:10A738000820BDE8F88FF251CCF8043091F8008079
:10A7480091F80CE04FF0A047012303FA08F3BEF19B
:10A75800010F94BFC7F80C35C7F8083508F5E07342
:10A768004FF0010C47F823C04B78FF2B1FBF0CFAA2
:10A7780003FCC7F80CC503F5E07C4FF0030918BFCC
:10A7880047F82C9091F802C008BF4FF0FF33BCF196
:10A79800FF0F1FBF4FF0A0470CF5E0794FF0040AF8
:10A7A80047F829A0CF7808BF4FF0FF3CFF2F0DD006
:10A7B8004FF0A04A4FF0010909FA07F9CAF80895BD
:10A7C80007F5E0794FF0030B4AF829B04FF0240958
:10A7D80009FB056989F81E700768C7F80885C7F876
:10A7E8000C358B68C7F810C5C7F824354B7B003388
:10A7F80018BF0123BEF1020F35D0BEF1030F35D0CB
:10A80800BEF1010F01D143F00203C7F854352423E8
:10A8180003FB056391F805C083F81FC012B1042338
:10A82800C7F804330123C7F8003522B1097990F934
:10A83800040000F065F9242303FB056544F00304D4
:10A84800012300262B7710496E772046FCF7E6F89F
:10A858003046FEF773FA0A4A0A4903462046FCF7CF
:10A86800EAF8304665E743F00403CEE743F0060311
:10A87800CBE700BF5C4A03003C4B03005842002072
:10A88800FA540300575403001C550300437924224B
:10A8980070B55A430E4EB5585DB190F904200124A5
:10A8A800510902F01F0204FA02F22031094C44F85F
:10A8B800212001681DB14FF0FF32C1F808230022A2
:10A8C800C1F80025242101FB03631A7770BD00BF7E
:10A8D8005842002000E100E02DE9F74F4579544F38
:10A8E800544C16462423544A6B438C46D11881464F
:10A8F8003F1B487FFF083F04964670B11120FEF7C2
:10A908001DFA4E4A4E49034647F00200FCF793F8F9
:10A918001126304603B0BDE8F08F52F80380B8F135
:10A92800000F04D016F0140F04BF01234B779CE8E6
:10A938000F0024246C430EEB040A0AF10C0B8BE87D
:10A948000F0020347444637823F0070363709AF887
:10A958001E20DFF8E4A0FF2A1FBF012393404FF019
:10A96800A042C2F80C3524237EB103FB05A50023C1
:10A978006B7706263046FEF7E1F9304A3049034640
:10A9880047F00300FCF757F8C3E7D9F8004003FB8A
:10A9980005EE0423C4F80833C4F80861D4F8083174
:10A9A8008EF820600093009B9CF8043093B1DCF88B
:10A9B80000201278C4F81C25012B0ED9DCF80030D1
:10A9C8005B78C4F81C35B8F1000F0FD00423C4F825
:10A9D8000433CFE79EF81F20ECE79CF80C30012BDE
:10A9E800F1D9242303FB05A3DB7FEAE705EBC509BF
:10A9F8000AEB8909D4F80831002BFBD0C4F8088188
:10AA0800D4F80831019349462046019BFFF738FEE8
:10AA18000028EFD1242303FB05A5AA7FFF2A1FBF27
:10AA2800012393404FF0A042C2F80835A2E700BFC7
:10AA38003C4B03005C4A0300584200200B550300BE
:10AA48005754030030B585B0054602930C480D4BAA
:10AA58009DF820400091C01AC008000423460A4906
:10AA68008DF8042040F003008DF80C40FBF7E3FF5D
:10AA7800002269462846FFF72FFF05B030BD00BF0A
:10AA88003C4B03005C4A03002155030013B5164BE9
:10AA9800164C00221A601B68019321464FF0402093
:10AAA800019BFFF7EDFDE8B9A27F11481149FF2A84
:10AAB8001FBF012393404FF0A042C2F8083500237E
:10AAC800637723720C4B227EC01AC008000440F042
:10AAD8000300FBF7A7FFD4E90031084802B0BDE83E
:10AAE8001040184702B010BD0841004058420020ED
:10AAF8003C4B0300DC5403005C4A03006042002026
:10AB0800002810B5C3B2A8BF00F160424FEA501048
:10AB1800BABF03F00F040C4A02F561424FEA411133
:10AB28004FEA8000C9B200F16040B4BF115582F805
:10AB3800001300F5614003F01F0201239340C0F8A1
:10AB48008031036010BD00BF14ED00E075DF704771
:10AB580076DF70477ADF70477CDF70478CDF70479D
:10AB68008FDF70474FF0A042D2F80435D94301F087
:10AB7800004103F00043C2F80815C2F80C357047CD
:10AB880007F0AEBB037810B55BB944680169054AA4
:10AB98000123A01CFFF7E2FF18B1BDE81040FCF745
:10ABA8009DB810BD004A0020FCF798B810B54FF0CA
:10ABB800A044D4F80435DA4302F0804203F080431D
:10ABC800C4F80825C820C4F80C3508F0DBFEF0E707
:10ABD80008B50E4B014658884FF6FF72904207D0D1
:10ABE800D88990420FD0588B90420ED1022200E0B3
:10ABF80000220C2000FB023003F00CFD28B1BDE858
:10AC08000840FCF76BB80122F3E708BD7C49002037
:10AC180008B5044803F050FE18B1BDE80840FCF739
:10AC28005DB808BDD049002038B5014604464568DE
:10AC38000B4806F089FA21460A4806F05BFC23789F
:10AC4800032B0CD162880848294609F035FA628836
:10AC580095F8C4120548BDE8384009F02DBA38BD4A
:10AC680068490020BC490020655603009D56030032
:10AC780070B51C4803F096FD044608B1FCF72EF8A1
:10AC8800194809F0CDFA40B1174A1648002103F0D7
:10AC980045FD044608B1FCF721F8144D144E2988E7
:10ACA8004FF6FF72914208D03388934205D1114A7A
:10ACB8000C48032103F032FD044632884FF6FF7337
:10ACC8009A4208D02A889A4205D10B4A054803219E
:10ACD80003F024FD044624B12046BDE87040FBF78C
:10ACE800FDBF70BDD049002024570300142E00205A
:10ACF800162E0020F82D0020F42D00207FB50B78AB
:10AD0800012B06460C4603D0022B27D004B070BD99
:10AD1800254D2A884FF6FF739A42F7D14988234870
:10AD2800298009F0C9F9FFF7A3FF221D29883046B9
:10AD380006F039FC08B1FBF7D1FF0021288804F0A0
:10AD480003FD112802D008B1FBF7C8FF304606F012
:10AD58008DFC0028DAD0FBF7C1FFD7E70989144832
:10AD680009F0AAF9A3798DF80230A389ADF8083063
:10AD7800A37A8DF806302389A288ADF80430694695
:10AD880023690C48ADF80020039306F07BFB30F0F4
:10AD98000802BBD020F00202112AB7D043F20142C8
:10ADA8009042B3D0D7E700BF162E00208357030088
:10ADB800C6570300A049002073B50446808801F0F7
:10ADC800C7FC80B2012802D02388262B5BD1954985
:10ADD800204606F0F2F89449204606F0C2FA238885
:10ADE800212B00F09F8005D8102B0CD0112B29D0D7
:10ADF80002B070BD3B2B01D0562BF9D11321A0888E
:10AE0800FFF7A6FE08E1894809F056F94FF0A0437C
:10AE1800A088D3F80425D14301F0004102F0004294
:10AE2800C3F80815C3F80C25D3F80425D14301F459
:10AE3800800102F48002C3F80815C3F80C25FFF757
:10AE4800C7FED5E74FF0A0437948D3F80425D1438E
:10AE580001F0004102F00042C3F80815C3F80C25C0
:10AE6800D3F80425D14301F4800102F48002C3F829
:10AE78000815C3F80C25A188227A09F01DF91F20AE
:10AE8800FEF718FAB4E7022801D01D2BB0D16949A2
:10AE9800204606F0B2F96849204606F08FFB238861
:10AEA8001F2B00F0B48034D8112B51D01B2B00F08D
:10AEB800A680102B9CD1614809F0FEF84FF0A04302
:10AEC8004FF08042C3F808254FF480410022C3F8B0
:10AED8000C25C3F80C15C3F80825594B1A884FF6EA
:10AEE800FF739A4203D0574A12889A4224D1A18804
:10AEF800554809F0E1F8A188544801F0ADFE112841
:10AF080018D1A188524801F0A7FEA8B1FBF7E6FEC8
:10AF180012E03B2B3FF472AF562B3FF46FAF212B5F
:10AF28007FF466AF002301A9A088ADF80430FFF7CD
:10AF380017FE71E00028E9D1A088FFF749FE01F06B
:10AF480051FC022801D116209AE7FFF761FE4FE76E
:10AF580040483B4D09F0B0F84FF0A043D3F8042522
:10AF6800D14301F0804102F08042C3F80815C3F8CC
:10AF78000C25D3F80425D14301F4804102F4804222
:10AF8800C3F80815C3F80C25A2882B889A420ED15D
:10AF9800217A314809F090F84FF6FF732F4A30486C
:10AFA8002B80032103F0BAFB08B1FBF797FE254E6F
:10AFB800A28833889A420ED1217A2A4809F07CF86F
:10AFC8004FF6FF73284A26483380032103F0A6FB77
:10AFD80008B1FBF783FE32884FF6FF739A4202D01E
:10AFE8002A889A4204D1FFF713FE1620FEF756F975
:10AFF80001F0F8FB00287FF4FBAE0E2040E7237A2F
:10B00800022B7FF4F5AE194809F056F8F0E604F182
:10B018000801A088FFF79AFD00283FF4E9AEFBF786
:10B028005DFEE5E618490020A049002047550300C9
:10B038005E55030068490020BC490020995503006B
:10B04800142E0020162E0020AD550300182E0020C7
:10B05800E8330020DE550300F5550300F42D0020E9
:10B06800D04900201D560300F82D00204556030046
:10B078000B78012B70B506460D4602D0022B27D05F
:10B0880070BD1D4C22884FF6FF739A42F8D149884B
:10B098001A48218009F010F8FFF7EAFD2A1D2188D7
:10B0A800304606F021F908B1FBF718FE0021208888
:10B0B80004F04AFB112802D008B1FBF70FFE304616
:10B0C80006F0ECF80028DBD0BDE87040FBF706BEC0
:10B0D80089880B4808F0F0FFA9880A4806F000F8AC
:10B0E80030F00802CCD020F00202112AC8D043F276
:10B0F80001429042C4D0E7E7142E0020C456030052
:10B10800E95603001849002008B548B1032810D1B2
:10B11800084808F0D1FF1E20BDE80840FEF7BEB879
:10B128000321054800F0C9FF18B1BDE80840FBF746
:10B13800D5BD08BD6F5703008442002008B5002024
:10B14800FDF774FA68B9FFF763FD1620FEF7A6F855
:10B158000321044800F0B1FF18B1BDE80840FBF72F
:10B16800BDBD08BD8442002010B5044604F040FF70
:10B17800204604F061FF204604F020FD23780C2BC4
:10B1880003D1BDE81040FFF7D9BF10BDFBF7A6BD3E
:10B19800FBF7A4BD104930B5002301224FF0A040B1
:10B1A80003240133202B0ED14FF0A0434FF040422F
:10B1B800C3F80C2509490022C3F80825C3F8081567
:10B1C800C3F80C2530BD02FA03F50D421CBF03F588
:10B1D800E07540F82540E4E7004040C000404000EA
:10B1E80007B5FEF7EBFAC0B10D4808F065FF0D4B47
:10B1F8001A88ADF804209B780B4A8DF8063001A90F
:10B208001320FEF7E5FA08B1FBF768FD01211320CA
:10B21800FEF768FB03B05DF804FBFEF775FAE6E796
:10B22800D85703004455030089AB020070B5B4B089
:10B23800FFF7D6FF08F042FD08F072F808B1FBF7F7
:10B248004DFDFFF7A7FFFDF74FFC08B1FBF746FDE3
:10B2580006F098FA08B1FBF741FD002309A901207F
:10B26800099306F057FB08B1FBF738FD09A806F06B
:10B2780005FC08B1FBF732FD1022002109A808F0EF
:10B2880075FF934B934A9448099309A903F0BCFAB4
:10B2980008B1FBF723FD914808F0C2FF38B18F4A87
:10B2A8008D48002103F03AFA08B1FBF717FD8C4AE4
:10B2B8008948032103F032FA08B1FBF70FFD894AE8
:10B2C8008548032103F02AFA08B1FBF707FD00229D
:10B2D8001F21814803F079FA08B1FBF7FFFC11231D
:10B2E80081488DF8143008F09BFF7F4982B205A889
:10B2F800FFF732FC08B1FBF7F1FC0822002109A88E
:10B3080008F034FF744B09A81A6B5B6B09920A9317
:10B31800FFF720FC08B1FBF7E1FC0021734802F0BD
:10B3280031FE08B1FBF7DAFC1C22002109A808F05D
:10B338001DFF00234FF4A032CDE909324FF4F0226B
:10B348000B9203228DF830204FF6FF72ADF83220B1
:10B358000E930122664B8DF8342009A80F9301F053
:10B36800EBF808B1FBF7BAFC0822002109A808F09D
:10B37800FDFE604C604B099309A80A9401F02EFC6D
:10B3880008B1FBF7ABFC04F03BF908B1FBF7A6FCEE
:10B398000522002109A808F0E9FE099B03F07C4278
:10B3A800564B134309939DF8283023F0030343F0C9
:10B3B800030309A88DF8283004F0BCF908B1FBF79D
:10B3C8008DFC4F4804F09EF908B1FBF787FC4D4D02
:10B3D8004D4B4E48099309A9CDE90A5405F0F0FEF2
:10B3E80008B1FBF77BFC4A4B4A480B9409A9CDE905
:10B3F800093506F0BBF808B1FBF770FC464B474D22
:10B408000493002404A9284603F0F2F808B1FBF7D6
:10B4180065FC0134032C05F10C05F3D10021102241
:10B4280005A88DF80F4008F0A1FE0023059301231D
:10B438008DF818300DF10F03079305A940F2011399
:10B448003748ADF8203005F0DEFD08B1FBF746FCC3
:10B458000021182209A808F089FE324B3248002141
:10B46800CDE9091309A905F0A4FF08B1FBF736FCDB
:10B47800AC22002109A808F079FE02238DF82430B7
:10B48800ADF83430164B0E9340F201620123ADF84B
:10B4980026208DF8A0304FF4967244F25063CDE91F
:10B4A8002B2309A9214B2248329300F087FD08B1CC
:10B4B800FBF714FC01211E4800F07DFD07F0DCF8C5
:10B4C80007F0F0F8012006F0CBFF013032D1FEE79B
:10B4D800B83900208DAB0200D04900202457030062
:10B4E800F42D0020F82D002032570300F4480020E6
:10B4F80099B10200FC2D002031AC02003107100385
:10B5080071B10200B1AB020079B0020068490020B5
:10B5180005AD0200BC49002095B102007C4900201D
:10B528001849002001010500A049002011B10200BE
:10B538008442002007F0D4F82A4806F033FC2A4B4E
:10B548002A4A2B492B4806F041FD01212A4806F0DA
:10B55800A1FE44F2480006F0C8FB43F6AC7006F0C2
:10B56800CAFB642006F020FD4FF6E85006F06CFE9A
:10B57800224808F0A1FD0225214B01934FF4827265
:10B58800002320490095204808F002F81F4B00933B
:10B5980001224FF4FA6100231D4807F005FC1D4BFA
:10B5A8000646186008F002F90024024623460121E5
:10B5B8000094304607F012FC174B184918484FF40E
:10B5C8008272CDE90053234607F0E2FFFFF7B6FD8C
:10B5D80008F0B4F8FBF7B8F80028FBD1FDF79AFAA1
:10B5E800F8E700BFE82D0020C9B802009DB80200A6
:10B5F80071B80200F5B8020080D023043C5703005C
:10B608007C4200204B570300B5AB02006DAB020033
:10B618005057030080420020244B00205557030058
:10B6280015B90200000000002DE9F0412DED028B54
:10B63800794C7A4923788B7000220C2006F0AAFAFC
:10B64800012200210C2006F067FB022006F088FD8D
:10B65800734B4FF0FF31186807F06EFA01280CD1D0
:10B66800704D2B684BB1704B70481A6801321A60E4
:10B67800196808F021FD00232B606D4D6D4E286878
:10B688000A2107F059FA012840F0AC8028686A4D71
:10B6980007F0E8FA306807F0E5FA684B186807F031
:10B6A800E1FA2378013323702B68002B00F08C809B
:10B6B8000021102006F0C4FA00F07F01142903D8F5
:10B6C80000225F4806F096FA5D4C5E4900230A2284
:10B6D8002046A37008F097FC0646002874D15A4FFC
:10B6E8005A483B6801333B60396808F0E5FC4E4B2B
:10B6F80097ED007AD3ED007AB8EEC77AF8EEE77ADC
:10B70800C7EE276ADFED527A66EEA77A17EE900A3F
:10B7180008F0A2FB02460B464E4808F0CDFC06F0A6
:10B72800A5FA804606F0A6FA074606F06DFAA27A50
:10B73800A37B9B1AE27B03EB0223227C03EB0243ED
:10B74800627C03EB0263E27AA3EB0223227BA7EB82
:10B758000807A3EB0243627B07EE907AA3EB026330
:10B76800F8EEE78A08EE103A08F062FB24A3D3E962
:10B77800002308F0C1FA08F089FB07EE100AB8EEBA
:10B78800C88AF7EE007A77EEC77AB1EE488AE8EE13
:10B79800278AB6EE007A68EE877A17EE900A08F0E4
:10B7A8005BFB19A3D3E9002308F0A6FA18A3D3E991
:10B7B800002308F0A1FA02460B46274808F07CFC53
:10B7C80026482E6008F078FC254C264D23680BB9D6
:10B7D8002B6873B106F077FD23682B68002323607C
:10B7E8002B6006E00A21306807F0A6F901283FF42B
:10B7F8004DAFBDEC028BBDE8F08100BFAFF3008018
:10B80800143BB1133BB103BEFA48CE3B1835B13DEA
:10B818000000001319DDB141304B0020DA39002057
:10B82800644B0020604B00205C4B002056580300FE
:10B83800504B0020584B00204C4B00202C4B002034
:10B84800314B0020C6390020484B00206C580300BB
:10B858000000C8427F58030097580300A758030008
:10B86800544B0020284B002010B5074808F024FC52
:10B87800064B074801221A6000231A461946006839
:10B88800BDE8104007F02EB8445803004C4B002088
:10B89800504B002008B5074B074801221A600023C7
:10B8A8001A461946006807F01DF80448BDE8084024
:10B8B80008F002BC544B0020584B00204C580300A1
:10B8C80008B5074800231A461946006807F00AF821
:10B8D800044B054801221A60BDE8084008F0ECBB9B
:10B8E8002C4B0020284B0020FF57030008B50548C3
:10B8F80000231A461946006806F0F4FF024B01229D
:10B908001A6008BD644B0020604B002080B50322FC
:10B918000021012006F0CEFF234F244E3860032279
:10B928000021012006F0C6FF03223060002101201B
:10B9380006F0C0FF1E4D1F4C286003220021012085
:10B9480006F0B8FF00231A4619462060386806F04A
:10B95800C9FF00231A461946306806F0C3FF0023C2
:10B968001A461946286806F0BDFF002319461A46EC
:10B97800206806F0B7FF0A21386807F0DDF80A21C9
:10B98800306807F0D9F80A21286807F0D5F80A21A5
:10B99800206807F0D1F8012006F022FBFFF744FEEB
:10B9A800FA2007F0EFFFF9E7644B0020504B002026
:10B9B800584B00202C4B00206DDF704779DF704713
:10B9C8007DDF704764DF70472DE9F04F85B00025B3
:10B9D8000E9CBDF83CB027880191804691469A4656
:10B9E8002E46B8F80020B2420CDC3DB12288013A5C
:10B9F800D21B92B2FF2A3BD80AF80720002005B0D4
:10BA0800BDE8F08FD8F8042052F8260003900022F1
:10BA18000DF10B0103A8FFF7D5FF0028EFD19DF822
:10BA28000B204A4522D12288002D14BF0020022075
:10BA380002EB0901014459451ADC45B9013292B2B9
:10BA4800019B22800AF80230228801322280228853
:10BA58000DF10B01524403A8FFF7B4FF0028CED123
:10BA680021889DF80B200A44228001250136B8E779
:10BA78000C20C4E72DE9F341089CBDF82450174673
:10BA8800CDE90045022206469846FFF79DFF50B9CA
:10BA98004346102239463046CDE9084502B0BDE894
:10BAA800F041FFF791BF02B0BDE8F0812DE9F04FFA
:10BAB80000231688138090F82D3085B007460D4670
:10BAC800144653B3082E01D80C2027E102A8FFF72B
