:020000022000DC
:103000000000012099320200393202003B320200F6
:103010003D3202003F320200413202000000000057
:10302000000000000000000000000000A9360300BE
:103030004532020000000000CD3603004932020094
:10304000E97D02004F32020099A6020053320200CD
:103050002D93020057320200918702005B3202007A
:103060005D3202005F320200613202006332020010
:103070006532020067320200693202006B320200E0
:103080006D320200E93D020071320200733202002B
:10309000293E020077320200BDFD02007B320200B1
:1030A0007D3202007F320200813202008332020050
:1030B00085320200873202004B3202004B3202009E
:1030C000893202008B3202008D3202008F32020000
:0C30D000AD35030093320200953202007F
:1030DC00354936480A1A02D0072291438D463449A5
:1030EC0034480A1A06D00722914381F30988022238
:1030FC0082F3148830483149314A00F044F83148A1
:10310C003149324A00F03FF831483249324A00F036
:10311C003AF832483249334A00F035F832483349EC
:10312C00334A00F030F833483349344A00F02BF876
:10313C0033483449344A00F026F8344834490022E4
:10314C0000F02CF833483449002200F027F83348BB
:10315C003349091A082902DB002202604160314A16
:10316C0090471F481F49884205D00268043003B4B9
:10317C00904703BCF7E700208646EC460020002170
:10318C00294A9047FEE7884207D0521A05D00378A7
:10319C0001300B700131013AF9D17047884202D0ED
:1031AC0002700130FAE770470000012000F800209F
:1031BC000000012000000120A8DB0300642C00208B
:1031CC00EC320020F0320200F0320200BCC30300EB
:1031DC00A8DB0300642C0020642C002058C40300DE
:1031EC0058C4030058C4030058C4030058C4030057
:1031FC0058C4030058C4030058C40300A8DB0300E0
:10320C0030E20300EC320020EC320020EC320020E3
:10321C00A0C60020A0C60020A8C60020A8C600207A
:10322C00A8C80020BD32020071CC0200FEE7FEE708
:10323C00FEE7FEE7FEE7FEE7FEE7FEE7FEE7FEE75A
:10324C00FEE7FEE7FEE7FEE7FEE7FEE7FEE7FEE74A
:10325C00FEE7FEE7FEE7FEE7FEE7FEE7FEE7FEE73A
:10326C00FEE7FEE7FEE7FEE7FEE7FEE7FEE7FEE72A
:10327C00FEE7FEE7FEE7FEE7FEE7FEE7FEE7FEE71A
:10328C00FEE7FEE7FEE7FEE7FEE700BF0F484FF064
:10329C000701884385460E4880470E48016841F473
:1032AC0070010160BFF34F8FBFF36F8FFFF710BF3B
:1032BC0009480A490A4A884207D0521A05D00378AD
:1032CC0001300B700131013AF9D170470000012037
:1032DC00B9DF020088ED00E044C40300502C00204C
:0432EC00642C00202E
:1032F0000048704798C6002000B587B0039002913F
:103300000192039B44F20202934217D0039B44F2C2
:103310000202934218D8039B44F20102934210D058
:10332000039B44F2010293420ED8039B012B0DD064
:10333000039B41F2010293420AD005E0019B0593F1
:1033400007E0019B049304E000BF02E000BF00E03F
:1033500000BF084B1B6803F00103002B00D0FFDE09
:10336000019A0299039804F075F800BF07B05DF860
:1033700004FB00BFF0ED00E082B003468DF807309B
:103380009DF8073003F01F0205499DF907305B09DE
:10339000012000FA02F241F8232000BF02B070477A
:1033A00000E100E082B003468DF807309DF8073059
:1033B00003F01F0206499DF907305B09012000FA5E
:1033C00002F2203341F8232000BF02B0704700BF53
:1033D00000E100E082B003468DF807309DF8073029
:1033E00003F01F0206499DF907305B09012000FA2E
:1033F00002F2403341F8232000BF02B0704700BF03
:1034000000E100E082B003468DF807309DF80730F8
:1034100003F01F0206499DF907305B09012000FAFD
:1034200002F2603341F8232000BF02B0704700BFB2
:1034300000E100E082B0034600918DF807309DF96D
:103440000730002B0CDA009BDAB20C499DF80730EC
:1034500003F00F03043B5201D2B20B441A7609E089
:10346000009BDAB206499DF907305201D2B20B44F3
:1034700083F8002300BF02B0704700BF00ED00E0FA
:1034800000E100E084B00190244B0393019B002BEA
:1034900040D0234B1A680399019B00BF00BF00BFB7
:1034A00000BF00BF00BF00BF00BF8A422FD000BFD7
:1034B00000BF00BF00BF00BF00BF00BF00BF00BF14
:1034C00000BF00BF00BF00BF00BF00BF00BF00BF04
:1034D00000BF00BF00BF00BF00BF00BF00BF00BFF4
:1034E00000BF00BF00BF00BF00BF00BF00BF00BFE4
:1034F00000BF00BF00BF00BF00BF00BF00BF00BFD4
:1035000000BF00BF00BF00BF00BF00BF00BF013B46
:10351000C3D1019300BF04B0704700BF0024F40082
:10352000B432002000B583B00190064A019BC2F876
:10353000083506211120FFF77DFF00BF03B05DF8BD
:1035400004FB00BF0010014008B50D4B4FF4803262
:10355000C3F844230A4B4FF48032C3F804231120EC
:10356000FFF750FF1120FFF707FF054B01221A60FC
:103570002F20FFF787FF034B01221A7000BF08BD01
:10358000001001400A34002008B51120FFF70AFF9F
:103590000E4B4FF48032C3F848230C4B4FF480326B
:1035A000C3F80823094B01225A602F20FFF76AFF56
:1035B000064B01229A60064B00221A602F20FFF76B
:1035C00061FF044B00221A7000BF08BD00100140CB
:1035D000FC3300200A340020024BD3F8043518468F
:1035E000704700BF0010014082B001900091019A25
:1035F000009BD31A23F07F43184602B070470000A7
:1036000082B00190034A019BC2F8403500BF02B06E
:10361000704700BF0010014086B00190284B1B6826
:10362000002B03D1264A019B136045E0019B1A68D9
:10363000234B1B681B689A4210D8214B1B681968E2
:10364000019B1A681E4B1B688A1A1A601C4B1A6869
:10365000019BDA611A4A019B13602DE0019B1B68F4
:103660000393174B1B680593154B1B68049309E0E4
:10367000049B1B68039AD31A0393049B0593049B32
:10368000DB690493049B002B04D0049B1B68039A02
:103690009A42EDD8049B002B05D0049B1A68039B2B
:1036A000D21A049B1A60019B039A1A60019B049A28
:1036B000DA61059B019ADA6100BF06B0704700BF6E
:1036C000F833002000B587B001902A4B1B680393A4
:1036D000284B1B680593059B049308E0049A019B03
:1036E0009A4208D0049B0593049BDB690493049BD6
:1036F000002BF3D100E000BF049B002B01D100237D
:1037000033E0059A049B9A4214D11A4B1B68DB697B
:10371000184A1360174B1B68002B0BD1164B012264
:103720009A60164B00221A60154B01221A702F2046
:10373000FFF7A8FE049B1B680293049BDA69059BB4
:10374000DA61059BDB690493049B002B05D0049B85
:103750001A68029B1A44049B1A60064B1B68039A62
:103760009A4214BF01230023DBB2184607B05DF86C
:1037700004FB00BFF833002000100140FC330020A0
:103780000B34002008B51120FFF724FE00BF08BD50
:1037900008B51420FFF71EFE00BF08BD00B583B0BA
:1037A0000190019B5B69019A92691046984700BF9E
:1037B00003B05DF804FB000000B585B02B4B1B681F
:1037C000002B4ED000230193FFF706FF0246284B43
:1037D0001B6819461046FFF707FF0290234B1B6832
:1037E00003931DE0039B1B68029A9A421CD3039B20
:1037F0001B68029AD31A0293039B1B68019A134415
:103800000193039B0093039BDB690393009B1B7C49
:10381000002B05D0009B00221A740098FFF7BEFF12
:10382000039B002BDED100E000BF124B1A78124B35
:103830001B789A420CD1104B1B780133DAB20E4B35
:103840001A700D4B1B78022B02D10B4B00221A7001
:10385000094B1B781946094A019B42F82130FFF7B2
:1038600097FF00BF05B05DF804FB00BFF8330020F0
:10387000FC330020083400200934002000340020EC
:1038800082B00190184B1A78184B1B789A4223D0BB
:10389000154B1B780133DAB2134B1A70124B1B789D
:1038A000022B02D1104B00221A700F4B1B781A46C4
:1038B0000F4B53F82220019B1A60019B1A680D4B95
:1038C0001B6813440B4A13600A4B1B6823F07F43A9
:1038D000084A1360012303E0019B00221A600023C1
:1038E000184602B0704700BF083400200934002099
:1038F00000340020FC33002088B003900291019234
:103900000023079338E0204B1B680693069B1B6837
:10391000039A9A4206D2069B1A68039BD21A069B08
:103920001A602EE0069B1B68039AD31A0393069B2A
:103930001B68079A13440793069B00221A60124BD8
:103940001B680593069BDB690F4A1360069BDB68C7
:10395000002B11D0029A079B134423F07F42069B51
:103960005A60069BDA68069B9A60019B1A68069B60
:10397000DA61019B059A1A60034B1B68002BC2D1C8
:1039800000BF00BF08B07047F833002000B589B011
:10399000019000238DF81F30664B1B680593AAE049
:1039A000019B002B05D0019B0693069BDB690193CD
:1039B00061E0614B1B781A4613465B001344DB0041
:1039C0005D4A1344043304935B4B1B780133DAB232
:1039D000594B1A70584B1A78574B9B789A4202D120
:1039E000554B00221A70049B5B680693049B1B785E
:1039F000032B1ED0032B7EDC012B1FD0022B7AD190
:103A0000049B5B681846FFF75DFE0346002B02D05F
:103A100001238DF81F30069B00221A746BE0454B82
:103A20001B680393039B00221A74039BDB69414AC2
:103A30001360404B1B68002BF1D15CE000BF069B7C
:103A40001B7C002B00D056E0049B9A68069B5A60B2
:103A5000049BDA68069B9A60049B1A69069BDA60ED
:103A6000049B5A69069B9A61344B1B78002B02D049
:103A7000069B00225A60069B5A68314B1B68D31A7A
:103A800023F07F432F4A93420ED8069B5B682C4A53
:103A9000126811461846FFF7A7FD0246069B9B6871
:103AA0001A44069B1A6017E0254B1A68069B5B6850
:103AB00019461046FFF798FD0290069B9B68029AF4
:103AC0009A4206D2069B9A68029BD21A069B1A60FB
:103AD00002E0069B00221A60069B00225A60069BA9
:103AE00000229A60069B01221A74069B0022DA616A
:103AF0000698FFF791FD019B002B7FF451AF0E4B11
:103B00001A780D4B5B789A427FF44AAF9DF81F30CC
:103B1000002B04D1074B1B68059A9A4201D0012360
:103B200000E0002303F00103DBB2184609B05DF8A2
:103B300004FB00BFF8330020EC3200200B340020DF
:103B4000FC330020FEFF7F0010B588B00190274BAA
:103B50001B68002B44D0254B1B681B680793FFF79D
:103B60003BFD0690224B1B68059305990698FFF7CD
:103B70003BFD0346033304931E4B1B7883F0010384
:103B8000DBB2002B01D0FFF7DFFC049A079B9342C6
:103B900038BF1346059A13440593059B23F07F43D2
:103BA00005930598FFF72CFDFFF716FD0390069986
:103BB0000398FFF719FD0346DC1C06990598FFF7EB
:103BC00013FD03469C420DD9FFF706FD0346184638
:103BD000FFF716FD2F20FFF755FCFFF7D3FD01E09F
:103BE000FFF7D2FC00BF08B010BD00BFF8330020C3
:103BF000FC3300200A34002000B587B00023019375
:103C000000238DF81730194B1B680493184B1B6861
:103C100003936B461846FFF733FE03468DF80B30CF
:103C20009DF80B30002B08D0009B01AA0499184680
:103C3000FFF762FE01238DF81730019B1846FFF74E
:103C4000A5FE0346002B02D001238DF817309DF806
:103C50001730002B02D00398FFF776FF054B0022A8
:103C60001A7000BF07B05DF804FB00BFFC330020F2
:103C7000F83300200B34002082B003468DF8073063
:103C8000034A9DF80730537000BF02B0704700BF71
:103C9000EC32002084B00190144B5B7801338DF836
:103CA0000F30124B9B789DF80F209A4202D10023CF
:103CB0008DF80F300D4B1B789DF80F209A4201D1E3
:103CC00000230FE0019B9DF80F201A70074B5B78D3
:103CD0001A4613465B001344DB00044A13440433C2
:103CE0000293029B184604B0704700BFEC320020DC
:103CF00000B589B0039002910192009300230793CD
:103D000000238DF816300DF11603184600F0BEF9A9
:103D10000DF117031846FFF7BDFF0690069B002B19
:103D200002D10423079318E0069B01221A70069B18
:103D3000039A5A60FFF750FC0246069B9A60069B66
:103D4000029ADA60069B019A1A61069B009A5A61F0
:103D50009DF817301846FFF78FFF9DF8163018466C
:103D600000F0AAF9079B002B01D1FFF711FD079B7B
:103D7000184609B05DF804FB00B587B001900B460A
:103D80008DF803300023059300238DF80E300DF1DC
:103D90000E03184600F07AF90DF10F031846FFF7ED
:103DA00079FF0490049B002B02D1042305930BE0C0
:103DB000049B9DF803201A70049B019A5A609DF899
:103DC0000F301846FFF758FF9DF80E30184600F0E8
:103DD00073F9059B002B01D1FFF7DAFC059B184610
:103DE00007B05DF804FB000008B50E4B0022C3F8D5
:103DF00040210C4B0022C3F844210A4B0022C3F897
:103E00004821084B0022C3F84C21064B0022C3F87E
:103E10000021044B0022C3F80421FFF7CDFC00BFB2
:103E200008BD00BF0010014008B5FFF7E5FE00BF68
:103E300008BD000008B5FFF7A7FB134B00221A705E
:103E4000114B00225A70104B0B229A700F4B00221C
:103E50001A600F4B00221A700E4B00221A701420A9
:103E6000FFF7D0FA06211420FFF7E4FA1420FFF739
:103E700083FA0020FFF756FBFFF7AEFB0346064A26
:103E800013600023184608BDEC320020F8330020F0
:103E90000834002009340020FC33002086B0039051
:103EA0000B4601928DF80B30134B9B78002B01D100
:103EB00008231EE0019B002B01D1072319E0039B7F
:103EC000002B01D1072314E0039B1B681B7C002BF4
:103ED00001D008230DE0039B1B680593059B00227E
:103EE0001A74059B9DF80B205A74059B019A5A6120
:103EF0000023184606B07047EC32002000B587B0AA
:103F0000039002910192039B0593144B9B78002B25
:103F100001D108231EE0039B002B01D1082319E0E7
:103F2000029B042B01D8072314E0059B5B69002B3F
:103F300001D108230EE0059B5B7C012B01D1029B84
:103F400000E000230493019B049A02990598FFF76F
:103F5000CFFE0346184607B05DF804FBEC320020A4
:103F600000B585B00190019B03930D4B9B78002B0E
:103F700001D1082310E0019B002B03D0039B5B6958
:103F8000002B01D1082307E0039B00221A740221B1
:103F90000398FFF7F1FE0346184605B05DF804FBF1
:103FA000EC32002082B0EFF310830093009B01936A
:103FB00072B600BF019B184602B0704762B600BFE0
:103FC00000BF704700B585B00190FFF7EBFF03908D
:103FD000164B9B68002B1BD1144B01229A60144B8B
:103FE000D3F88020134B1340104A1360104B114A32
:103FF000C3F880200E4BD3F884300C4A53600C4B2E
:104000004FF0FF32C3F88420019B00221A7002E0B7
:10401000019B01221A70039B002B01D1FFF7CEFFF9
:104020000023184605B05DF804FB00BF0C340020E7
:1040300000E100E0FC06FFBD00B585B003468DF849
:104040000730104B9B68002B16D09DF80730002BD3
:1040500012D1FFF7A7FF03900B4A0A4B1B681360AE
:10406000094A084B5B685360064B00229A60039B29
:10407000002B01D1FFF7A2FF0023184605B05DF821
:1040800004FB00BF0C34002000E100E000B583B069
:10409000019000F02BF80346012B03D00549432083
:1040A00007F07AF80198FFF78DFF00BF03B05DF8C5
:1040B00004FB00BF58C4030000B583B003468DF86D
:1040C000073000F013F80346012B03D006495120B6
:1040D00007F062F89DF807301846FFF7ADFF00BF04
:1040E00003B05DF804FB00BF58C4030084B0EFF3D5
:1040F00005830193019BC3F308030393039B002BE8
:104100000DD1EFF314830093009B0293029B03F005
:104110000103002B0CBF01230023DBB200E00123CD
:10412000184604B0704782B00190019B03F003036E
:10413000002B0CBF01230023DBB2184602B07047EE
:1041400010B487B001900091019B009A53E8004F92
:1041500044EA020043E8000191F0000FF6D1059413
:1041600004900391059B184607B05DF8044B704717
:1041700010B487B001900091019B009A53E8004F62
:1041800004EB020043E8000191F0000FF6D1059422
:1041900004900391059B184607B05DF8044B7047E7
:1041A00010B487B001900091019B009A53E8004F32
:1041B00004EB020043E8000191F0000FF6D10594F2
:1041C00004900391049B184607B05DF8044B7047B8
:1041D00010B487B001900091019B009A53E8004F02
:1041E000A4EB020043E8000191F0000FF6D1059422
:1041F00004900391049B184607B05DF8044B704788
:1042000000B583B0019001210198FFF799FF0346A3
:10421000184603B05DF804FB00B585B0019000239B
:1042200003930EE00B4A039B52F82330002B05D07A
:10423000084A039B52F8233001989847039B0133A7
:104240000393039B032BEDD900BF00BF05B05DF8BE
:1042500004FB00BF2834002082B001900091019B34
:104260001B78013B052B61D801A252F823F000BF57
:104270008942020091420200B7420200E942020074
:104280000943020025430200009B00221A704EE001
:10429000009B01221A70019B1A89009B9A81019B45
:1042A0009A88009BDA81019BDA68009B9A60009BE8
:1042B00000221A743BE0009B02221A70019B1A89AB
:1042C000009B9A81019B9A88009BDA81019BDA68A6
:1042D000009B9A60019B9B7D062B0CBF0123002352
:1042E000DAB2009B1A7422E0009B03221A70019B31
:1042F000DA88009B9A81019B1A89009BDA81019BD5
:10430000DA68009B9A6012E0009B04221A70019BFD
:10431000DA88009B9A81009B0022DA81009B0022B0
:104320009A6004E0009B05221A7000E000BF00BF05
:1043300002B0704784B001900091019B0393039AEF
:10434000009B9A4206D2039B1B68B3F1FF3F01D04A
:10435000012300E0002303F00103DBB2184604B0A0
:10436000704782B00190019B5B8803339B00019AE8
:104370001344184602B0704700B583B00190009115
:104380000198FFF7EEFF0246009B934201D2022301
:104390000CE0019B9B884FF6FF72934203D0019B78
:1043A0001B88002B01D1012300E00023184603B035
:1043B0005DF804FB00B583B00190019B002B13D086
:1043C0000D4BDB681A46019B93420DD30A4B1B69C8
:1043D0001A46019B934207D80198FFF7A4FE0346B3
:1043E000002B01D0012300E0002303F00103DBB226
:1043F000184603B05DF804FB502C002082B00190F9
:10440000019B002B04D0019B1B680B4A934201D0F7
:1044100003230DE0019B04331B68084A934204D038
:10442000074A934203D1012302E0002300E0032363
:10443000184602B0704700BFDEC0ADDEFE011EF1BF
:10444000FF011EF184B00190002303930CE0039B55
:104450009B00019A13441B68B3F1FF3F01D0002376
:1044600007E0039B01330393039BB3F5806FEED307
:104470000123184604B0704782B003460A46ADF8DF
:1044800006301346ADF80430BDF806201349134634
:104490009B0013449B000B4408331A88BDF804307A
:1044A0001344ADF80430BDF806200C4913469B00B8
:1044B00013449B000B440A331A88BDF8043013449C
:1044C000ADF80430BDF8043040F2FF32934294BF9F
:1044D00001230023DBB2184602B07047D834002015
:1044E00084B0019000910A2303930023ADF80A30B1
:1044F00027E0BDF80A20174913469B0013449B0090
:104500000B4404331B68009A9A4215D9BDF80A205F
:10451000104913469B0013449B000B4404331B6853
:1045200003F58053009A9A4206D200230393019B1D
:10453000BDF80A201A8008E0BDF80A300133ADF852
:104540000A30BDF80A30012BD3D9039B184604B0BA
:10455000704700BFD834002000B589B003900291A5
:104560000192039B03F580530693039B0833039347
:10457000029B02221A80039B079332E00699079858
:10458000FFF7FAFE03468DF817309DF81730002B21
:104590000AD1079B9A68184B1B689A4213D9079B4C
:1045A0009B68154A13600EE0019B002B02D0019B13
:1045B00001221A709DF81730022B04D1029B4FF490
:1045C00080621A8014E0029B1A88079B5B88134460
:1045D0009BB203339AB2029B1A800798FFF7C1FE81
:1045E000079006990798FFF7A5FE0346002BC5D153
:1045F00009B05DF804FB00BF3834002082B00190A0
:104600000B46ADF80230019B1A89BDF80230134405
:104610009BB203339AB2019B1A81019B5A89BDF860
:104620000230D31A9BB2033B9AB2019B5A8100BF5E
:1046300002B0704700B583B0074B1B6819460023D2
:1046400000930823054A064801F0AEFD03461846CC
:1046500003B05DF804FB00BF0035002030C5030047
:10466000502C002000B585B00390039900230093DF
:104670000823044A044801F097FD0346184605B094
:104680005DF804FB38C50300502C002000B585B050
:1046900003460091ADF8063000238DF80F30BDF8C9
:1046A00006300333ADF80A30BDF80A3040F2FD326F
:1046B000934201D909234AE00023ADF80C303BE0D6
:1046C000BDF80C20244913469B0013449B000B4467
:1046D0001B78002B2BD1BDF80A20BDF80C301146F9
:1046E0001846FFF7C9FE0346002B20D001238DF8A2
:1046F0000F30009BBDF80C201A80BDF80C20164925
:1047000013469B0013449B000B440A331988BDF8E1
:104710000C20BDF80A300B4498B20F4913469B0099
:1047200013449B000B440A3302461A8008E0BDF88C
:104730000C300133ADF80C30BDF80C30012BBFD973
:104740009DF80F30002B01D0002300E0072318460E
:1047500005B05DF804FB00BFD834002082B00346EA
:104760000A46ADF806301346ADF80430BDF8042013
:104770000D4913469B0013449B000B440A331A88CF
:10478000BDF80630D31A9BB2BDF80420033B98B2A3
:10479000054913469B0013449B000B440A33024611
:1047A0001A8000BF02B07047D834002008B501213C
:1047B0000248FFF7F5FC0346184608BD38340020D0
:1047C00000B585B003460091ADF80630BDF806206F
:1047D000244913469B0013449B000B4404331B687D
:1047E00003F580530293009B1B680393039B002BEC
:1047F00004D00398FFF7B5FD039026E0BDF806202E
:10480000184913469B0013449B000B4404331B6858
:104810000833039319E002990398FFF7ADFD0346AF
:10482000022B10D0022B10DC002B02D0012B05D064
:104830000BE0009B039A1A6001230EE00398FFF738
:1048400090FD039001E0002307E002990398FFF731
:1048500071FD0346002BDED10023184605B05DF83C
:1048600004FB00BFD834002000B585B00190009152
:10487000019B5B681846FFF79DFD0346002B19D08E
:10488000019B1A89244B1B899A4213D1019B1A68F8
:10489000019B5B689B689A420CD1019B5B6819463F
:1048A0000098FFF71DFE0346002B0CBF01230023D9
:1048B000DBB22CE0009B00221A8023E0002302934D
:1048C00010E0029B0393039B9A68019B1B689A422A
:1048D00008D1029A019B5A600F4B1A89019B1A81D9
:1048E000012314E0009B1B8802AA11461846FFF71B
:1048F00067FF0346002BE4D1009B1B8801339AB26B
:10490000009B1A80009B1B88012BD7D900231846D7
:1049100005B05DF804FB00BF0835002000B587B086
:104920000390029101920093304B1B78DBB283F02D
:104930000103DBB2002B01D0022353E0019B002BCB
:1049400002D0009B002B48D105234BE0009B9B88A5
:104950001946274A0B469B000B449B0013441B78C7
:10496000002B33D124E0009B1B680593039B002B95
:1049700006D0059B9A88039B1B889A4200D017E0BB
:10498000029B002B06D0059B1A88029B1B889A422B
:1049900000D00DE0059B9A68019B1A60009B1A6885
:1049A000019B5A60134B1A89019B1A81002319E05D
:1049B000009B9B88009A11461846FFF701FF0346AB
:1049C000002BD0D1009B00221A6000E000BF009BAA
:1049D0009B8801339AB2009B9A80009B9B88012B95
:1049E000B4D90A23184607B05DF804FB1834002038
:1049F000D83400200835002000B585B00190084B60
:104A00000199184601F05FFB03901C2200210398D6
:104A100016F0BCFC039B184605B05DF804FB00BF14
:104A2000C834002000B583B00190044B01991846AA
:104A300001F060FB00BF03B05DF804FBC834002048
:104A400000B583B00190054B0199184601F066FB53
:104A50000346184603B05DF804FB00BFC8340020CD
:104A600000B583B00190044B0199184601F06DFB2D
:104A700000BF03B05DF804FBC834002008B50A4B42
:104A80001B68002B04D1094940F2712006F084FB19
:104A900001210548FFF79CFB0346002B14BF0123AF
:104AA0000023DBB2184608BD20340020CCC403002C
:104AB00000B587B0002305930023ADF8123003231F
:104AC000ADF8103000238DF80F300023ADF80C3016
:104AD000F3E0BDF80C301A03804BDB6813440293FB
:104AE0000298FFF78BFC03468DF807309DF80730DE
:104AF000032B08D0032B00F3DA80002B65D0012BA9
:104B000000F09880D3E00298FFF79CFC0346002B4E
:104B10003BD0734B1B68002B29D0BDF81220714984
:104B200013469B0013449B000B4402221A70BDF8ED
:104B300012206C4913469B0013449B000B44043322
:104B4000029A1A60BDF81220664913469B0013446E
:104B50009B000B44083302221A80634ABDF81230CE
:104B60005380BDF812300133ADF8123008E05C4AD2
:104B7000029B13605A4B02229A8001238DF80F305A
:104B8000059B43F00103059392E0BDF81030013B13
:104B9000ADF81030BDF81220524913469B00134463
:104BA0009B000B440433029A1A60BDF812204D4951
:104BB00013469B0013449B000B4403221A70BDF85C
:104BC00012300133ADF8123072E0BDF812204549C1
:104BD00013469B0013449B000B4400221A70BDF83F
:104BE0001220404913469B0013449B000B4404339E
:104BF000029A1A60BDF8122013469B0013449B00D2
:104C00000833384A9918BDF8122013469B00134404
:104C10009B001033334A13441A460298FFF79CFC5A
:104C2000059B43F002030593BDF812300133ADF844
:104C300012303DE09DF80F30002B25D0BDF812203A
:104C4000284913469B0013449B000B4402221A7010
:104C5000BDF81220224B1968224813469B001344CA
:104C60009B00034404331960BDF812201D4913460C
:104C70009B0013449B000B44083302221A80BDF8AA
:104C800012300133ADF81230154A029B1360002236
:104C900016490298FFF760FC114B9B88022B01D14B
:104CA000042300E00823059A1343059300E000BFA6
:104CB000BDF80C300133ADF80C30BDF80C30022BD0
:104CC0007FF607AFBDF81030012B01D80023059304
:104CD000059BDBB2184607B05DF804FB502C0020A2
:104CE00000350020D834002008350020043500208D
:104CF00000B587B003900291039B02229A75029936
:104D0000039B1A1D002300930423074801F04CFA6B
:104D10000590059B002B01D1002300E00E231846CF
:104D200007B05DF804FB00BF502C002000B587B031
:104D300003900291039B1B69002B01D0032200E02A
:104D40000122039B9A75029B08331946039B03F1CA
:104D50000C02002300930423064801F025FA059075
:104D6000059B002B01D1002300E00E23184607B05D
:104D70005DF804FB502C002000B587B00390029131
:104D8000039B1B78032B01D1052200E00622039B25
:104D90009A75029B04331946039B03F10802002312
:104DA00000930423064801F0FFF90590059B002BB2
:104DB00001D1002300E00E23184607B05DF804FB84
:104DC000502C002000B587B003900B46ADF80A3098
:104DD00003990023009304230C4A0D4801F0E4F9E1
:104DE0000590059B002B01D00E230BE0BDF80A2097
:104DF000084913469B0013449B000B4410330122C7
:104E00001A700023184607B05DF804FB40C5030084
:104E1000502C0020D834002000B589B0019002AB9E
:104E200000221A605A609A60019BDB6802930DF1C0
:104E3000160202AB11461846FFF716FD0346002B7B
:104E400012D0039B0693069B9A88019BDA80069BEF
:104E50001A88019B1A81039BBDF81620114618463B
:104E6000FFF7B0FF079001E00A230793079B18465E
:104E700009B05DF804FB000000B587B00190019B0C
:104E8000981D02AA0D4B0021FFF748FD0590059BD8
:104E9000002B08D1039B094A928811461846FFF758
:104EA00091FF059004E008220021044816F06EFAF4
:104EB000059B184607B05DF804FB00BF18350020BD
:104EC00000B587B003900291039B01229A75029B63
:104ED0000C331846039B1A69039BDB889B00002157
:104EE00000910146064801F05FF90590059B002BF3
:104EF00001D1002300E00E23184607B05DF804FB43
:104F0000502C002082B0184B1B8901339AB2164BEB
:104F10001A81154B00225A80134B00221A7300236A
:104F2000ADF8063018E0BDF80620104913469B0086
:104F300013449B000B441A78BDF80630002A0CBFBE
:104F400001220022D1B2084A13440A469A72BDF8DF
:104F500006300133ADF80630BDF80630012BE2D93A
:104F600000BF00BF02B0704708350020D8340020D1
:104F700084B0019000238DF80F300023ADF80C3081
:104F800031E0BDF80C301C4A13449B7A002B25D02D
:104F9000BDF80C30184A134400229A72BDF80C2058
:104FA000164913469B0013449B000B440C331B68AB
:104FB000002B13D1BDF80C20104913469B0013445D
:104FC0009B000B4410331B78002B07D0019BBDF8CE
:104FD0000C201A8001238DF80F3008E0BDF80C304A
:104FE0000133ADF80C30BDF80C30012BC9D99DF858
:104FF0000F30184604B0704708350020D834002020
:1050000008B5084B05221A70074B02229A80064BFE
:105010001B68194600230122044801F017F90346D2
:10502000184608BD0835002000350020502C00200F
:1050300000B583B0164B5B88ADF80230BDF8022096
:10504000144913469B0013449B000B440C331B680C
:10505000002B14D10E4B04221A70BDF802200D490A
:1050600013469B0013449B000B4404331B681946F2
:1050700000230122084801F0E9F8019002E0FFF75F
:10508000BFFF0190019B184603B05DF804FB00BF11
:1050900008350020D8340020502C002000B587B0FF
:1050A000104B5B680593104B1A680F4B9B889B0055
:1050B00013440493059B5B880333ADF80E30094B12
:1050C00003221A700499074B5A68BDF80E309B00F2
:1050D00000200090054801F067F80346184607B025
:1050E0005DF804FB0835002000350020502C00201E
:1050F00000B583B00A4B5B880A491846FFF760FB8E
:105100000346002B03D0FFF7C9FF019002E0FFF731
:105110008FFF0190019B184603B05DF804FB00BFB0
:10512000083500200C35002008B50A4B06221A70FD
:10513000084B5B881946084A0B469B000B449B00B2
:10514000134404331B681846FFF78CFA03461846CD
:1051500008BD00BF08350020D834002008B5054B35
:1051600007221A70034B00225A60FFF763FA0346C6
:10517000184608BD0835002008B50D48FFF7F8FEB1
:10518000034683F00103DBB2002B0BD0094B002256
:105190001A70084B00225A80064B00225A6041F6D2
:1051A0001D5302E0FFF7A4FF0346184608BD00BFE9
:1051B0000A3500200835002082B0094B5B68019356
:1051C000019B5B880333ADF80230064B9A88BDF82B
:1051D000023013449AB2034B9A8000BF02B070476A
:1051E000083500200035002082B0184B1B68019361
:1051F000174B5B881946174A0B469B000B449B00D4
:10520000134404331B68114A1360114B5B88194621
:10521000104A0B469B000B449B0013440433019A35
:105220001A600B4B5B881946084B9888094A0B4655
:105230009B000B449B001344083302461A80034B27
:1052400002229A8000BF02B0704700BF00350020E4
:1052500008350020D834002008B51A4B1B78072BDE
:105260002CD801A252F823F089520200BD5202004C
:10527000BD52020095520200A1520200AD5202003E
:10528000AD520200B5520200FFF73CFE0D4B012269
:105290001A7014E0FFF790FF0A4B02221A700EE01A
:1052A000FFF7A2FF074B06221A7008E0054B072202
:1052B0001A7004E0034B01221A7000E000BF00BF27
:1052C00008BD00BF0835002000B587B001900091EF
:1052D0000F230593019B002B04D0624B00225A60E0
:1052E0000123BBE0009B1B79032B00F2AB8001A2E2
:1052F00052F823F00553020013530200A153020099
:10530000C1530200009B01221A71FFF793F9059027
:105310009BE000238DF813300023ADF810302BE014
:10532000BDF81020504913469B0013449B000B44CA
:105330001B78022B1BD1BDF810204B4913469B0054
:1053400013449B000B4400221A7001238DF8133084
:10535000BDF81020444913469B0013449B000B44A6
:1053600004331B681846FFF77DF9059008E0BDF887
:1053700010300133ADF81030BDF81030012BCFD90B
:105380009DF8133083F00103DBB2002B5CD0354B6A
:1053900001221A70334B00225A6041F61D535DE022
:1053A000009B00221A71314B02229A802F4B1B68FE
:1053B0001946002301222E4800F048FF059044E0E2
:1053C000009B00221A71294B1B681846FFF74AF907
:1053D0000590284B5B88ADF80E30244B1B68029378
:1053E000BDF80E20204913469B0013449B000B443C
:1053F00004331B681D4A1360BDF80E201A4913467A
:105400009B0013449B000B440433029A1A60BDF8BE
:105410000E20164B9888144913469B0013449B009A
:105420000B44083302461A80104B02229A80BDF8C2
:105430000E200D4913469B0013449B000B44002291
:105440001A7002E000BF00E000BF059B002B04D0F3
:10545000044B00225A600E2300E00023184607B0D8
:105460005DF804FB18340020D834002000350020FB
:10547000502C00200835002000B587B00190009125
:10548000009B9B8A1A4613469B0013449B003C4A90
:1054900013440493019B002B07D0009BDB88194623
:1054A0000498FFF7ABF8012365E0049B5A68049B5E
:1054B0001B899B0013440393009B9B7D062B4DD8B7
:1054C00001A252F823F000BF0B5502002F55020035
:1054D0001755020023550200E55402003B55020017
:1054E00055550200274B00225A60009B9B69254AB4
:1054F000136025492348FFF7B7F9034683F00103FA
:10550000DBB2002B01D00A2335E003990098FFF7A6
:10551000EFFB059025E003990098FFF707FC059045
:105520001FE003990098FFF7CBFC059019E0039961
:105530000098FFF721FC059013E0009B06229A7566
:10554000104B5B68104A128811461846FFF73AFC68
:10555000059006E041F61D53059302E00F230593E5
:1055600000BF059B002B05D0009BDB8819460498E3
:10557000FFF744F8059B184607B05DF804FB00BF31
:10558000D8340020203500202C35002000B585B00F
:1055900001900091019B002B01D0012326E0009B8C
:1055A0001B79022B19D0022B1BDC002B02D0012B04
:1055B00008D016E0009B02221A710098FFF72CFC1D
:1055C000039012E00098FFF757FC0390039B0A2B0F
:1055D0000AD141F61D53039306E041F61D53039390
:1055E00003E00F23039300E000BF039B184605B0C0
:1055F0005DF804FB00B585B00190019B002B01D044
:1056000001233BE01F4B1B7B002B03D01D4B0022D3
:105610001A7301E0FFF720FE1A4B1B78013B062BA3
:1056200028D801A252F823F0455602004D56020038
:10563000555602005D56020075560200655602007E
:105640006D560200FFF798FD039016E0FFF750FD3E
:10565000039012E0FFF722FD03900EE0FFF7E8FC55
:1056600003900AE0FFF760FD039006E0FFF776FD88
:10567000039002E00F23039300BF039B184605B07D
:105680005DF804FB0835002000B589B001903F4B60
:105690001B68002B05D13E48FFF7D2F903463B4A71
:1056A00013603A4B1B68002B04D13A4940F2795001
:1056B00005F072FD354B1B681B78013B052B2CD880
:1056C00001A252F823F000BFE1560200F156020099
:1056D000F156020001570200015702001157020063
:1056E0002A4B1B6819460198FFF7EEFD019017E061
:1056F000264B1B6819460198FFF7BEFE01900FE08C
:10570000224B1B6819460198FFF740FF019007E004
:105710000198FFF76FFF019002E00F23019300BF94
:10572000019B002B2BD003AB14220021184615F04F
:105730002DFE019B41F61D52934204D10023049398
:105740000023019301E0019B0493104B1B6803AA03
:1057500011461846FEF780FD03AB1846FEF75CFDC8
:105760000A4B00221A600A48FFF77AF9FFF786F918
:10577000034683F00103DBB2002B02D187E700BFB1
:1057800000E000BF00BF09B05DF804FB3035002029
:1057900034350020CCC4030008B501210548FEF7CC
:1057A000E7FC0346002B02D10020FFF76DFF00BF8E
:1057B00008BD00BF2034002000B583B00190019BDC
:1057C0005B681846FFF760FF00BF03B05DF804FB9D
:1057D00000B58BB00390029101928DF80330002345
:1057E000ADF824300023ADF82630514B1B78DBB2E6
:1057F00083F00103DBB2002B01D0022393E0029B74
:10580000002B01D105238EE0029B1B884FF6FF720F
:10581000934203D0029B5B88002B01D1042382E0DA
:10582000029B5B681846FEF77EFC034683F001038B
:10583000DBB2002B01D0032375E0019B002B11D1BB
:10584000029B9B68ADF826300DF11A02BDF8263098
:1058500011461846FEF71AFF0890089B002B09D046
:10586000089B60E0019B1B88ADF81A30019B5B88A8
:10587000ADF8263005AB1846FFF7BEF80790079B3A
:10588000002B09D1BDF81A20BDF826301146184664
:10589000FEF764FF082346E0079B9DF803201A707B
:1058A000079B00229A75BDF81A20079B9A82029BDB
:1058B0005A68079B1A61FEF779FF0246079BDA6078
:1058C000029B1A88079B1A81029B5A88079B9A8021
:1058D000079BBDF82620DA809DF80330032B06D104
:1058E000079B04229A75039B1A68079B9A61079B82
:1058F000BDF824205A8105AB1846FFF793F8039BA7
:10590000002B0DD0039B00225A60079BDA68039B93
:105910001A60039B00229A72064B1A89039B1A8114
:10592000FFF73AFF002318460BB05DF804FB00BFF9
:10593000183400200835002000B585B001900C4BCC
:105940001B68042B02D10C2303930BE0084B1B684C
:105950000849019A41F8232001210548FEF720FC5F
:1059600000230393039B184605B05DF804FB00BFBA
:10597000243400202834002084B04FF010235B69C9
:1059800003934FF080531B6902934FF080535B6980
:105990000193039BB3F1FF3F04D1019B029A02FBE9
:1059A00003F300E0039B184604B0704700B583B0D2
:1059B0004FF440530193FFF7DFFF0346054A13619D
:1059C000044B1A69019BD31A024AD36000BF03B08B
:1059D0005DF804FB502C002008B5FFF7E7FF00221C
:1059E0000349044800F0C5FB0346184608BD00BF44
:1059F00050C50300502C002008B504481C238C22FD
:105A0000034900F019FB00BF08BD00BFC8340020E7
:105A10003C34002000B58BB002AB00221A605A6003
:105A20009A60DA601A61414B1B78DBB2002B05D01B
:105A300002AB1846FEF7F0FB002373E03C48FEF78C
:105A4000DFFB0346002B01D000236BE0FFF7C4FF10
:105A50000990099B002B01D0099B63E0FFF7CCFF65
:105A6000FFF726F803468DF823309DF82330062BE8
:105A700007D0062B11DC002B01D0022B0DD10B23FC
:105A800050E02A4B01221A70284B00225A6002ABC8
:105A90001846FEF7C1FB002344E000BF01AB1846E7
:105AA000FEF7AAFF0790079B002B01D1082339E0DE
:105AB000079B01221A709DF82330013B0A2B29D83D
:105AC00001A252F823F000BFF55A0200155B020054
:105AD000F55A0200155B02000D5B0200155B020027
:105AE0000D5B0200155B0200FD5A0200055B02001F
:105AF000FD5A0200079B00221A710CE0079B03224B
:105B00001A7108E0079B02221A7104E0079B012228
:105B10001A7100E000BF01AB1846FEF783FFFFF7E4
:105B20003BFE002318460BB05DF804FB1834002040
:105B30001C34002000B585B001900091019B002B22
:105B400002D0009B002B01D1052329E00DF10A03AF
:105B500019460198FEF788FE0346002B1FD0019BD3
:105B60005B680393BDF80A301A4613469B00134442
:105B70009B0008330C4A1344043301211846FEF7F6
:105B80000FFB009B039A1A60019B5B6803F10C02F8
:105B9000009B5A60019B01229A72002300E00A23B5
:105BA000184605B05DF804FBD834002000B585B078
:105BB0000190019B002B01D1052339E00DF10A036F
:105BC00019460198FEF750FE0346002B2DD0BDF874
:105BD0000A301946184A0B469B000B449B0013449D
:105BE0000C331B68002B1DD0019B9B7A002B19D016
:105BF000BDF80A301A46104913469B0013449B0017
:105C00000B440C331B68591E0B4813469B0013446E
:105C10009B0003440C331960019B00229A720023FD
:105C2000039304E00623039301E00A230393039BF9
:105C3000184605B05DF804FBD834002000B585B0E7
:105C400001900B46ADF80230134B1B78DBB283F0AA
:105C50000103DBB2002B01D0022319E0019B002BD2
:105C600001D1052314E00DF10A02BDF802301146FE
:105C70001846FEF70BFD0390039B002B07D1BDF8E0
:105C80000A20019B1A80019BBDF802205A80039BC9
:105C9000184605B05DF804FB1834002000B585B047
:105CA00001901F4B1B78DBB283F00103DBB2002BAA
:105CB00001D002232FE0019B002B01D105232AE014
:105CC000019B1B88022B01D9042324E0019B1B8824
:105CD0001A4613469B0013449B00124A1344029336
:105CE000019B5B880233029A5289934210DA019B2E
:105CF0005A88019B1B8819461046FEF72FFD019B11
:105D000000221A80019B00225A800023039301E0A5
:105D100004230393039B184605B05DF804FB00BF02
:105D200018340020D834002000B583B001900091D1
:105D30000223002200990198FFF74AFD0346184606
:105D400003B05DF804FB00B585B0039002910192A9
:105D5000019B002B01D1052306E00223019A029941
:105D60000398FFF735FD0346184605B05DF804FBC0
:105D700000B583B001900091019B002B01D1052358
:105D800006E00323002200990198FFF721FD034656
:105D9000184603B05DF804FB00B585B00346ADF8C6
:105DA0000630184B1B78DBB283F00103DBB2002B0B
:105DB00001D0022322E0BDF806304FF6FF72934275
:105DC00001D104231AE002AB1846FEF715FE03903A
:105DD000039B002B01D1082310E0039B05221A70BE
:105DE000039B01221A71039BBDF80620DA8002ABE7
:105DF0001846FEF717FEFFF7CFFC0023184605B044
:105E00005DF804FB1834002000B583B0144B1B78F8
:105E1000DBB283F00103DBB2002B01D002231AE0D6
:105E20006B461846FEF7E8FD0190019B002B01D15F
:105E3000082310E0019B06221A706B461846FEF7F5
:105E4000F1FD084B1B78002B02D0064B01221A7380
:105E5000FFF7A2FC0023184603B05DF804FB00BF67
:105E6000183400200835002000B585B00292019357
:105E70000346ADF80E300B46ADF80C3003A90DF11A
:105E80000E00019B029AFEF749FD0346184605B035
:105E90005DF804FB00B585B0034602910192ADF8B0
:105EA0000E300DF10E01019B029A0020FEF736FD27
:105EB0000346184605B05DF804FB00B585B00346FF
:105EC00002910192ADF80E300DF10E00019B029A85
:105ED0000021FEF723FD0346184605B05DF804FBDC
:105EE00082B001900091019B002B02D0009B002BFF
:105EF00001D1052304E0019B1A68009B1A6000236E
:105F0000184602B0704786B001900091019B53E89B
:105F1000011F8AB2D88902449889824228BF121A86
:105F20001889824202BFBFF32F8F002307E0C2EA25
:105F3000010243E801200028E9D14FF001038DF868
:105F40000F30059002910492029A009B1A609DF80E
:105F50000F30DBB2184606B0704784B0019001994B
:105F600051E8013FC3EA034341E80132002AF7D177
:105F70000392029300BF04B0704786B00190009175
:105F8000019B53E8021F1FFAA1F2D888824202BF88
:105F9000BFF32F8F00230DE0D889024498898242F5
:105FA00028BF121AC1EA024243E802200028E8D1C1
:105FB0004FF001038DF80F30059002910492029A80
:105FC000009B1A609DF80F30DBB2184606B0704790
:105FD00084B00190019951E8023FC3EA234341E8AC
:105FE0000232002AF7D10392029300BF04B0704737
:105FF00086B00190019B53E8021FDA88B1EB314F64
:106000004FF0000017BF89B242EA024241EA024261
:1060100004E05968B1EB314F08BF012043E8022189
:106020000029E8D18DF80F00059104929DF80F30FA
:10603000DBB2184606B0704784B003900291114657
:106040001A460B46ADF806301346ADF80430029BF5
:10605000002B01D10E231FE0BDF80630BDF804204F
:10606000B3FBF2F102FB01F29B1A9BB2002B01D0B1
:10607000092311E0039B029A1A60039B00225A60D5
:10608000039B00229A60039BBDF806209A81039B24
:10609000BDF80420DA810023184604B0704700B52B
:1060A00085B001900198FFF7A3FF03468DF80F30EC
:1060B0009DF80F30002B01D0002300E0112318467B
:1060C00005B05DF804FB00B583B001900091009B22
:1060D00019460198FFF717FF0346002B05D0019BD7
:1060E0001B68009A1288134400E00023184603B08E
:1060F0005DF804FB00B583B001900091009B1A8805
:10610000009B5B889A4204D10198FFF726FF012388
:1061100000E00023184603B05DF804FB00B583B02F
:1061200001900091009B19460198FFF726FF034656
:10613000002B05D0019B1B68009A5288134400E095
:106140000023184603B05DF804FB00B583B001904E
:106150000091009B1A88009B5B889A4204D10198A9
:10616000FFF736FF012300E00023184603B05DF877
:1061700004FB00B585B0039002910192039B002BB4
:1061800002D0029B002B01D10E2309E0039B029A4F
:106190001A60039B1B681B68019903989847034684
:1061A000184605B05DF804FB10B586B00590049163
:1061B00003920293059B002B02D0039B002B01D17D
:1061C0000E2340E0059B1B68002B01D108233AE019
:1061D000029B002B0AD0059B5B685A68029BB3FBAD
:1061E000F2F102FB01F29B1A002B01D009232AE0F5
:1061F000049800F0C7F8034683F00103DBB2002BDC
:1062000014D1039B184600F0BDF8034683F0010348
:10621000DBB2002B0AD1029A0499059800F098F895
:10622000034683F00103DBB2002B01D010230AE008
:10623000059B1B68DC68089B0093029B039A0499EA
:106240000598A0470346184606B010BD10B584B0A7
:106250000390029101920093039B002B01D10E2326
:106260002EE0039B1B68002B01D1082328E0019B33
:10627000002B01D1092323E0039B5B681B685A1E96
:10628000029B1340002B10D1039B5B681B68019A93
:1062900002FB03F31A460299039800F059F80346EB
:1062A00083F00103DBB2002B01D0102308E0039B35
:1062B0001B681C69009B019A02990398A04703463A
:1062C000184604B010BD000000B585B00190019BD8
:1062D000002B03D0019B1B68002B28D100230393C4
:1062E00019E0039A13469B0013449B001A46154B72
:1062F00013440193019B1B68002B09D0019B1B6871
:10630000DB69019898470346002B01D0012314E074
:10631000039B013303930C4A0A4BD31A0B4AA2FB8B
:1063200003231B09039A9A42DBD3002305E0019B58
:106330001B68DB69019898470346184605B05DF86D
:1063400004FB00BF502C0020642C0020CDCCCCCC12
:1063500084B0039002910192039BDB68029A9A42F7
:1063600009D3029A019B13445A1E039B1B699A424C
:1063700001D8012300E0002303F00103DBB218463B
:1063800004B0704782B00190019B03F00303002B1F
:106390000CBF01230023DBB2184602B0704729DF8F
:1063A000704700BF184628DF704700BF184610B47A
:1063B00087B001900091019B009A53E8004F10466E
:1063C00043E8000191F0000FF7D105940490039188
:1063D000059B184607B05DF8044B704710B487B0B2
:1063E00001900091019B009A53E8004F44EA02009B
:1063F00043E8000191F0000FF6D105940490039159
:10640000059B184607B05DF8044B704700B583B094
:10641000019001210198FFF7E1FF0346184603B000
:106420005DF804FB00B589B001900091019B1B68E9
:106430009B68002B31D003AB00221A605A609A602F
:10644000DA601A61009B0493019B9B680793019B90
:106450001B79002B02D0012B0AD017E001238DF805
:106460000C30019B1B690593019B5B6906930DE052
:1064700002238DF80C30019BDB684FF4805202FB45
:1064800003F30593019B5B69069300BF019B1B68A7
:106490009B6803AA1046984700E000BF09B05DF86A
:1064A00004FB00B587B00190019B5A69019B9B6971
:1064B000D31AB3F5805F28BF4FF4805305930422AD
:1064C000059BB3FBF2F3012B38BF01230593019B1E
:1064D0001A69019B9B6913440493019BDB681A466C
:1064E000019B9B6913440393059A03990498FFF752
:1064F00056FF0346184607B05DF804FB00B583B0AD
:106500000190019BDA68019B1B6913441846FFF751
:106510004AFF0346184603B05DF804FB08B5034B79
:1065200003491846FFF711FE00BF08BDC43500201F
:10653000EC35002008B5084B08491846FFF7EEFD7A
:106540000346074A1360064B1B68002B14BF012348
:106550000023DBB2184608BDC4350020EC3500200E
:10656000E835002000B583B0294B1B7A002B0BD1F6
:10657000FFF7E0FF034683F00103DBB2002B03D0FB
:10658000234B00225A6040E0214B02221A72214B19
:106590001B681B79002B02D0012B07D00DE01D4B8F
:1065A0001B681846FFF77DFF019009E0194B1B6837
:1065B0001846FFF7A3FF019002E00323019300BFF9
:1065C000019B002B03D0019B112B0CD00FE0104B33
:1065D0001B7C83F00103DBB2002B15D000210220CD
:1065E00000F064F910E00A4B01221A720DE0094B29
:1065F0001B6803211846FFF715FF054B00221A728E
:10660000034B00225A6000E000BF03B05DF804FBBA
:10661000D4350020E835002000B583B001210A48B8
:10662000FFF7C5FE03460193019B002B08D1074BE2
:106630005B7C83F00103DBB2002B01D0FFF792FFFC
:1066400000BF03B05DF804FBD8350020D43500202E
:1066500084B001901B4B0022DA60019B1B79002B58
:1066600002D0012B19D028E0019B5A69019B9B693C
:10667000D31AB3F5805F28BF4FF480530393019B77
:106680009A69039B1A44019B9A61019B9A69019B39
:106690005B699A420ED1012310E0019B1B695A1CD1
:1066A000019B1A61019B1A69019B5B699A4203D1A4
:1066B000012303E000BF00E000BF0023184604B040
:1066C000704700BFD435002082B00190084BDB68D2
:1066D0000133074AD360064BDB68082B04D9044B0F
:1066E0000022DA60012300E00023184602B0704760
:1066F000D435002000B583B0019000910C48FFF71D
:1067000085FE0346002B0ED1019B0A4A5A6009F010
:1067100027FB03461A46064B1A7407481C238C2293
:106720000649FFF789FC0023184603B05DF804FB17
:10673000D435002044C50300C4350020383500207E
:1067400000B583B00190009114220021054814F097
:106750001DFE054B1846FFF7A2FC0023184603B0A8
:106760005DF804FBD4350020C435002000B587B0A7
:106770000390029101920093174A04AB1946104608
:10678000FFF7A1FC0590059B002B01D104231FE01E
:106790001C220021059814F0F9FD059B00221A71B6
:1067A000059B039A1A60059B089A9A60059B029ABA
:1067B0001A61059B019ADA60059B009A5A61064AA4
:1067C00004AB19461046FFF795FCFFF725FF0023A1
:1067D000184607B05DF804FBC435002000B585B04D
:1067E0000390029101920093029B009A194601982E
:1067F00014F0A3FD0023184605B05DF804FB00006B
:1068000000B587B00390029101920093184A04AB3F
:1068100019461046FFF757FC0590059B002B01D148
:10682000042320E01C220021059814F0AFFD059BF5
:1068300001221A71059B039A1A60059B009A9A60BF
:106840004FF48052029BB3FBF2F2059BDA60059B8A
:10685000019A5A61064A04AB19461046FFF74AFCF2
:10686000FFF7DAFE0023184607B05DF804FB00BF0F
:10687000C435002082B001900091009B184602B000
:10688000704782B0019000910023184602B0704713
:1068900082B00190044B1B7A002B14BF012300230C
:1068A000DBB2184602B07047D435002000B585B081
:1068B00001900091254B1B7A012B33D0022B41D143
:1068C00000238DF80F30019B022B03D0019B032B7B
:1068D00009D011E01E4B1B681846FFF7B9FE0346AE
:1068E0008DF80F3008E01A4B1B681846FFF7ECFED6
:1068F00003468DF80F3000BF9DF80F30002B13D0EA
:10690000124B00221A72124B1A68019B022B01D102
:10691000002300E00D2319461046FFF783FDFFF723
:10692000FDFD01E000BF00E000BF084B5B7C83F091
:106930000103DBB2002B02D0FFF714FE03E009F0E5
:10694000F3F900E000BF05B05DF804FBD43500208A
:10695000E835002082B0034600918DF80730064BE1
:1069600001225A74044B1B7A002B0CBF0123002315
:10697000DBB2184602B07047D435002000B583B0B2
:10698000034600918DF807309DF80730012B03D0A6
:106990009DF80730032B0DD1084B00225A749DF847
:1069A0000730012B0CBF01230023DAB2034B1A740A
:1069B000FFF7D8FD00BF03B05DF804FBD43500201D
:1069C00000B583B001900091019B002B03D11049C9
:1069D000502004F0E1FB009B002B03D10C49512017
:1069E00004F0DAFB019B009A1A60019B1B681A688D
:1069F000019B5A60019B5A68019B1B685B689A4225
:106A000002D1019B00225A6000BF03B05DF804FB75
:106A100070C5030000B583B00190019B002B03D12A
:106A20001449632004F0B8FB019B1B68002B03D1C1
:106A30001049642004F0B0FB019B5B68002B14D06C
:106A4000019B5B681A46019B1B689B6813441A46AE
:106A5000019B5A60019B5A68019B1B685B689A42C4
:106A600004D1019B00225A6000E000BF03B05DF832
:106A700004FB00BF70C5030082B001900B46ADF867
:106A80000230019B1A68BDF80230012101FA03F3BC
:106A90001A43019B1A6000BF02B0704782B0019098
:106AA0000B46ADF80230019B1A68BDF80230012197
:106AB00001FA03F3DB431A40019B1A6000BF02B0E6
:106AC000704782B001900B46ADF80230BDF802303D
:106AD000012202FA03F31A46019B1340002B14BF54
:106AE00001230023DBB2184602B0704700B585B021
:106AF00001900023ADF80E3010E0BDF80E301946BD
:106B00000198FFF7DEFF0346002B02D0BDF80E30E0
:106B10000AE0BDF80E300133ADF80E30BDF80E308E
:106B20001F2BEAD94FF6FF73184605B05DF804FB3A
:106B300000B587B00590049111461A460B46ADF892
:106B40000E3013468DF80D30BDF80E209DF80D3037
:106B50000093134601220499059800F004F800BF41
:106B600007B05DF804FB00B587B003900291019275
:106B7000ADF80230039B002B3BD0029B002B38D09A
:106B8000019B002B35D0002305932FE0059B5B0074
:106B9000039A13441B88BDF802209A4223D1002394
:106BA00004931BE09DF82030002B0AD0049B9B002F
:106BB000029A1344059A92B211461846FFF75CFFF9
:106BC00009E0049B9B00029A1344059A92B2114675
:106BD0001846FFF763FF049B01330493049A019B5B
:106BE0009A42DFD305E0059B01330593059B1F2BDC
:106BF000CCD907B05DF804FB00B587B003900291D3
:106C00001346ADF80630039B002B19D000230593E3
:106C100013E0059B5B00039A13441B88BDF8062014
:106C20009A4207D1059B9BB219460298FFF749FF8C
:106C3000034606E0059B01330593059B1F2BE8D90E
:106C40000023184607B05DF804FB00B597B0039029
:106C50000291019200230493029B002B1ED000237B
:106C6000159318E0159B9BB219460198FFF729FF71
:106C70000346002B0CD0159B5B00029A1A44049B20
:106C8000591C049112885B0016A90B4423F8442C6C
:106C9000159B01331593159B1F2BE3D9039B1846B6
:106CA00004AB4422194614F048FB039817B05DF872
:106CB00004FB00B585B001900023039300230293E9
:106CC0000EE0029B9BB219460198FFF7FAFE0346BD
:106CD000002B02D0039B01330393029B01330293E9
:106CE000029B1F2BEDD9039B184605B05DF804FBF2
:106CF00084B00190019B9B680393019BDA68039B1E
:106D0000D31A184604B0704700B587B001900091BF
:106D1000019B1B78022B3BD0022B60DC002B48D060
:106D2000012B5CD1019B5B681B7819462E4800F053
:106D3000EEF90590059B002B0AD001238DF80C304D
:106D4000059B0493294B1B6803AA104698470DE046
:106D50002548FFF7CDFF0346002B07D000238DF811
:106D60000C30224B1B6803AA104698471E48FFF7B9
:106D7000BFFF03461C4A9288934205D801221C4952
:106D80001C4803F0BFF92BE01B4B01221A7027E0CF
:106D900002238DF80C30019BDB6804930122144917
:106DA000144803F0AFF9114B1B6803AA104698472B
:106DB00016E01249124800F0C5F90346002B05D130
:106DC00001220E490B4802F093FF09E003238DF8DE
:106DD0000C30064B1B6803AA1046984700E000BF22
:106DE00000BF07B05DF804FBFC350020F035002043
:106DF000F8350020642C0020F9350020F4350020FF
:106E00000C36002030B58FB00390029101928DF8BE
:106E100003303E4A019B1360029B002B01D10723E4
:106E200071E0029B1968029B5B689BB21A46384866
:106E300000F041F90D900D9B002B01D00D9B62E0FD
:106E4000029B9968029BDB689BB21A46314800F0AE
:106E500032F90D900D9B002B01D00D9B53E02E4B72
:106E600005AC1D460FCD0FC495E80F0084E80F0058
:106E7000039B5B690B93039B1B7C002B14BF0123BB
:106E80000023DBB28DF828309DF803308DF83030C8
:106E9000039B5B7C002B01D00E2300E000238DF8C8
:106EA0002930039BDB680793039B9B680893039B34
:106EB0001B680693039B5B68059305AB174A19464D
:106EC000174802F0CFFD0D900D9B002B01D00D9BBC
:106ED00019E0144B00221A70039B1B68B3F1FF3FAB
:106EE00010D09DF8313083F00103DBB2002B02D0CB
:106EF0000B4803F0CBF901220B49094803F002F9D2
:106F0000034600E0002318460FB030BDF0350020E6
:106F1000FC3500200C360020F8C50300096D020086
:106F2000642C0020F9350020F835002000B587B02A
:106F30000190019B002B03D11449C92004F02CF9C6
:106F4000134B1B788DF817300199124800F0FAF8AE
:106F500004909DF81730002B12D00D4B00221A70B0
:106F600001220D490D4803F0CDF80390039B0293D5
:106F7000029B002B04D0054AD521029800F052FA5A
:106F8000049B184607B05DF804FB00BF18C6030059
:106F9000F9350020FC350020F8350020642C002055
:106FA00000B585B003468DF807309DF807301946C7
:106FB000104800F0ACF80390039B002B15D10E484D
:106FC00002F002FF034683F00103DBB2002B0CD07A
:106FD0000A49084800F0B6F80346002B05D1012203
:106FE0000649054802F084FE0390039B184605B04D
:106FF0005DF804FB0C360020642C0020F4350020E2
:1070000000B583B001900091019BDBB21846FFF7F9
:10701000C7FF019B184603B05DF804FB84B00190E4
:10702000019B9B680393019BDA68039BD31A184664
:1070300004B0704782B001900B468DF80330019B7D
:107040001A68019BDB68019989880B4013449DF8FD
:1070500003201A70019BDB685A1C019BDA6000BF99
:1070600002B0704784B003900B460192ADF80A302D
:10707000039B1A68039B9968BDF80A300B44039977
:1070800089880B4013441A78019B1A7000BF04B022
:10709000704700B583B001900091009A00210198DB
:1070A000FFF7E0FF019B9B685A1C019B9A6000BFA1
:1070B00003B05DF804FB84B0039002911346ADF871
:1070C0000630029B002B01D10E231DE0BDF80630D7
:1070D000002B07D0BDF806305A1EBDF8063013400D
:1070E000002B01D009230FE0039B029A1A60BDF820
:1070F0000630013B9AB2039B9A80039B00229A6060
:10710000039B0022DA600023184604B0704700B5E4
:1071100083B001900B468DF803300198FFF77EFF96
:107120000246019B9B889A4207D89DF80330194676
:107130000198FFF77FFF002300E00423184603B007
:107140005DF804FB00B583B0019000910198FFF752
:1071500065FF0346002B05D000990198FFF799FFC2
:10716000002300E00523184603B05DF804FB00008F
:1071700000B589B0019000238DF81F3051E02E4BEF
:107180001A689DF81F30DB0013440693069B1B789A
:107190001A46012393400593284B1A68059B134018
:1071A000002B39D0059BDA43244B1B681340234A3C
:1071B0001360069B1B78184601F0D0FA03468DF841
:1071C0001330069B1B781A46012393401A461C4B2A
:1071D0001B6813409DF81320069909788A40934252
:1071E0001AD19DF81330069A5278012A0CBF012259
:1071F0000022D2B293420CBF01230023DBB20393DF
:10720000069B5B68002B07D0069B5B68069A12788A
:107210000399C9B2104698479DF81F3001338DF885
:107220001F30084B1B789DF81F209A42A7D300BF40
:1072300000BF09B05DF804FB1C3600204C3600206E
:10724000483600202036002000B585B001900B465E
:107250008DF803300122019B02FA03F303931E4BC6
:107260001846FCF77DFE0290029B002B30D11B4B91
:107270001A68039B1340002B22D1019801F06EFA8B
:107280000346002B06D0164B1A68039B1343144A7F
:10729000136006E0039BDA43114B1B681340104A4E
:1072A00013600E4B1A68039B13430C4A13600A4881
:1072B0000C4B1B6800221946FCF720FE029008E0E8
:1072C000039BDA43054B1B681340044A136000E03C
:1072D00000BF05B05DF804FB283600204C360020C6
:1072E000483600202436002000B589B003900B46B4
:1072F00001928DF80B30019B042B01D8072351E03C
:1073000001F034F9034683F00103DBB2002B07D010
:1073100001F0E4F80790079B002B01D0079B41E0A8
:10732000224A039B1360224A9DF80B301370214AB6
:10733000019B1360204B00221A60204B00221A6030
:1073400023E09DF80B30DB00039A134406930323DC
:107350008DF8143000238DF8153000238DF8163089
:1073600000238DF81730069B9B788DF81530069B0F
:107370001B78184605AB124A194601F003F907902D
:10738000079B002B01D0079B0CE09DF80B305A1E89
:107390008DF80B20002BD4D10A4A00210A48FCF7B3
:1073A0007DFD0346184609B05DF804FB1C3600203D
:1073B0002036002024360020483600204C3600209D
:1073C000497202007171020088C6030000B583B0E3
:1073D000114B1B68002B03D11049B62003F0DCFED3
:1073E000002301930CE00C4B1A68019BDB00134453
:1073F0001B780121184601F029F9019B0133019303
:10740000074B1B781A46019B9342ECD30023184686
:1074100003B05DF804FB00BF1C3600208CC60300DF
:107420002036002000B589B0039002910192029BA2
:107430009BB2ADF81430019B0693039B079305ABF9
:107440001A46002144F20100FBF756FF00BF09B0C5
:107450005DF804FB86B003900291019201238DF840
:1074600017309DF81730214A039B13601F4A029B77
:1074700053601E4A019B9360039B44F201029342B6
:1074800013D0039B44F20202934222D1019B174A7C
:10749000D360164BDB681B881A46144B9A61134B5A
:1074A000DB685B68114AD36113E0019B0F4A1361EB
:1074B0000E4B1B699B680D4A53610C4B1B691B8863
:1074C0001A460A4B9A61094B1B695B68074AD361EC
:1074D00000BF72B600BF00BF9DF81730DBB2002BB3
:1074E000FAD162B600BF00BF06B070475036002028
:1074F00000B583B00190019B1B681F2B04D905497F
:107500004FF4E87003F048FE4FF0A043184603B074
:107510005DF804FBFCC6030000B585B00190084689
:1075200011461A4603468DF803300B468DF802309B
:1075300013468DF8013001AB1846FFF7D9FF0390D1
:107540009DF803209DF802305B001A439DF801303E
:107550009B001A439DF818301B0242EA03019DF874
:107560001C301B04019A1943039B02F5E07243F897
:10757000221000BF05B05DF804FB00B585B0039094
:10758000002301930023009300230122012103988B
:10759000FFF7C2FF00BF05B05DF804FB00B585B082
:1075A000019001AB1846FFF7A3FF0390019B012256
:1075B00002FA03F31946039800F086F800BF05B0FD
:1075C0005DF804FB00B585B0019001AB1846FFF7EC
:1075D0008FFF0390019B012202FA03F319460398DF
:1075E00000F07CF800BF05B05DF804FB00B585B085
:1075F000019001AB1846FFF77BFF0390039BD3F884
:1076000004350293029BDA43019B012101FA03F343
:107610001A40039BC3F80825019B01229A40029B54
:107620001A40039BC3F80C2500BF05B05DF804FBAE
:1076300000B583B001900091009B002B03D101980D
:10764000FFF7C0FF02E00198FFF7A8FF00BF03B0FB
:107650005DF804FB00B585B0019001AB1846FFF75B
:1076600047FF0390039800F01FF80246019B22FA9F
:1076700003F303F00103184605B05DF804FB00B501
:1076800085B0019001AB1846FFF732FF03900398D5
:1076900000F012F80246019B22FA03F303F0010303
:1076A000184605B05DF804FB82B00190019BD3F849
:1076B0001035184602B0704782B00190019BD3F894
:1076C0000435184602B0704782B001900091019BCA
:1076D000009AC3F8082500BF02B0704782B001903D
:1076E0000091019B009AC3F80C2500BF02B07047BF
:1076F00000B585B00190019B032B03D911493720B8
:1077000003F04AFD104A019B13441B781846FFF70B
:10771000B6FF0346002B14BF012300238DF80F3062
:107720009DF80F30002B14BF01230023DBB283F040
:107730000103DBB203F00103DBB2184605B05DF8CC
:1077400004FB00BF30C7030090C7030000B583B03F
:107750000190019B032B03D907493E2003F01CFD38
:10776000064A019B13441B7800211846FFF760FF6F
:1077700000BF03B05DF804FB30C7030090C70300EF
:1077800000B583B00190019B032B03D90749442026
:1077900003F002FD064A019B13441B7801211846A1
:1077A000FFF746FF00BF03B05DF804FB30C70300DE
:1077B00090C7030000B583B00023019305E0019852
:1077C000FFF7DEFF019B01330193019B032BF6D9E9
:1077D00000BF00BF03B05DF804FB00B583B0002319
:1077E000019305E00198FFF7B1FF019B013301937D
:1077F000019B032BF6D900BF00BF03B05DF804FB6B
:1078000000B583B00190019B032B03D907495C208D
:1078100003F0C2FC064A019B13441B781846FFF78D
:10782000E5FE00BF03B05DF804FB00BF30C70300F6
:1078300090C7030000B583B00023019309E0094A13
:10784000019B13441B781846FFF797FE019B0133F9
:107850000193019B032BF2D9FFF7ACFF00BF03B0EC
:107860005DF804FB90C7030000B585B00190019B53
:10787000032B03D91149832003F08EFC104A019B8E
:1078800013441B781846FFF7E5FE0346002B14BF90
:10789000012300238DF80F309DF80F30002B14BF0B
:1078A00001230023DBB283F00103DBB203F0010309
:1078B000DBB2184605B05DF804FB00BF30C703001B
:1078C00094C7030084B001904FF0FF33029300236C
:1078D00003930DE00A4A039B13441B781A46019B4D
:1078E000934202D1039B029305E0039B0133039370
:1078F000039B032BEED9029B184604B0704700BFD0
:1079000094C7030082B003468DF807309DF8073016
:1079100003F01F0205499DF907305B09012000FAB9
:1079200002F241F8232000BF02B0704700E100E0FE
:1079300082B003468DF807309DF8073003F01F0230
:1079400006499DF907305B09012000FA02F2603315
:1079500041F8232000BF02B0704700BF00E100E003
:1079600082B0034600918DF807309DF90730002B57
:107970000CDA009BDAB20C499DF8073003F00F03D4
:10798000043B5201D2B20B441A7609E0009BDAB2F2
:1079900006499DF907305201D2B20B4483F8002307
:1079A00000BF02B0704700BF00ED00E000E100E062
:1079B00000B583B003460A468DF8073013468DF8AC
:1079C00006309DF80630012B03D99DF80630032BB5
:1079D0000CD99DF80630042B03D99DF80630072BEF
:1079E00004D90D494FF4927003F0D6FB9DF80620A0
:1079F0009DF9073011461846FFF7B2FF9DF9073091
:107A00001846FFF795FF9DF907301846FFF77AFFF4
:107A100000BF03B05DF804FB98C7030082B00346C3
:107A20008DF807309DF8073003F01F0206499DF9D5
:107A300007305B09012000FA02F2203341F82320CD
:107A400000BF02B0704700BF00E100E082B00190CB
:107A50004FF08042019BC2F8043300BF02B0704770
:107A600082B001904FF08042019BC2F8083300BF02
:107A700002B0704782B003468DF807309DF807309A
:107A800003F1804301221A6000BF02B0704784B046
:107A90000346ADF80630BDF8063003F180430022FE
:107AA0001A60BDF8063003F180431B680393039B03
:107AB00000BF04B0704782B00346ADF80630BDF891
:107AC000063003F180431B68002B14BF0123002301
:107AD000DBB2184602B0704782B003468DF807301B
:107AE0009DF807304FF0804203F00303C2F81835C9
:107AF00000BF02B070474FF08043D3F818341B0C1E
:107B000003F00103002B14BF01230023DBB218464E
:107B10007047000082B003468DF807300A4A9DF98D
:107B200007305B0952F823209DF8073003F01F034C
:107B3000012101FA03F31340002B14BF012300239A
:107B4000DBB2184602B0704700E100E008B5002043
:107B5000FFF7E0FF034683F00103DBB2002B03D005
:107B600007210020FFF724FF00BF08BD08B54FF430
:107B70008270FFF78CFF0220FFF768FF0820FFF7F5
:107B800079FF00BF08BD000008B508F0E9F803461A
:107B900083F00103DBB2002B03D10949842003F0F9
:107BA000FBFA0C20FFF766FF00BFFFF7A4FF0346B8
:107BB000002BFAD1034B00229A7000BF08BD00BF12
:107BC0000CC803007036002000B583B00023019379
:107BD000134B1B78002B02D0852301931BE0104B25
:107BE00000229A600E4B00225A600D4B00221A614F
:107BF0000B4B0022DA60FFF7A9FF08F0B1F803464B
:107C000083F00103DBB2002B02D00120FFF764FFF9
:107C1000034B01221A70019B184603B05DF804FB68
:107C20007036002084B001900091019B1B68039383
:107C300006E0039A009B9A420DD0039B1B680393B6
:107C4000039B002BF5D1019B1A68009B1A60019BD6
:107C5000009A1A6000E000BF04B0704784B0019041
:107C6000019B1B680393039B002B03D0039B1A68A3
:107C7000019B1A60039B184604B0704700B585B09D
:107C80000190294B1B78002B03D12849FB2003F0DE
:107C900083FA254B9B78DBB2002B19D0019B002B7C
:107CA00003D0019B5B680120984700238DF80F30BB
:107CB0000DF10F031846FCF7E9F91B4BDB680133A4
:107CC000194AD3609DF80F301846FCF7F5F91EE00D
:107CD00000238DF80E300DF10E031846FCF7D6F98F
:107CE000019B002B03D001991148FFF79BFF0E4B1E
:107CF000DB68002B01D1FFF739FF0B4BDB68013349
:107D0000094AD3609DF80E301846FCF7D5F9064BAA
:107D1000DB68002B04D1054940F2171003F03CFA50
:107D200000BF05B05DF804FB703600200CC80300EE
:107D30008036002000B583B0164B1B78002B04D191
:107D400015494FF48E7003F027FA124BDB68002BB5
:107D500004D1114940F21D1003F01EFA00238DF8E2
:107D600007300DF107031846FCF790F9094BDB6863
:107D7000013B084AD360074BDB68002B01D1FFF7BA
:107D800003FF9DF807301846FCF796F900BF03B0D3
:107D90005DF804FB703600200CC8030000B585B008
:107DA00003468DF807309DF80730002B02D10C4BAD
:107DB000039301E00B4B03930398FFF74FFF0290EF
:107DC000029B002B06D0029B5B689DF807201046A3
:107DD0009847F1E700BF00BF05B05DF804FB00BFA6
:107DE000783600208036002008B54FF48070FFF709
:107DF00062FE0346002B0CD04FF48070FFF747FE65
:107E00000120FFF72DFE0E4B01225A700020FFF7D4
:107E1000C5FF4FF48270FFF74EFE0346002B0CD0D7
:107E20004FF48270FFF733FE0220FFF719FE044B78
:107E300001229A700120FFF7B1FF00BF08BD00BF0B
:107E40007036002000B583B001900091019B002B9B
:107E500002D10020FFF7A2FF00BF03B05DF804FBD2
:107E600000B585B0034600918DF807309DF80730C6
:107E7000032B29D0032B37DC002B02D0012B04D09D
:107E800032E00020FFF7CAFD2FE000238DF80F300D
:107E90000DF10F031846FCF7F9F8164B1B7883F029
:107EA0000103DBB2002B01D0FFF78EFE114BDB6824
:107EB0000133104AD3600F4B01229A709DF80F30A6
:107EC0001846FCF7F9F810E00A4B1B78002B04D198
:107ED000094940F25B2003F05FF907210020FFF71A
:107EE00067FDFFF727FF00E000BF00BF05B05DF8AA
:107EF00004FB00BF703600200CC8030000B583B03F
:107F00000346ADF80630BDF80630184600F026F8F6
:107F100003461B68012B0CBF01230023DBB218466C
:107F200003B05DF804FB00B585B00346ADF806303C
:107F3000BDF80630184600F011F803461A46002333
:107F40001360BDF80630184600F008F803461B68B9
:107F50000393039B00BF05B05DF804FB82B00346AA
:107F6000ADF80630BDF8063003F1804303F5C04399
:107F7000184602B07047000082B00190034A019B8E
:107F8000C2F8043300BF02B0704700BF0060004079
:107F900082B00190034BD3F80423019B1340184691
:107FA00002B070470060004082B00190084A019B17
:107FB00003F5A27352F82330054943F00102019BF7
:107FC00003F5A27341F8232000BF02B0704700BF41
:107FD0000060004084B00390029113468DF8073092
:107FE000144A039B03F5A27352F82330114923F47A
:107FF000473323F44073039A02F5A27241F822300A
:108000000C4A039B03F5A27352F82320029B1B0228
:1080100003F4F8519DF807301B0403F440330B437D
:1080200004491A43039B03F5A27341F8232000BFC0
:1080300004B070470060004082B00190054A019B87
:1080400003F5A27352F823301B0A03F01F031846EE
:1080500002B070470060004082B00190064A019B68
:1080600003F5A27352F823301B0C03F00303DBB2B9
:10807000184602B0704700BF0060004000B583B0F2
:108080000190019B1B681F2B04D905494FF4E87030
:1080900003F082F84FF0A043184603B05DF804FBEC
:1080A00080C8030000B585B00190084611461A4605
:1080B00003468DF803300B468DF8023013468DF8D9
:1080C000013001AB1846FFF7D9FF03909DF803205C
:1080D0009DF802305B001A439DF801309B001A4363
:1080E0009DF818301B0242EA03019DF81C301B0466
:1080F000019A1943039B02F5E07243F8221000BF76
:1081000005B05DF804FB00B585B003900B468DF813
:108110000B309DF80B3000220192002200920022C9
:1081200000210398FFF7BEFF00BF05B05DF804FB18
:1081300000B585B0019001AB1846FFF79FFF039093
:10814000019A039B02F5E07253F8223023F00203F8
:108150000293019A039B02F5E072029943F8221000
:1081600000BF05B05DF804FB00B585B001900B467B
:108170008DF8033001AB1846FFF780FF0390019A9A
:10818000039B02F5E07253F82230019A23F4403148
:10819000039B02F5E07243F82210019A039B02F55B
:1081A000E07253F822309DF8032012041146019A20
:1081B0001943039B02F5E07243F8221000BF05B09B
:1081C0005DF804FB00B585B0019001AB1846FFF7E0
:1081D00055FF0390039800F020F80246019B22FA15
:1081E00003F303F00103184605B05DF804FB00B586
:1081F00085B0019001AB1846FFF740FF0390019A4C
:10820000039B02F5E07253F822301B0C03F00303CA
:10821000DBB2184605B05DF804FB82B00190019B0B
:10822000D3F81035184602B07047000000B587B08B
:108230000390029101924FF0A0430493039A029B92
:108240001344012B04D912494FF43A7002F0A4FFF1
:10825000039B059311E0059B9B0006AA134453F86A
:10826000083C1846FFF7D9FF0246019B1A60019BA4
:1082700004330193059B01330593039A029B134436
:10828000059A9A42E7D300BF00BF07B05DF804FB30
:1082900080C8030084B001900091009B0393019B70
:1082A000DB080293019B03F0070301930122019B6A
:1082B00002FA03F30399029A0A441278134018460B
:1082C00004B0704784B001900091009B0393019B20
:1082D000DB080293019B03F007030193039A029BBF
:1082E00013441B785AB20121019B01FA03F35BB2DC
:1082F000134359B2039A029B1344CAB21A7000BFC7
:1083000004B0704782B001900C4A019B1344303393
:1083100093F90030002B09DB084A019B13443033EA
:1083200093F90030072B01DC012300E0002303F068
:108330000103DBB2184602B0704700BF843600204C
:1083400082B00190064A019B1344303393F9003008
:10835000072BCCBF01230023DBB2184602B07047C5
:108360008436002082B00190064A019B13443033CA
:1083700093F90030DB43DBB2DB09DBB2184602B015
:10838000704700BF8436002084B0039002910192B0
:108390008DF80330029B59B20E4A039B13443033CD
:1083A0000A461A700B49029B019A41F823209DF856
:1083B000033083F00103DBB2002B08D0029B083BA3
:1083C000039A51B2034A13440A4683F8502000BF6F
:1083D00004B070478436002082B00190044A019BAB
:1083E00013443033FF221A7000BF02B0704700BF41
:1083F0008436002082B00190044A019B134430333C
:1084000093F90030184602B0704700BF8436002050
:1084100082B00190034A019B52F82330184602B003
:10842000704700BF8436002000B589B003900291E8
:1084300013468DF80730FF238DF81F309DF8073065
:10844000002B01D0002300E0082305939DF807309E
:10845000002B01D0082300E00C230493059B069316
:1084600014E00F4A069B52F82330B3F1FF3F0AD1C4
:108470009DF80730029A06990398FFF785FF069B3F
:108480008DF81F3006E0069B01330693069A049B85
:108490009A42E6D39DF91F30184609B05DF804FBF7
:1084A0008436002082B003468DF807309DF80730EF
:1084B000094A4FF0FF3142F823109DF80730072B8F
:1084C00007D99DF80730083B034A1344FF2283F87D
:1084D000502000BF02B070478436002000B583B042
:1084E000214B93F85430002B03D008230093009BBA
:1084F00036E000238DF8073009E09DF80730184674
:10850000FFF76AFF9DF8073001338DF807309DF8BB
:1085100007301F2BF1D900238DF8073009E09DF8B3
:1085200007301846FFF7BEFF9DF8073001338DF87E
:1085300007309DF807300B2BF1D907210620FFF7F4
:1085400037FA4FF4BE70FFF7EEFC4FF00040FFF734
:1085500013FD054B012283F8542000230093009B58
:10856000184603B05DF804FB84360020044B93F8F2
:108570005430002B14BF01230023DBB21846704790
:108580008436002000B587B0039002910192039BCE
:108590001F2B04D92B4940F2F71002F0FDFD0023F8
:1085A00005930398FFF7DEFE0346002B02D0082355
:1085B000059341E0029BDB781A4601990398FFF787
:1085C00033FF03468DF813309DF91330B3F1FF3FAD
:1085D00030D0029B9B78002B03D00398FFF7A8FDB7
:1085E00005E0029B5B7819460398FFF78CFD029B20
:1085F000DB78002B08D09DF91300029B1B781A46EC
:108600000399FFF7E7FC17E09DF91330083B0E4A8A
:10861000134493F95010029B1B789B015AB29DF9A9
:108620001330083B0A4351B2074A13440A4683F801
:10863000502001E004230593059B184607B05DF820
:1086400004FB00BFB4C803008436002000B589B025
:1086500001900B468DF80330019B1F2B04D93D4937
:1086600040F2252002F098FD0198FFF77BFE0346BB
:10867000002B04D1374940F2262002F08DFD0198ED
:10868000FFF75EFE0346002B2FD00198FFF7B2FEE6
:108690000346083B304A134493F950308DF80F30AD
:1086A0009DF80F309B098DF80E309DF80E30032B8E
:1086B0000BD10198FFF786FD0346002B01D0032361
:1086C00000E002238DF81F3008E09DF80E30012BEA
:1086D00001D1022300E003238DF81F309DF81F30E5
:1086E00019460198FFF740FD30E00198FFF70AFEB8
:1086F0000346002B2AD00198FFF77CFE0346069321
:10870000069B9BB240339BB29B00ADF81630069B94
:108710001846FFF749FCBDF816301846FFF703FC72
:108720009DF80330002B11D00198FFF763FE03463C
:108730001846FFF76DFE0490049B002B06D0012223
:10874000069B02FA03F31846FFF716FC00BF09B0B8
:108750005DF804FBB4C803008436002000B583B084
:108760000190019B1F2B04D9084940F2722002F0AE
:1087700013FD0198FFF726FD0346002B14BF0123CC
:108780000023DBB2184603B05DF804FBB4C8030055
:1087900000B595B000231393002303934FF4807327
:1087A000ADF84630012310930023129321E0BDF869
:1087B00046301846FFF7A2FB0346002B0ED0109858
:1087C000FFF7E6FB0346002B08D0BDF846301846FD
:1087D000FFF7A9FB139A109B13431393109B5B00A5
:1087E0001093BDF846300433ADF84630129B013388
:1087F0001293129B072BDAD94FF4BE70FFF77EFB62
:108800000346002B0DD04FF4BE70FFF78CFB139B7B
:1088100043F00043139303AB1A4601210020FFF7F6
:1088200005FD139BDBB2002B29D0012310930023FD
:10883000129321E0109A139B1340002B16D012982C
:10884000FFF7FAFB0D901298FFF706FC03468DF830
:1088500033301298FFF7DCFD0B900B9B002B05D0FB
:108860009DF833200B9B11460D989847109B5B0099
:108870001093129B01331293129B072BDAD9139B8F
:10888000002B80F2EE8000238DF83B300023029312
:1088900000230F930AE00F9B9B0014AA13444FF090
:1088A000FF3243F84C2C0F9B01330F930F9B002B8F
:1088B000F1D000238DF83B300023129378E06B4A0F
:1088C000129B1344503393F900308DF82B309DF8F0
:1088D0002B3023F0C0030993644A129B1344503396
:1088E00093F90030B3F1FF3F5FD001AB194609980F
:1088F000FFF7D0FC0346002B57D09DF82B309B0987
:108900008DF823300998FFF775FD03461846FFF7E9
:108910007FFD0790079B002B03D19DF82330032B8D
:1089200043D19DF82330032B04D102AB194609989B
:10893000FFF7C8FC0998FFF75AFC03468DF81B3077
:1089400003AB19460998FFF7A5FC0590059B002B82
:1089500003D09DF81B30022B06D0059B002B24D1A1
:108960009DF81B30032B20D19DF82330032B13D10E
:108970009DF81B30022B01D1032300E002238DF868
:1089800013309DF8133019460998FFF7EDFB9DF859
:108990003B3001338DF83B30079B002B05D09DF811
:1089A0002320079B114609989847129B0133129385
:1089B000129B032B83D99DF83B30002B4CD0012315
:1089C0008DF83A306B461A4601210020FFF72EFC45
:1089D00000230F9314E00F9B9B0014AA134453F839
:1089E000502C0F9B9B0014A90B4453F8443C9A4213
:1089F00003D000238DF83A3005E00F9B01330F932D
:108A00000F9B002BE7D09DF83A30002B03D00023BA
:108A10008DF83B3020E000230F931AE00F9B9B0062
:108A200014AA134453F8502C0F9B9B0014A90B4419
:108A300043F8442C0F9B9B0014AA134453F8482C72
:108A40000F9B9B0014A90B4443F84C2C0F9B013344
:108A50000F930F9B002BE1D09DF83B30002B7FF450
:108A600028AF00BF15B05DF804FB00BF84360020BE
:108A700082B003468DF807309DF8073003F01F02DF
:108A800006499DF907305B09012000FA02F2203304
:108A900041F8232000BF02B0704700BF00E100E0B2
:108AA00084B001900B46ADF80230BDF80230019A57
:108AB000134400221A60BDF80230019A13441B6867
:108AC0000393039B00BF04B0704782B001900B4634
